:100000000C9434000C9451000C9451000C94510049
:100010000C9451000C9451000C9451000C9451001C
:100020000C9451000C9451000C9451000C94000B52
:100030000C9451000C9451000C9451000C945100FC
:100040000C9451000C9451000C9451000C945100EC
:100050000C9451000C9451000C9451000C945100DC
:100060000C9451000C94510011241FBECFEFD4E02A
:10007000DEBFCDBF11E0A0E0B1E0EAE2F1E202C0F4
:1000800005900D92A436B107D9F712E0A4E6B1E0CD
:1000900001C01D92A135B107E1F70E94930A0C94AB
:1000A00093100C94000097B121E030E002C0220FC1
:1000B000331F8A95E2F7922B97B988B12095822356
:1000C00088B98FEC97E00197F1F700C0000087B185
:1000D000822387B987E191E00197F1F700C0000022
:1000E00086B18FE896E00197F1F700C0000081E04B
:1000F00090E0089521E030E002C0220F331F8A957E
:10010000E2F7322F309588E090E060FF14C047B1ED
:10011000422B47B948B1432348B94AE14A95F1F720
:1001200000C047B1432347B9EBEDF0E03197F1F759
:1001300000C000000FC047B1422B47B948B143236C
:1001400048B9EFEEF0E03197F1F700C0000047B199
:10015000432347B9019711F06695D7CF08951F93B0
:10016000182F0E9453000097B9F08FE99FE0019784
:10017000F1F700C00000812F6CEC0E947A00812F03
:1001800064E40E947A008FEF93EDA0E381509040E9
:10019000A040E1F700C000001F91089597B121E051
:1001A00030E0082E02C0220F331F0A94E2F7922B90
:1001B00097B998B12095922398B995E09A95F1F75F
:1001C000000097B1922397B9E5E3EA95F1F70000B3
:1001D00026B1E7ECF0E03197F1F700C0000030E025
:1001E00002C0359527958A95E2F7822F8170089590
:1001F0000F931F93CF93DF93082FC8E0D0E010E058
:10020000802F0E94CE008795882787951695182BFA
:100210002197B1F7812FDF91CF911F910F91089511
:10022000FF920F931F93182F0E945300009751F1D4
:10023000812F6CEC0E947A00812F6EEB0E947A0075
:10024000812F0E94F800082F812F0E94F800F82EBD
:10025000812F0E94F800812F0E94F800812F0E94B8
:10026000F800812F0E94F800812F0E94F800812F52
:100270000E94F800812F0E94F8003F2D20E0200FFF
:10028000311D02C020E030E0C9011F910F91FF90A5
:100290000895AF92BF92CF92DF92EF92FF920F93A9
:1002A0001F93CF93DF930E9410019C0197FF0EC014
:1002B000309521953F4F0F2EF0E0EF2EF0E0FF2E0E
:1002C000F0E80F2FFFEB1F2FF02D0AC00F2EF0E0EC
:1002D000EF2EF0E0FF2EF0E80F2FFFE31F2FF02DA1
:1002E000B9016F70707041E752E0649FC001659F73
:1002F000900D749F900D112468EE73E00E942510FC
:10030000EB0141E0843F94070CF0219684E03695A0
:1003100027958A95E1F72F773070B90180E090E05A
:100320000E94F80E5B016C01BE01882777FD809565
:10033000982F0E94FA0E20E030E040E251E40E9443
:10034000640E9B01AC01C601B5010E94FC0DA80121
:1003500097010E94AE0FDF91CF911F910F91FF90F7
:10036000EF90DF90CF90BF90AF9008955E989BB1D3
:10037000907F9BB92BB1982F92959F70922B9BB930
:100380005D9AEFE9FFE03197F1F700C000005D985A
:10039000EFEBFDE53197F1F700C000009BB1907FD6
:1003A0009BB99BB18F70892B8BB95D9A8FE99FE0C8
:1003B0000197F1F700C000005D9808955F9A0E94D0
:1003C000B60108955F980E94B6018FEB9DE50197F5
:1003D000F1F700C000000895803118F0805198EACC
:1003E00001C090E8890F0E94E201089581E00E9417
:1003F000E20108958FEF8AB91BB88FEF96E7A1E06D
:1004000081509040A040E1F700C000005F985E98E6
:100410008BB1807F8BB98BB183608BB9AFE1BEE4C8
:100420001197F1F700C000008BB1807F8BB98BB1C1
:1004300083608BB987EE93E00197F1F700C000006D
:100440008BB1807F8BB98BB183608BB9AFE1BEE498
:100450001197F1F700C000008BB1807F8BB9599ADA
:100460005D9A8FEB9DE50197F1F700C000005D9864
:1004700088E20E94E20188E00E94E20181E00E949D
:10048000E20186E00E94E2018CE00E94E201089510
:10049000EF92FF92CF93DF93E82EE7017E01F92ED2
:1004A000E70102C00E94DE0189918823D9F7DF911C
:1004B000CF91FF90EF90089584E791E060E270E0C3
:1004C00040E250E00E945A10109264010895CF93C8
:1004D000DF9380E00E94EC01C4E7D1E089910E94A3
:1004E000DE0181E0C438D807C9F780E10E94EC0141
:1004F00089910E94DE0181E0C439D807C9F7DF91F4
:10050000CF910895282F392FD9010AC09091640105
:10051000E92FF0E0EC58FE4F80839F5F90936401D9
:100520008D91882399F708958093640108950F931E
:100530001F93DF93CF9300D000D000D0CDB7DEB7AC
:10054000009761F480916401E82FF0E0EC58FE4FD1
:1005500090E390838F5F8093640136C097FF0EC055
:1005600020916401E22FF0E0EC58FE4F3DE2308331
:100570002F5F20936401909581959F4FFE013196E6
:1005800020E030E00AE010E0B8010E9425108193DD
:100590002F5F3F4FCB010097B9F760916401CE0107
:1005A0000196FC01E20FF31F462F08C0A42FB0E014
:1005B000AC58BE4F5291505D5C934F5FE817F907FE
:1005C000A9F7260F2093640126960FB6F894DEBF94
:1005D0000FBECDBFCF91DF911F910F910895EF9284
:1005E000FF920F931F937B018C0120E030E0A90163
:1005F0000E94600E9091640187FF0EC0E92FF0E029
:10060000EC58FE4F8DE280839F5F9093640117FB4F
:10061000109517F9109509C0E92FF0E0EC58FE4F3E
:100620008BE280839F5F90936401C801B7010E94B1
:10063000CC0EDC01CB010E94970280916401E82F6F
:10064000F0E0EC58FE4F9EE290838F5F8093640150
:10065000C801B70120E030E040E251E40E94AE0F53
:100660000E94CC0ECB016AE070E00E9411100E9443
:1006700097021F910F91FF90EF900895882311F436
:1006800087E0089584E00895882311F482E00895B6
:1006900083E008958EEA91E00E94100D08950E9473
:1006A000F601109265011092660110926901109294
:1006B0006A0110926B0110926C0178940895F8947D
:1006C0009EE19093650180936601109269011092FA
:1006D0006A0110926B0110926C01289A299A2A9A49
:1006E0002B9A08959AE09093650180936701609337
:1006F00066011092690110926A0110926B011092CA
:100700006C01089594E190936501109266018093C5
:100710006701609368011092690110926A0110925A
:100720006B0110926C0110924C0210924A020895D3
:1007300088E280936501109266011092690110921F
:100740006A0110926B0110926C0110924C0210928F
:100750004A02289A299A2A9A2B9A0895EF92FF9290
:100760000F931F93DF93CF9300D0CDB7DEB7E09008
:100770006901F0906A0100916B0110916C01C80150
:10078000B70124EF31E040E050E00E9438106115DD
:1007900071058105910571F00894E11CF11C011DA2
:1007A000111DE0926901F0926A0100936B011093B0
:1007B0006C019DC085E00E94AF0084E00E94AF0004
:1007C00083E00E94AF0085E00E94490160939A0196
:1007D00070939B0180939C0190939D0184E00E9403
:1007E000490160939E0170939F018093A0019093B3
:1007F000A10183E00E9449016093A2017093A301CB
:100800008093A4019093A5018EEA91E06AE971E0DA
:1008100040E00E94070D8EEA91E06AE971E041E054
:100820000E94070D8EEA91E06AE971E042E00E94C1
:10083000070D8EEA91E06AE971E043E00E94070D3E
:100840000E945C0280E00E94940260919A01709183
:100850009B0180919C0190919D010E94EF0288E094
:100860000E94940260919E0170919F018091A0016D
:100870009091A1010E94EF0280E10E949402609198
:10088000A2017091A3018091A4019091A5010E9401
:10089000EF0288E10E94940280917001992787FD00
:1008A00090950E9497028FE10E9494021A820E9402
:1008B0002F0C882311F08BE201C08DE28983CE01D9
:1008C00001960E9482020E94670281E090E0A0E00F
:1008D000B0E08093690190936A01A0936B01B0939B
:1008E0006C018FE891E00197F1F700C000000F90D4
:1008F0000F90CF91DF911F910F91FF90EF9008958E
:10090000EF92FF920F931F93E0906901F0906A01BC
:1009100000916B0110916C01C801B70120EE3EE21D
:1009200040E050E00E943810611571058105910585
:1009300071F00894E11CF11C011D111DE092690188
:10094000F0926A0100936B0110936C0135C00E9414
:100950005C0281E00E94940280E091E00E948202A9
:1009600081E10E9494028BE091E00E94820289E181
:100970000E9494028EE091E00E94820280916601C2
:10098000882319F0813031F402C080E101C088E190
:100990000E94940282E191E00E9482020E9467021A
:1009A00081E090E0A0E0B0E08093690190936A015B
:1009B000A0936B01B0936C011F910F91FF90EF908A
:1009C0000895EF92FF920F931F93E0906901F090CA
:1009D0006A0100916B0110916C01C801B70120EE12
:1009E0003EE240E050E00E9438106115710581053B
:1009F000910571F00894E11CF11C011D111DE0929C
:100A00006901F0926A0100936B0110936C0185C03B
:100A10000E945C0281E00E94940284E191E00E94C5
:100A2000820289E00E9494028AE191E00E9482029F
:100A300080916701882339F081E10E94940280E26D
:100A400091E00E94820280916601813039F081300C
:100A500018F0823041F404C080E003C088E001C097
:100A600080E10E94940282E191E00E948202209142
:100A7000670130E087E290E0289FF001299FF00DA8
:100A8000389FF00D1124E255FE4F8185882339F0FF
:100A900086E00E94940286E291E00E948202209108
:100AA000670130E087E290E0289FF001299FF00D78
:100AB000389FF00D1124E255FE4F8689882339F0C6
:100AC0008EE00E94940286E291E00E9482022091D0
:100AD000670130E087E290E0289FF001299FF00D48
:100AE000389FF00D1124E255FE4F83A1882339F081
:100AF00086E10E94940286E291E00E9482020E94B6
:100B0000670281E090E0A0E0B0E0809369019093FB
:100B10006A01A0936B01B0936C011F910F91FF903C
:100B2000EF900895EF92FF920F931F93E090690169
:100B3000F0906A0100916B0110916C01C801B7013E
:100B400024EF31E040E050E00E943810611571055B
:100B50008105910571F00894E11CF11C011D111D26
:100B6000E0926901F0926A0100936B0110936C01AD
:100B7000FFC0909168018DE0989FC00111243091D1
:100B8000670127E2329F90011124820F931F825543
:100B90009E4F909395018093940181E090916D0117
:100BA000911180E080936D010E945C0280914C0263
:100BB000843008F05EC080916D01882321F480911B
:100BC0004A02813069F081E00E949402E091940130
:100BD000F091950160817181828193810E94EF0281
:100BE00080916D01882321F480914A02823069F05E
:100BF00089E00E949402E0919401F0919501648152
:100C00007581868197810E94EF0280916D01882312
:100C100021F480914A02833089F081E10E9494029C
:100C2000E0919401F09195018085882319F088E284
:100C300091E002C08DE291E00E94820280916D01FC
:100C4000882329F480914A02843009F459C089E14B
:100C50000E949402E0919401F0919501818588238E
:100C600019F082E391E002C085E391E00E948202E4
:100C700047C0873008F044C080916D01882321F47B
:100C800080914A02853059F081E00E949402E091FF
:100C90009401F0919501828590E00E9497028091E5
:100CA0006D01882321F480914A02863099F089E011
:100CB0000E949402E0919401F0919501838590E067
:100CC0000E94970289E391E00E9482028EE190E007
:100CD0000E94970280916D01882321F480914A023D
:100CE000873059F081E10E949402E0919401F091E3
:100CF0009501848590E00E94970289E10E94940208
:100D000080914C028430D9F0853048F48130C9F0AC
:100D10008130A8F08230B9F08330C1F40EC0873042
:100D200071F0883028F4853061F0863079F40BC09A
:100D3000883039F0893051F406C088E105C080E080
:100D400003C088E001C080E10E94940282E191E04A
:100D50000E9482020E94670281E090E0A0E0B0E081
:100D60008093690190936A01A0936B01B0936C0129
:100D70001F910F91FF90EF900895EF92FF920F93C4
:100D80001F93E0906901F0906A0100916B0110914E
:100D90006C01C801B70120EE3EE240E050E00E9445
:100DA0003810611571058105910571F00894E11CF9
:100DB000F11C011D111DE0926901F0926A0100937E
:100DC0006B0110936C0144C00E945C0281E00E94A0
:100DD00094028BE391E00E94820289E00E949402D7
:100DE00082E491E00E94820281E10E94940289E4FF
:100DF00091E00E94820289E10E94940280E591E0E4
:100E00000E94820280916601813049F0813028F091
:100E1000823039F0833051F406C080E005C088E0AC
:100E200003C080E101C088E10E94940282E191E068
:100E30000E9482020E94670281E090E0A0E0B0E0A0
:100E40008093690190936A01A0936B01B0936C0148
:100E50001F910F91FF90EF900895CF93DF938091B2
:100E60006501843151F1853120F48A3009F0B1C037
:100E700011C08E3121F0883209F0ABC006C08091DC
:100E800066018823A1F484E010C080916601882364
:100E900049F00DC080916601882349F48091670173
:100EA000882311F482E001C083E080936601809181
:100EB00066018150809366018CC080914A0288232C
:100EC00099F480914C02882349F48091670188232A
:100ED00011F487E001C084E080934C0280914C02C1
:100EE000815080934C0214C0813091F4C0919401E0
:100EF000D0919501688179818A819B812DEC3CECB0
:100F00004CEC5DE30E94FB0D688379838A839B83AD
:100F100080914A02823099F4C0919401D091950158
:100F20006C817D818E819F812DEC3CEC4CEC5DE3EE
:100F30000E94FB0D6C837D838E839F834AC0833028
:100F400051F4E0919401F091950181E09085911127
:100F500080E080873EC0843051F4E0919401F091AC
:100F6000950181E09185911180E0818732C08530C3
:100F700089F4E0919401F0919501828581508287F6
:100F8000882311F48EE1828782858F3110F181E010
:100F900082871FC0863089F4E0919401F091950119
:100FA000838581508387882311F48EE1838783852D
:100FB0008F3178F081E083870CC0873051F4E09165
:100FC0009401F0919501848581508487833308F0E2
:100FD00014861092690110926A0110926B011092AE
:100FE0006C01DF91CF910895CF93DF9380916501DC
:100FF000843109F18E3121F08A3009F0A6C009C090
:10100000809166018F5F80936601843009F09DC0F6
:101010000FC0809166018F5F809366019091670198
:10102000992311F492E001C093E0891709F08DC073
:10103000109266018AC080914A02882389F48091C7
:101040004C028F5F80934C0290916701992311F4B9
:1010500097E001C094E08917B9F410924C0214C0D3
:10106000813091F4C0919401D0919501688179818A
:101070008A819B812DEC3CEC4CEC5DE30E94FC0DE5
:10108000688379838A839B8380914A02823099F4B2
:10109000C0919401D09195016C817D818E819F8159
:1010A0002DEC3CEC4CEC5DE30E94FC0D6C837D83ED
:1010B0008E839F834AC0833051F4E0919401F09174
:1010C000950181E09085911180E080873EC0843059
:1010D00051F4E0919401F091950181E09185911195
:1010E00080E0818732C0853089F4E0919401F091ED
:1010F000950182858F5F8287882311F48EE1828734
:1011000082858F3110F181E082871FC0863089F49B
:10111000E0919401F091950183858F5F8387882307
:1011200011F48EE1838783858F3178F081E08387A6
:101130000CC0873051F4E0919401F09195018485C1
:101140008F5F8487833308F01486109269011092B0
:101150006A0110926B0110926C01DF91CF9108959A
:10116000809165018431F1F0853118F48A3071F590
:1011700005C08E3189F0883249F507C0809167013A
:10118000609166010E94820308958EEA91E00E94B8
:101190008C0D0E944F0308958091660160E00E94CB
:1011A0007203089580914A02882331F480914C02A1
:1011B0008F5F80934A02089510924A028EEA91E06E
:1011C00060916701409168010E946A0D0895CF9374
:1011D000DF93809165018A3019F08431D9F505C01B
:1011E000809167010E945F0335C080914A02882385
:1011F00039F480916701609168010E9472032AC0EE
:10120000813091F4C0919401D091950168817981E8
:101210008A819B8120E030E040EA50E40E94FB0D8F
:10122000688379838A839B8380914A02823091F418
:10123000C0919401D09195016C817D818E819F81B7
:1012400020E030E040EA50E40E94FB0D6C837D8397
:101250008E839F83DF91CF910895CF93DF93809109
:101260006501882319F0843181F503C00E94980339
:101270002CC080914A02813091F4C0919401D091A8
:101280009501688179818A819B8120E030E040EA84
:1012900050E40E94FC0D688379838A839B8380914C
:1012A0004A02823091F4C0919401D09195016C81F1
:1012B0007D818E819F8120E030E040EA50E40E94F1
:1012C000FC0D6C837D838E839F83DF91CF91089586
:1012D00080916501882319F40E945F0302C00E9477
:1012E0004F031092690110926A0110926B011092E3
:1012F0006C01089510929601109297011092980136
:10130000109299011092A6011092A7011092A801C3
:101310001092A9011092AA011092AB011092AC0197
:101320001092AD0138983A983998409A429A419A69
:101330000895309915C08091960190919701A091E0
:101340009801B0919901B7FD0BC00196A11DB11D87
:101350008093960190939701A0939801B09399017F
:10136000329915C08091A6019091A701A091A80182
:10137000B091A901B7FD0BC00196A11DB11D8093CD
:10138000A6019093A701A093A801B093A901319958
:1013900015C08091AA019091AB01A091AC01B091D0
:1013A000AD01B7FD0BC00196A11DB11D8093AA012F
:1013B0009093AB01A093AC01B093AD0180919601E5
:1013C00090919701A0919801B0919901893E23E0F5
:1013D000920720E0A20720E0B2076CF00E94E70825
:1013E0008FEF9FEFDC018093960190939701A0937C
:1013F0009801B09399018091A6019091A701A091C5
:10140000A801B091A901893E23E0920720E0A2073C
:1014100020E0B2076CF00E942D098FEF9FEFDC01F6
:101420008093A6019093A701A093A801B093A9016E
:101430008091AA019091AB01A091AC01B091AD0156
:10144000893E23E0920720E0A20720E0B2076CF07B
:101450000E9468098FEF9FEFDC018093AA019093AF
:10146000AB01A093AC01B093AD01309B1DC0809146
:10147000960190919701A0919801B09199010197DF
:10148000A109B109873E23E0920720E0A20720E0EE
:10149000B20710F40E942D07109296011092970146
:1014A0001092980110929901329B1DC08091A60163
:1014B0009091A701A091A801B091A9010197A1095C
:1014C000B109873E23E0920720E0A20720E0B2079F
:1014D00010F40E94F4071092A6011092A701109236
:1014E000A8011092A901319B1DC08091AA01909181
:1014F000AB01A091AC01B091AD010197A109B10977
:10150000873E23E0920720E0A20720E0B20710F414
:101510000E94B0081092AA011092AB011092AC0187
:101520001092AD010895DF93CF930F92CDB7DEB740
:101530000E942F0C80934B020E94FA010E947A09AC
:101540008EEA91E00E944F0D0E94DE0A8EEA91E041
:101550000E94100D5C9A0E942F0C90914B028917EB
:1015600021F089830E944A03898180934B020E9463
:1015700099098FE99FE00197F1F700C00000809181
:101580006501843191F0853128F4882341F08A3057
:1015900011F708C08E3161F08832E9F60CC00E9464
:1015A000AE03D9CF0E94E104D6CF0E949205D3CFDB
:1015B0000E94BD06D0CF0E948004CDCF2598209AEE
:1015C000219A229A239A289A299A2A9A2B9AF8944D
:1015D00010928000E1E8F0E010828DE192E09093BB
:1015E000890080938800808188608083AFE6B0E0C6
:1015F0008C9182608C93808185608083789408953B
:101600001F920F920FB60F9211242F933F934F9377
:101610005F936F937F938F939F93EF93FF93E091EB
:101620006E01F0916F013097A1F18091720190915C
:10163000730101969093730180937201208130E0D1
:10164000B901660F771FA901E5E0440F551FEA9520
:10165000E1F7461B570B4817590734F481E090E037
:10166000909373018093720140917001552747FD5B
:101670005095429FC001439F900D529F900D1124A1
:1016800020917201309173018217930714F028980A
:1016900001C0289AFF91EF919F918F917F916F9157
:1016A0005F914F913F912F910F900FBE0F901F9020
:1016B00018953F924F925F926F927F928F929F9276
:1016C000AF92BF92CF92DF92EF92FF920F931F9350
:1016D000CF93DF932C01A42EBB2487E290E0A89E39
:1016E0003001A99E700CB89E700C1124E201C60D49
:1016F000D71DC501880F991F8A0D9B1DB7E5CB2EFD
:10170000B1E0DB2EC80ED91EE62EF72EAAE58A2EF2
:10171000A1E09A2E880E991E860133243394898580
:10172000882309F44EC08885882339F1F701608148
:10173000718182819381288139814A815B810E94F4
:10174000600E87FF02C0D8011C92688179818A816E
:101750009B812C813D814E815F810E94FC0D9B010C
:10176000AC01F70160817181828193810E94AA0F8F
:1017700018164CF5D8013C9226C0688179818A817F
:101780009B812C813D814E815F810E94FB0D9B01DD
:10179000AC01F70160817181828193810E94600EAA
:1017A00087FF02C0D8013C92F7016081718182817C
:1017B0009381288139814A815B810E94AA0F181682
:1017C00014F4D8011C922D960F5F1F4FE4E0F0E057
:1017D000EE0EFF1E0815190509F0A1CFF301E40D67
:1017E000F51D86899185892B93A1892B9185992354
:1017F00029F0D6019C91992309F480E03D96089444
:10180000C11CD11CC814D90489F7882361F025B103
:1018100081E090E002C0880F991FAA94E2F78095BA
:10182000822385B90AC025B181E090E002C0880F0B
:10183000991FAA94E2F7282B25B9DF91CF911F9128
:101840000F91FF90EF90DF90CF90BF90AF909F905F
:101850008F907F906F905F904F903F90089581E0C0
:101860001D9B80E00895CF92DF92EF92FF920F933D
:101870001F93CF93DF93EC017B01142F0E942F0C59
:10188000082F8DE0089FC001112427E2129F9001CC
:101890001124820F931FC80FD91FC0906E01D090E2
:1018A0006F018985882339F410926F0110926E01BF
:1018B00010927001A3C088858823E9F1F701608147
:1018C000718182819381288139814A815B810E9463
:1018D000600E87FF0CC0812F90E0FC01EE0FFF1F10
:1018E000E80FF91FE00FF11DE95AFE4F10826881E1
:1018F00079818A819B812C813D814E815F810E940B
:10190000FC0D9B01AC01F7016081718182819381A3
:101910000E94AA0F18160CF049C0812F90E0FC011C
:10192000EE0FFF1FE80FF91FE00FF11DE95AFE4F00
:1019300081E080833BC0688179818A819B812C8191
:101940003D814E815F810E94FB0D9B01AC01F7013F
:1019500060817181828193810E94600E87FF0DC03A
:10196000812F90E0FC01EE0FFF1FE80FF91FE00F41
:10197000F11DE95AFE4F81E08083F701608171819A
:1019800082819381288139814A815B810E94AA0FDB
:10199000181664F4812F90E0FC01EE0FFF1FE80F92
:1019A000F91FE00FF11DE95AFE4F1082812F90E0E0
:1019B000FC01EE0FFF1FE80FF91FE00FF11DE95AC0
:1019C000FE4F80818823B1F02A96D0936F01C09397
:1019D0006E01C114D10491F480916301882339F41C
:1019E0008091700190917101891B80937001109218
:1019F000630104C010926F0110926E01DF91CF91CC
:101A00001F910F91FF90EF90DF90CF9008954423A6
:101A100019F00E94590B089540E00E94330C08957C
:101A2000CF93DF93EC010E942F0C90E02DE030E08B
:101A3000829FF001839FF00D929FF00D1124EC0F17
:101A4000FD1F83858093700184858093710181E0FF
:101A500080936301DF91CF9108951F93CF93DF931C
:101A6000EC01162F8DE0489FC001112427E2629FF0
:101A700090011124820F931F9C01205030408C0F45
:101A80009D1FB9014DE050E00E946110112319F42F
:101A9000CE010E94100DDF91CF911F9108951F93E9
:101AA000CF93DF93EC0110E0CE01612F40E00E9464
:101AB0002D0DCE01612F41E00E942D0DCE01612F31
:101AC00042E00E942D0D1F5F143071F7DF91CF911E
:101AD0001F9108951F93CF93DF93EC01162F8DE094
:101AE000489FC001112427E2629F90011124820FB8
:101AF000931F9C01205030408C0F9D1FB9014DE079
:101B000050E00E947110112319F4CE010E94100DB3
:101B1000DF91CF911F9108952F923F924F925F9244
:101B20006F927F928F929F92AF92BF92CF92DF92ED
:101B3000EF92FF920F931F93DF93CF9300D0CDB717
:101B4000DEB7D82EE92E0D2D1E2D20E00F2EF0E051
:101B50008F2EF0E09F2EF4EAAF2EF1E4BF2EF02D91
:101B60000F2EF0E04F2EF0E05F2EF0E86F2EFFE337
:101B70007F2EF02DFF24F3948EE1C82E24C0F101B6
:101B800080829182A282B382448255826682778269
:101B9000F0861186C386F28614868D2D9E2D622FC7
:101BA000432F29833A830E946A0D3A813F5F8DE07B
:101BB00090E0280E391E2981333009F72F5F095D27
:101BC0001F4F243019F0180130E0D9CF0F900F903B
:101BD000CF91DF911F910F91FF90EF90DF90CF9009
:101BE000BF90AF909F908F907F906F905F904F903D
:101BF0003F902F9008955058BB27AA270ED070C150
:101C000061D130F066D120F031F49F3F11F41EF421
:101C100056C10EF4E095E7FB4CC1E92F72D180F379
:101C2000BA17620773078407950718F071F49EF5D9
:101C30008AC10EF4E0950B2EBA2FA02D0B01B9012D
:101C400090010C01CA01A0011124FF27591B99F032
:101C5000593F50F4503E68F11A16F040A22F232F3E
:101C6000342F4427585FF3CF469537952795A7958E
:101C7000F0405395C9F77EF41F16BA0B620B730B35
:101C8000840BBAF09150A1F0FF0FBB1F661F771FA6
:101C9000881FC2F70EC0BA0F621F731F841F48F45B
:101CA000879577956795B795F7959E3F08F0B3CFE1
:101CB0009395880F08F09927EE0F979587950895CB
:101CC000D4D008F481E008950CD00AC102D140F0CC
:101CD000F9D030F021F45F3F19F0EBC0511134C15D
:101CE000EEC00FD198F39923C9F35523B1F3951B97
:101CF000550BBB27AA2762177307840738F09F5F2D
:101D00005F4F220F331F441FAA1FA9F333D00E2E9B
:101D10003AF0E0E830D091505040E695001CCAF708
:101D200029D0FE2F27D0660F771F881FBB1F2617CD
:101D300037074807AB07B0E809F0BB0B802DBF01A0
:101D4000FF2793585F4F2AF09E3F510568F0B1C0BE
:101D5000FBC05F3FECF3983EDCF386957795679583
:101D6000B795F7959F5FC9F7880F911D9695879551
:101D700097F90895E1E0660F771F881FBB1F621770
:101D800073078407BA0720F0621B730B840BBA0B2E
:101D9000EE1F88F7E0950895BCD088F09F5790F02B
:101DA000B92F9927B751A0F0D1F0660F771F881F80
:101DB000991F1AF0BA95C9F712C0B13081F0C3D09B
:101DC000B1E00895C0C0672F782F8827B85F39F039
:101DD000B93FCCF3869577956795B395D9F73EF4DF
:101DE00090958095709561957F4F8F4F9F4F089587
:101DF000E89409C097FB3EF49095809570956195A5
:101E00007F4F8F4F9F4F9923A9F0F92F96E9BB275A
:101E10009395F695879577956795B795F111F8CFD6
:101E2000FAF4BB0F11F460FF1BC06F5F7F4F8F4F41
:101E30009F4F16C0882311F096E911C0772321F037
:101E40009EE8872F762F05C0662371F096E8862FCF
:101E500070E060E02AF09A95660F771F881FDAF726
:101E6000880F9695879597F90895990F0008550F53
:101E7000AA0BE0E8FEEF16161706E807F907C0F010
:101E800012161306E407F50798F0621B730B840B18
:101E9000950B39F40A2661F0232B242B252B21F4F2
:101EA00008950A2609F4A140A6958FEF811D811D92
:101EB000089597F99F6780E870E060E008959FEFCC
:101EC00080EC089500240A941616170618060906D1
:101ED000089500240A9412161306140605060895A0
:101EE000092E0394000C11F4882352F0BB0F40F428
:101EF000BF2B11F460FF04C06F5F7F4F8F4F9F4F68
:101F0000089557FD9058440F551F59F05F3F71F0E9
:101F10004795880F97FB991F61F09F3F79F0879550
:101F20000895121613061406551FF2CF4695F1DFD9
:101F300008C0161617061806991FF1CF8695710569
:101F4000610508940895E894BB2766277727CB019D
:101F500097F908958ADF08F48FEF08950BD0C0CF6A
:101F6000B1DF28F0B6DF18F0952309F0A2CFA7CF94
:101F70001124EACFC6DFA0F3959FD1F3950F50E06F
:101F8000551F629FF001729FBB27F00DB11D639F2B
:101F9000AA27F00DB11DAA1F649F6627B00DA11DD1
:101FA000661F829F2227B00DA11D621F739FB00D77
:101FB000A11D621F839FA00D611D221F749F3327E7
:101FC000A00D611D231F849F600D211D822F762F80
:101FD0006A2F11249F5750408AF0E1F088234AF07D
:101FE000EE0FFF1FBB1F661F771F881F91505040C9
:101FF000A9F79E3F510570F05CCFA6CF5F3FECF391
:10200000983EDCF3869577956795B795F795E795B4
:102010009F5FC1F7FE2B880F911D9695879597F9C5
:102020000895AA1BBB1B51E107C0AA1FBB1FA6171F
:10203000B70710F0A61BB70B881F991F5A95A9F771
:1020400080959095BC01CD01089597FB092E072638
:102050000AD077FD04D0E5DF06D000201AF4709591
:1020600061957F4F0895F6F7909581959F4F08955C
:10207000A1E21A2EAA1BBB1BFD010DC0AA1FBB1F8C
:10208000EE1FFF1FA217B307E407F50720F0A21BFE
:10209000B30BE40BF50B661F771F881F991F1A946B
:1020A00069F760957095809590959B01AC01BD0195
:1020B000CF010895DC0101C06D9341505040E0F71D
:1020C0000895DC01CB01FC01F999FECF06C0F2BDF9
:1020D000E1BDF89A319600B40D9241505040B8F7E6
:1020E0000895DC01A40FB51F4150504048F0CB01CA
:1020F000840F951F2E910E94821041505040D0F7BE
:102100000895262FF999FECF92BD81BDF89A0197C7
:1021100000B4021639F01FBA20BD0FB6F894FA9A2F
:0A212000F99A0FBE0895F894FFCF5E
:10212A0052455345543F3F3F3F3F004E6F0059656C
:10213A0073003E0054656D70310054656D70320055
:10214A0054656D7033002A00434F4C4400484541A2
:10215A0054004F6E004F6666002F0052656C61791D
:10216A00310052656C6179320052656C61793300D5
:10217A0052656C6179340001000000000000000023
:04218A000000000150
:00000001FF
