:100000000C9434000C9451000C9451000C94510049
:100010000C9451000C9451000C9451000C9451001C
:100020000C9451000C9451000C9451000C947C0CD5
:100030000C9451000C9451000C9451000C945100FC
:100040000C9451000C9451000C9451000C945100EC
:100050000C9451000C9451000C9451000C945100DC
:100060000C9451000C94510011241FBECFEFD4E02A
:10007000DEBFCDBF11E0A0E0B1E0ECE8F0E202C0ED
:1000800005900D92A438B107D9F712E0A4E8B1E0C9
:1000900001C01D92A737B107E1F70E94E90B0C944C
:1000A00044100C94000097B121E030E002C0220F10
:1000B000331F8A95E2F7922B97B988B12095822356
:1000C00088B98FEC97E00197F1F700C0000087B185
:1000D000822387B987E191E00197F1F700C0000022
:1000E00086B18FE896E00197F1F700C0000081E04B
:1000F00090E0089521E030E002C0220F331F8A957E
:10010000E2F7322F309588E090E060FF14C047B1ED
:10011000422B47B948B1432348B94AE14A95F1F720
:1001200000C047B1432347B9EBEDF0E03197F1F759
:1001300000C000000FC047B1422B47B948B143236C
:1001400048B9EFEEF0E03197F1F700C0000047B199
:10015000432347B9019711F06695D7CF08951F93B0
:10016000182F0E9453000097B9F08FE99FE0019784
:10017000F1F700C00000812F6CEC0E947A00812F03
:1001800064E40E947A008FEF93EDA0E381509040E9
:10019000A040E1F700C000001F91089597B121E051
:1001A00030E0082E02C0220F331F0A94E2F7922B90
:1001B00097B998B12095922398B995E09A95F1F75F
:1001C000000097B1922397B9E5E3EA95F1F70000B3
:1001D00026B1E7ECF0E03197F1F700C0000030E025
:1001E00002C0359527958A95E2F7822F8170089590
:1001F0000F931F93CF93DF93082FC8E0D0E010E058
:10020000802F0E94CE008795882787951695182BFA
:100210002197B1F7812FDF91CF911F910F91089511
:10022000FF920F931F93182F0E945300009751F1D4
:10023000812F6CEC0E947A00812F6EEB0E947A0075
:10024000812F0E94F800082F812F0E94F800F82EBD
:10025000812F0E94F800812F0E94F800812F0E94B8
:10026000F800812F0E94F800812F0E94F800812F52
:100270000E94F800812F0E94F8003F2D20E0200FFF
:10028000311D02C020E030E0C9011F910F91FF90A5
:100290000895AF92BF92CF92DF92EF92FF920F93A9
:1002A0001F93CF93DF930E9410019C0197FF0EC014
:1002B000309521953F4F0F2EF0E0EF2EF0E0FF2E0E
:1002C000F0E80F2FFFEB1F2FF02D0AC00F2EF0E0EC
:1002D000EF2EF0E0FF2EF0E80F2FFFE31F2FF02DA1
:1002E000B9016F70707041E752E0649FC001659F73
:1002F000900D749F900D112468EE73E00E94D60F4C
:10030000EB0141E0843F94070CF0219684E03695A0
:1003100027958A95E1F72F773070B90180E090E05A
:100320000E94AD0E5B016C01BE01882777FD8095B0
:10033000982F0E94AF0E20E030E040E251E40E948E
:10034000190E9B01AC01C601B5010E94B10DA801B7
:1003500097010E945F0FDF91CF911F910F91FF9046
:10036000EF90DF90CF90BF90AF9008955E989BB1D3
:10037000907F9BB92BB1982F92959F70922B9BB930
:100380005D9AEFE9FFE03197F1F700C000005D985A
:10039000EFEBFDE53197F1F700C000009BB1907FD6
:1003A0009BB99BB18F70892B8BB95D9A8FE99FE0C8
:1003B0000197F1F700C000005D9808955F9A0E94D0
:1003C000B60108955F980E94B6018FEB9DE50197F5
:1003D000F1F700C000000895803118F0805190ECD2
:1003E00001C090E8890F0E94E201089581E00E9417
:1003F000E20108958FEF8AB91BB88FEF96E7A1E06D
:1004000081509040A040E1F700C000005F985E98E6
:100410008BB1807F8BB98BB183608BB9AFE1BEE4C8
:100420001197F1F700C000008BB1807F8BB98BB1C1
:1004300083608BB987EE93E00197F1F700C000006D
:100440008BB1807F8BB98BB183608BB9AFE1BEE498
:100450001197F1F700C000008BB1807F8BB9599ADA
:100460005D9A8FEB9DE50197F1F700C000005D9864
:1004700088E20E94E20188E00E94E20181E00E949D
:10048000E20186E00E94E2018CE00E94E201089510
:10049000EF92FF92CF93DF93E82EE7017E01F92ED2
:1004A000E70102C00E94DE0189918823D9F7DF911C
:1004B000CF91FF90EF9008958FE891E060E270E0B7
:1004C00040E250E00E940B10109284010895CF93F7
:1004D000DF9380E00E94EC01CFE8D1E089910E9497
:1004E000DE0181E0CF39D807C9F780E10E94EC0135
:1004F00089910E94DE0181E0CF3AD807C9F7DF91E8
:10050000CF910895282F392FD9010AC090918401E5
:10051000E92FF0E0E157FE4F80839F5F90938401C5
:100520008D91882399F708958093840108950F93FE
:100530001F93DF93CF9300D000D000D0CDB7DEB7AC
:10054000009761F480918401E82FF0E0E157FE4FBD
:1005500090E390838F5F8093840136C097FF0EC035
:1005600020918401E22FF0E0E157FE4F3DE230831D
:100570002F5F20938401909581959F4FFE013196C6
:1005800020E030E00AE010E0B8010E94D60F81932D
:100590002F5F3F4FCB010097B9F760918401CE01E7
:1005A0000196FC01E20FF31F462F08C0A42FB0E014
:1005B000A157BE4F5291505D5C934F5FE817F9070A
:1005C000A9F7260F2093840126960FB6F894DEBF74
:1005D0000FBECDBFCF91DF911F910F910895EF9284
:1005E000FF920F931F937B018C0120E030E0A90163
:1005F0000E94150E9091840187FF0EC0E92FF0E054
:10060000E157FE4F8DE280839F5F9093840117FB3B
:10061000109517F9109509C0E92FF0E0E157FE4F4A
:100620008BE280839F5F90938401C801B7010E9491
:10063000810EDC01CB010E94970280918401E82F9A
:10064000F0E0E157FE4F9EE290838F5F809384013C
:10065000C801B70120E030E040E251E40E945F0FA2
:100660000E94810ECB016AE070E00E94C20F0E94DE
:1006700097021F910F91FF90EF900895833011F42E
:100680008BE0089584E00895833011F482E00895AA
:1006900083E00895FC01728761870895FC016083FF
:1006A00011821282138216820895CF93DF93EC0198
:1006B0000E945C0281E00E94940280E091E00E942E
:1006C000820281E10E9494028BE091E00E9482020A
:1006D00089E10E9494028EE091E00E948202898169
:1006E000882319F0813031F402C080E101C088E133
:1006F0000E94940282E191E00E9482020E946702BD
:10070000DF91CF910895CF93DF93EC010E945C02BB
:1007100081E00E94940284E191E00E9482028A8139
:10072000833071F089E00E9494028AE191E00E9496
:10073000820281E10E94940280E291E00E948202A2
:100740008981813039F0813018F0823041F404C061
:1007500080E003C088E001C080E10E94940282E151
:1007600091E00E9482022A8189859A85233049F48A
:10077000865A9F4FFC018081882309F44EC086E091
:1007800046C0E22FF0E09F01220F331FA5E0EE0FDD
:10079000FF1FAA95E1F7E21BF30BE80FF91F818514
:1007A000882339F086E00E94940286E291E00E945C
:1007B0008202E985FA858A8190E09C01220F331F2D
:1007C00065E0880F991F6A95E1F7821B930BE80F8C
:1007D000F91F8389882339F08EE00E94940286E213
:1007E00091E00E948202E985FA858A8190E09C016D
:1007F000220F331F45E0880F991F4A95E1F7821BAE
:10080000930BE80FF91F858D882339F086E10E944C
:10081000940286E291E00E9482020E946702DF91C8
:10082000CF910895CF93DF93EC012B818AE0289F2D
:10083000900111249A818EE1989FC0011124280F04
:10084000391F89859A85820F931F98878F8381E04E
:100850009E81911180E08E830E945C028C818430A5
:1008600008F04CC08E81882319F48D81813059F0B5
:1008700081E00E949402EF81F8856081718182811C
:1008800093810E94EF028E81882319F48D8182303A
:1008900059F089E00E949402EF81F88564817581A6
:1008A000868197810E94EF028E81882319F48D81C1
:1008B000833079F081E10E949402EF81F885808590
:1008C000882319F088E291E002C08DE291E00E9455
:1008D00082028E81882319F48D81843079F089E138
:1008E0000E949402EF81F8858185882319F082E3C4
:1008F00091E002C085E391E00E9482028C81843005
:10090000D9F0853048F48130C9F08130A8F08230C8
:10091000B9F08330C1F40EC0873071F0883028F40C
:10092000853061F0863079F40BC0883039F0893039
:1009300051F406C088E105C080E003C088E001C032
:1009400080E10E94940282E191E00E9482020E9472
:100950006702DF91CF910895EF92FF920F931F935B
:10096000CF93DF93EC01E984FA840B8110E081E0FE
:100970009E81911180E08E830E945C028C81843084
:1009800008F080C08E81882319F48D818130D1F0E8
:1009900081E00E94940287E190E0089FF001099FA6
:1009A000F00D189FF00D1124EE0DFF1DE65AFF4FBC
:1009B0008081882319F082E391E002C085E391E011
:1009C0000E9482028E81882319F48D818230D1F0B9
:1009D00089E00E94940289E391E00E94820287E10B
:1009E00090E0089FF001099FF00D189FF00D112471
:1009F000EE0DFF1DE55AFF4F608171818281938169
:100A00000E94EF028E81882319F48D818330C1F01A
:100A100081E10E9494028CE391E00E94820287E1CE
:100A200090E0089FF001099FF00D189FF00D112430
:100A3000EE0DFF1DE15AFF4F808190E00E9497026A
:100A40008E81882321F48D81843009F40FC189E1DE
:100A50000E94940280E491E00E94820287E190E08B
:100A6000089FF001099FF00D189FF00D1124EE0D65
:100A7000FF1DEC59FF4F60817181828193810E943B
:100A8000EF02F4C0883008F084C08E81882319F406
:100A90008D818530D1F081E00E94940283E491E061
:100AA0000E94820287E190E0089FF001099FF00D0B
:100AB000189FF00D1124EE0DFF1DE05AFF4F6081CD
:100AC0007181828193810E94EF028E81882319F4C3
:100AD0008D818630D1F089E00E94940286E491E015
:100AE0000E94820287E190E0089FF001099FF00DCB
:100AF000189FF00D1124EE0DFF1DE859FF4F608186
:100B00007181828193810E94EF028E81882319F482
:100B10008D818730C1F081E10E94940289E491E0E7
:100B20000E94820287E190E0089FF001099FF00D8A
:100B3000189FF00D1124EE0DFF1DE459FF4F808129
:100B400090E00E9497028E81882321F48D81883065
:100B500009F48CC089E10E9494028CE491E00E9427
:100B6000820287E190E0089FF001099FF00D189F35
:100B7000F00D1124EE0DFF1DE359FF4F808190E031
:100B80000E9497028FE491E00E94820282E390E04B
:100B90006BC08C3008F06AC08E81882319F48D8177
:100BA000893001F181E00E94940281E591E00E9488
:100BB000820287E190E0089FF001099FF00D189FE5
:100BC000F00D1124EE0DFF1DE259FF4F808190E0E2
:100BD0000E9497028FE491E00E94820282E390E0FB
:100BE0000E9497028E81882319F48D818A3001F149
:100BF00089E00E94940284E591E00E94820287E1EC
:100C000090E0089FF001099FF00D189FF00D11244E
:100C1000EE0DFF1DE159FF4F808190E00E94970289
:100C20008FE491E00E94820282E390E00E949702AA
:100C30008E81882319F48D818B30C1F081E10E946F
:100C4000940287E591E00E94820287E190E0089F8C
:100C5000F001099FF00D189FF00D1124EE0DFF1DFE
:100C6000E059FF4F808190E00E9497028C8185308F
:100C700011F1863070F4823001F1833028F488233A
:100C8000C1F08130E9F417C0833089F08430C1F4B9
:100C900010C0883071F0893028F4863071F08730C8
:100CA00079F405C0893039F08A3051F406C088E102
:100CB00005C080E003C088E001C080E10E9494028A
:100CC00082E191E00E9482020E946702DF91CF914F
:100CD0001F910F91FF90EF900895CF93DF93EC0158
:100CE0000E945C0281E00E9494028AE591E00E94E9
:100CF000820289E00E94940281E691E00E948202D1
:100D000081E10E94940288E691E00E94820289E1DA
:100D10000E9494028FE691E00E94820289818130D4
:100D200049F0813028F0823039F0833051F406C028
:100D300080E005C088E003C080E101C088E10E9436
:100D4000940282E191E00E9482020E946702DF9198
:100D5000CF910895FC012081213039F0213090F0AD
:100D6000223031F0233099F410C00E94830308959B
:100D7000FC012281233019F40E94AC0408950E94E2
:100D8000120408950E946D0608950E945503089567
:100D9000CF93DF93EC018881813039F08130B8F056
:100DA0008230D9F0833071F508C0898192E0988350
:100DB00019828B831C821D8225C089859A850E9499
:100DC000FC0C188219821A821B821E821BC0898128
:100DD00091E098838A83198215C08D81882321F43C
:100DE0008C818F5F8D830EC01D826A8189859A8573
:100DF000633021F04B810E94D80C04C063E04B812A
:100E00000E94EC0CDF91CF910895AF92BF92CF92E8
:100E1000DF92EF92FF920F931F93CF93DF93EC013A
:100E2000062F442311F411E001C012E38D818130BB
:100E300071F5AF80B884602F772767FD7095872F95
:100E4000972F0E94AF0E2DEC3CEC4CEC5DE30E9422
:100E50005F0F6B017C01612F70E0882777FD809523
:100E6000982F0E94AF0E9B01AC01C701B6010E94F2
:100E70005F0F9B01AC01F5016081718182819381DB
:100E80000E94B10DF50160837183828393838D810C
:100E9000823071F5AF80B884602F772767FD709539
:100EA000872F972F0E94AF0E2DEC3CEC4CEC5DE3AE
:100EB0000E945F0F6B017C01612F70E0882777FD36
:100EC0008095982F0E94AF0E9B01AC01C701B6011F
:100ED0000E945F0F9B01AC01F501648175818681E1
:100EE00097810E94B10DF501648375838683978392
:100EF0008D81833039F4EF81F88581E090859111FF
:100F000080E080878D81843039F4EF81F88581E03D
:100F10009185911180E08187DF91CF911F910F9191
:100F2000FF90EF90DF90CF90BF90AF900895CF9259
:100F3000DF92EF92FF921F93CF93DF93FC01442344
:100F400019F451E011E002C05AE012E38185928564
:100F5000238130E04581463009F4A4C0473090F445
:100F6000433009F443C0443030F44130F1F04230B2
:100F700009F006C12DC0443009F44FC0453009F0D6
:100F8000FFC082C0493009F4C3C04A3038F447304A
:100F900009F496C0483009F0F3C0A9C04A3009F4FA
:100FA000C8C04B3009F0ECC0D5C047E150E0249FE9
:100FB000F001259FF00D349FF00D1124E80FF91F6B
:100FC000E65AFF4F81E09081911180E08083D8C084
:100FD00047E150E0249FE001259FD00D349FD00DC4
:100FE0001124C80FD91FC55ADF4F24C0569F602D4A
:100FF000112447E150E0249FF001259FF00D349F1C
:10100000F00D1124E80FF91FE15AFF4F8081680F9E
:1010100060836D3308F4B4C0B2C047E150E0249F50
:10102000E001259FD00D349FD00D1124C80FD91F8A
:10103000CC59DF4F772767FD7095872F972F0E9438
:10104000AF0E2DEC3CEC4CEC5DE30E945F0F6B01AE
:101050007C01612F70E0882777FD8095982F0E9492
:10106000AF0E9B01AC01C701B6010E945F0F9B014F
:10107000AC01688179818A819B810E94B10D68836E
:1010800079838A839B837CC047E150E0249FE00101
:10109000259FD00D349FD00D1124C80FD91FC05AE1
:1010A000DF4FC8CF47E150E0249FE001259FD00DDE
:1010B000349FD00D1124C80FD91FC859DF4FBACFA4
:1010C000569F602D112447E150E0249FF001259F99
:1010D000F00D349FF00D1124E80FF91FE459FF4F74
:1010E0008081680F60836F3108F44AC048C0569F02
:1010F000602D112447E150E0249FF001259FF00D61
:10110000349FF00D1124E80FF91FE359FF4F32C04F
:10111000569F602D112447E150E0249FF001259F48
:10112000F00D349FF00D1124E80FF91FE259FF4F25
:1011300021C0569F602D112447E150E0249FF0010B
:10114000259FF00D349FF00D1124E80FF91FE15990
:10115000FF4F10C0569F602D112447E150E0249F9F
:10116000F001259FF00D349FF00D1124E80FF91FB9
:10117000E059FF4F8081680F6083633308F010826D
:10118000DF91CF911F91FF90EF90DF90CF90089566
:10119000FC018081813059F0813018F0823089F56E
:1011A00013C081818F5F8183843059F50BC08181A9
:1011B0008F5F81839281933011F492E001C093E0BC
:1011C0008917F9F4118208958581882361F4848157
:1011D0008F5F84839281933011F49BE001C094E08F
:1011E000891709F414828281833031F0CF0161E0E4
:1011F00040E00E9405070895CF0161E040E00E94B1
:1012000097070895FC018081813081F0813028F0BA
:101210008230D1F08330B1F505C08181882381F41B
:1012200084E00DC08181882339F00AC08181882340
:1012300039F48281833011F482E001C083E081833C
:1012400081818150818308958581882369F4848117
:10125000882339F48281833011F48BE001C084E06B
:1012600084838481815084838281833031F0CF01F3
:101270006FEF40E00E9405070895CF016FEF40E057
:101280000E9497070895FC018081813019F0823017
:10129000D1F403C08281108206C08581882329F49D
:1012A000838191E09083818308958281833031F03E
:1012B000CF016FEF41E00E9405070895CF016FEF66
:1012C00041E00E9497070895FC018081823041F03F
:1012D0008430A1F483E08083118214821582089502
:1012E0008281833031F0CF0161E041E00E94050747
:1012F0000895CF0161E041E00E9497070895CF93E0
:10130000DF93EC010E94F60184E088831982DF916B
:10131000CF910895FC01108261830895FC0181E062
:101320008083628341830895FC0182E0808311827F
:1013300062834383148215820895FC0183E08083D5
:1013400011821482158208950895682FF8948FEA07
:1013500091E00E944E0381E08093BA01289A299A75
:101360002A9A2B9A10928501109286011092870179
:101370001092880108951092BA0178940895EF921E
:10138000FF920F931F93DF93CF9300D0CDB7DEB7BB
:10139000E0908501F090860100918701109188010D
:1013A000C801B70124EF31E040E050E00E94E90FAE
:1013B000611571058105910571F00894E11CF11C1E
:1013C000011D111DE0928501F092860100938701B5
:1013D0001093880181C085E00E94AF0084E00E94E4
:1013E000AF0083E00E94AF0085E00E944901609356
:1013F000BF017093C0018093C1019093C20184E04A
:101400000E9449016093C3017093C4018093C50198
:101410009093C60183E00E9449016093C7017093D5
:10142000C8018093C9019093CA010E945C0280E0C8
:101430000E9494026091BF017091C0018091C1012E
:101440009091C2010E94EF0288E00E949402609194
:10145000C3017091C4018091C5019091C6010E94A1
:10146000EF0280E10E9494026091C7017091C8016F
:101470008091C9019091CA010E94EF0288E10E9407
:10148000940280918B01992787FD90950E94970285
:101490008FE10E9494021A820E94860C882311F028
:1014A0008BE201C08DE28983CE0101960E94820207
:1014B0000E94670281E090E0A0E0B0E080938501A7
:1014C00090938601A0938701B09388018FE891E003
:1014D0000197F1F700C000000F900F90CF91DF91BE
:1014E0001F910F91FF90EF9008958FEA91E00E9475
:1014F00002091092850110928601109287011092C4
:10150000880108958FEA91E00E94C8081092850131
:1015100010928601109287011092880108958FEA37
:1015200091E00E94C80610928501109286011092E7
:1015300087011092880108958FEA91E00E94430983
:1015400010928501109286011092870110928801F5
:1015500008958091BA01882321F483E00E94A509AF
:1015600004C08FEA91E00E946409109285011092F4
:101570008601109287011092880108958091BA0126
:10158000882319F40E94A50902C00E94BB09109289
:1015900085011092860110928701109288010895AA
:1015A0001092BB011092BC011092BD011092BE01BD
:1015B0001092CB011092CC011092CD011092CE016D
:1015C0001092CF011092D0011092D1011092D2014D
:1015D00038983A983998409A429A419A08953099A1
:1015E00015C08091BB019091BC01A091BD01B0914B
:1015F000BE01B7FD0BC00196A11DB11D8093BB01BB
:101600009093BC01A093BD01B093BE01329915C067
:101610008091CB019091CC01A091CD01B091CE01F0
:10162000B7FD0BC00196A11DB11D8093CB01909316
:10163000CC01A093CD01B093CE01319915C080911A
:10164000CF019091D001A091D101B091D201B7FD0D
:101650000BC00196A11DB11D8093CF019093D001C5
:10166000A093D101B093D2018091BB019091BC01B4
:10167000A091BD01B091BE01893E23E0920720E018
:10168000A20720E0B2076CF00E949C0A8FEF9FEF48
:10169000DC018093BB019093BC01A093BD01B0938A
:1016A000BE018091CB019091CC01A091CD01B09170
:1016B000CE01893E23E0920720E0A20720E0B20796
:1016C0006CF00E94A90A8FEF9FEFDC018093CB01A1
:1016D0009093CC01A093CD01B093CE018091CF0126
:1016E0009091D001A091D101B091D201893E23E027
:1016F000920720E0A20720E0B2076CF00E94BE0A29
:101700008FEF9FEFDC018093CF019093D001A093E6
:10171000D101B093D201309B1DC08091BB0190914B
:10172000BC01A091BD01B091BE010197A109B10911
:10173000873E23E0920720E0A20720E0B20710F4E2
:101740000E94750A1092BB011092BC011092BD015B
:101750001092BE01329B1DC08091CB019091CC01B3
:10176000A091CD01B091CE010197A109B109873EA9
:1017700023E0920720E0A20720E0B20710F40E94C5
:10178000820A1092CB011092CC011092CD011092DE
:10179000CE01319B1DC08091CF019091D001A091CD
:1017A000D101B091D2010197A109B109873E23E08F
:1017B000920720E0A20720E0B20710F40E948F0AEF
:1017C0001092CF011092D0011092D1011092D2014B
:1017D00008956F927F928F929F92AF92BF92CF9215
:1017E000DF92EF92FF920F931F931092BA010E9423
:1017F000860C809372020E94FA010E94D00A83ED47
:1018000091E00E94AE0C0E945A0C8FEA91E063EDC9
:1018100071E00E944A039CE2A92E91E0B92EC12CEE
:10182000D12C81E0682E712C812C912C0E94860C89
:10183000809372020E94EF0A8FE99FE00197F1F70F
:1018400000C000008091BA01882319F0813071F73F
:1018500003C00E94BF09EACFE0908501F0908601A5
:101860000091870110918801C801B701A601950177
:101870000E94E90F611571058105910571F00894C9
:10188000E11CF11C011D111DE0928501F092860101
:101890000093870110938801C9CF8FEA91E00E94DD
:1018A000AA066092850170928601809287019092CB
:1018B0008801BCCF2598209A219A229A239A289AA7
:1018C000299A2A9A2B9AF89410928000E1E8F0E085
:1018D00010828DE192E0909389008093880080814E
:1018E00088608083AFE6B0E08C9182608C938081C9
:1018F00085608083789408951F920F920FB60F929F
:1019000011240F900FBE0F901F90189581E01D9B22
:1019100080E008952AE0429FA00111242EE1629FF9
:10192000B0011124460F571FBA0160507040840F58
:10193000951F4AE050E00E941210089527E1429F4F
:10194000A0011124865A9F4FBA01665A7F4F840F17
:10195000951F47E150E00E94121008951F93CF9306
:10196000DF93EC0110E0CE01612F40E00E948A0C71
:10197000CE01612F41E00E948A0CCE01612F42E02E
:101980000E948A0C1F5F143071F7CE0163E040E0C3
:101990000E949E0CCE0163E041E00E949E0CCE01AD
:1019A00063E042E00E949E0CDF91CF911F91089569
:1019B0002AE0429FA00111242EE1629FB001112470
:1019C000460F571FBA0160507040840F951F4AE0C0
:1019D00050E00E942210089527E1429FA0011124A7
:1019E000865A9F4FBA01665A7F4F840F951F47E171
:1019F00050E00E94221008952F923F924F925F92E2
:101A00006F927F928F929F92AF92BF92CF92DF920E
:101A1000EF92FF920F931F93DF93CF930F92CDB767
:101A2000DEB77C0100E010E00F2EF0E0AF2EF0E01A
:101A3000BF2EF4EACF2EF1E4DF2EF02D0F2EF0E0D2
:101A40006F2EF0E07F2EF0E88F2EFFE39F2EF02D1B
:101A5000442443941EC0F101A082B182C282D38289
:101A6000648275828682978240861186C701652DC1
:101A7000422F29830E94D80C29812F5F8AE090E0B1
:101A8000280E391E233039F70F5F1F4F0330110521
:101A900081F0502EC801880F991F180135E0220CE3
:101AA000331C3A95E1F7281A390A2E0C3F1C20E026
:101AB000D2CF2AE5222E312C2E0C3F1C10E00F2E07
:101AC000F0E0AF2EF0E0BF2EF0EACF2EF1E4DF2EF3
:101AD000F02D9EE1592E0F2EF0E06F2EF0E07F2EBC
:101AE000F0E28F2EF1E49F2EF02D85E0482E01E0EC
:101AF000F1011082A182B282C382D48255826286B1
:101B00007386848695866682778280869186A6868D
:101B1000B786C08AD18A428A038B048B058B068BD9
:101B2000C70163E0412F0E94EC0C1F5F87E190E04A
:101B3000280E391E1330E1F60F90CF91DF911F91DF
:101B40000F91FF90EF90DF90CF90BF90AF909F905C
:101B50008F907F906F905F904F903F902F9008955F
:101B60005058BB27AA270ED070C161D130F066D182
:101B700020F031F49F3F11F41EF456C10EF4E095AD
:101B8000E7FB4CC1E92F72D180F3BA1762077307E4
:101B90008407950718F071F49EF58AC10EF4E0955C
:101BA0000B2EBA2FA02D0B01B90190010C01CA0117
:101BB000A0011124FF27591B99F0593F50F4503EC2
:101BC00068F11A16F040A22F232F342F4427585FB4
:101BD000F3CF469537952795A795F0405395C9F7CC
:101BE0007EF41F16BA0B620B730B840BBAF0915084
:101BF000A1F0FF0FBB1F661F771F881FC2F70EC023
:101C0000BA0F621F731F841F48F4879577956795F5
:101C1000B795F7959E3F08F0B3CF9395880F08F0DE
:101C20009927EE0F979587950895D4D008F481E011
:101C300008950CD00AC102D140F0F9D030F021F45F
:101C40005F3F19F0EBC0511134C1EEC00FD198F3D2
:101C50009923C9F35523B1F3951B550BBB27AA272D
:101C600062177307840738F09F5F5F4F220F331F9F
:101C7000441FAA1FA9F333D00E2E3AF0E0E830D06B
:101C800091505040E695001CCAF729D0FE2F27D06E
:101C9000660F771F881FBB1F261737074807AB073C
:101CA000B0E809F0BB0B802DBF01FF2793585F4FB1
:101CB0002AF09E3F510568F0B1C0FBC05F3FECF3D6
:101CC000983EDCF3869577956795B795F7959F5F76
:101CD000C9F7880F911D9695879597F90895E1E0CA
:101CE000660F771F881FBB1F621773078407BA0729
:101CF00020F0621B730B840BBA0BEE1F88F7E09584
:101D00000895BCD088F09F5790F0B92F9927B7510C
:101D1000A0F0D1F0660F771F881F991F1AF0BA95AF
:101D2000C9F712C0B13081F0C3D0B1E00895C0C08E
:101D3000672F782F8827B85F39F0B93FCCF38695A5
:101D400077956795B395D9F73EF490958095709502
:101D500061957F4F8F4F9F4F0895E89409C097FB7F
:101D60003EF490958095709561957F4F8F4F9F4F72
:101D70009923A9F0F92F96E9BB279395F6958795B6
:101D800077956795B795F111F8CFFAF4BB0F11F479
:101D900060FF1BC06F5F7F4F8F4F9F4F16C0882320
:101DA00011F096E911C0772321F09EE8872F762F56
:101DB00005C0662371F096E8862F70E060E02AF097
:101DC0009A95660F771F881FDAF7880F9695879583
:101DD00097F90895990F0008550FAA0BE0E8FEEF58
:101DE00016161706E807F907C0F012161306E407DF
:101DF000F50798F0621B730B840B950B39F40A26D8
:101E000061F0232B242B252B21F408950A2609F4B5
:101E1000A140A6958FEF811D811D089597F99F67B9
:101E200080E870E060E008959FEF80EC0895002462
:101E30000A941616170618060906089500240A942F
:101E400012161306140605060895092E0394000CB5
:101E500011F4882352F0BB0F40F4BF2B11F460FF44
:101E600004C06F5F7F4F8F4F9F4F089557FD90586D
:101E7000440F551F59F05F3F71F04795880F97FB4E
:101E8000991F61F09F3F79F0879508951216130608
:101E90001406551FF2CF4695F1DF08C01616170637
:101EA0001806991FF1CF869571056105089408956C
:101EB000E894BB2766277727CB0197F908950BD0C5
:101EC000C4CFB5DF28F0BADF18F0952309F0A6CF0C
:101ED000ABCF1124EECFCADFA0F3959FD1F3950FBE
:101EE00050E0551F629FF001729FBB27F00DB11D9E
:101EF000639FAA27F00DB11DAA1F649F6627B00D2E
:101F0000A11D661F829F2227B00DA11D621F739F16
:101F1000B00DA11D621F839FA00D611D221F749F24
:101F20003327A00D611D231F849F600D211D822F6B
:101F3000762F6A2F11249F5750408AF0E1F08823B2
:101F40004AF0EE0FFF1FBB1F661F771F881F9150BF
:101F50005040A9F79E3F510570F060CFAACF5F3F78
:101F6000ECF3983EDCF3869577956795B795F795F2
:101F7000E7959F5FC1F7FE2B880F911D969587957A
:101F800097F90895AA1BBB1B51E107C0AA1FBB1FED
:101F9000A617B70710F0A61BB70B881F991F5A95F5
:101FA000A9F780959095BC01CD01089597FB092E66
:101FB00007260AD077FD04D0E5DF06D000201AF40A
:101FC000709561957F4F0895F6F7909581959F4F95
:101FD0000895A1E21A2EAA1BBB1BFD010DC0AA1F6A
:101FE000BB1FEE1FFF1FA217B307E407F50720F082
:101FF000A21BB30BE40BF50B661F771F881F991FFD
:102000001A9469F760957095809590959B01AC0145
:10201000BD01CF010895DC0101C06D9341505040D6
:10202000E0F70895DC01CB01FC01F999FECF06C071
:10203000F2BDE1BDF89A319600B40D924150504086
:10204000B8F70895DC01A40FB51F4150504048F087
:10205000CB01840F951F2E910E94331041505040A8
:10206000D0F70895262FF999FECF92BD81BDF89A39
:10207000019700B4021639F01FBA20BD0FB6F894CC
:0C208000FA9AF99A0FBE0895F894FFCF69
:10208C0052455345543F3F3F3F3F004E6F0059650B
:10209C0073003E0054656D70310054656D703200F4
:1020AC0054656D7033002A00434F4C440048454141
:1020BC0054004F6E004F666600547A007433200053
:1020CC005431005432005433007470005367002FA5
:1020DC000053630053730053640052656C61793193
:1020EC000052656C6179320052656C617933005233
:1020FC00656C6179340001000000000000000000F4
:04210C0000000100CE
:00000001FF
