:100000000C9434000C9451000C9451000C94510049
:100010000C9451000C9451000C9451000C9451001C
:100020000C9451000C9451000C9451000C94BD0C94
:100030000C9451000C9451000C9451000C945100FC
:100040000C9451000C9451000C9451000C945100EC
:100050000C9451000C9451000C9451000C945100DC
:100060000C9451000C94510011241FBECFEFD4E02A
:10007000DEBFCDBF11E0A0E0B1E0E2E4F7E202C0F4
:1000800005900D92A637B107D9F712E0A6E7B1E0C7
:1000900001C01D92A638B107E1F70E94350C0C94FF
:1000A0009F130C94000097B121E030E002C0220FB2
:1000B000331F8A95E2F7922B97B988B12095822356
:1000C00088B98FEC97E00197F1F700C0000087B185
:1000D000822387B987E191E00197F1F700C0000022
:1000E00086B18FE896E00197F1F700C0000081E04B
:1000F00090E0089521E030E002C0220F331F8A957E
:10010000E2F7322F309588E090E060FF14C047B1ED
:10011000422B47B948B1432348B94AE14A95F1F720
:1001200000C047B1432347B9EBEDF0E03197F1F759
:1001300000C000000FC047B1422B47B948B143236C
:1001400048B9EFEEF0E03197F1F700C0000047B199
:10015000432347B9019711F06695D7CF08951F93B0
:10016000182F0E9453000097B9F08FE99FE0019784
:10017000F1F700C00000812F6CEC0E947A00812F03
:1001800064E40E947A008FEF93EDA0E381509040E9
:10019000A040E1F700C000001F91089597B121E051
:1001A00030E0082E02C0220F331F0A94E2F7922B90
:1001B00097B998B12095922398B995E09A95F1F75F
:1001C000000097B1922397B9E5E3EA95F1F70000B3
:1001D00026B1E7ECF0E03197F1F700C0000030E025
:1001E00002C0359527958A95E2F7822F8170089590
:1001F0000F931F93CF93DF93082FC8E0D0E010E058
:10020000802F0E94CE008795882787951695182BFA
:100210002197B1F7812FDF91CF911F910F91089511
:10022000FF920F931F93182F0E945300009751F1D4
:10023000812F6CEC0E947A00812F6EEB0E947A0075
:10024000812F0E94F800082F812F0E94F800F82EBD
:10025000812F0E94F800812F0E94F800812F0E94B8
:10026000F800812F0E94F800812F0E94F800812F52
:100270000E94F800812F0E94F8003F2D20E0200FFF
:10028000311D02C020E030E0C9011F910F91FF90A5
:100290000895AF92BF92CF92DF92EF92FF920F93A9
:1002A0001F93CF93DF930E9410019C0197FF0EC014
:1002B000309521953F4F0F2EF0E0EF2EF0E0FF2E0E
:1002C000F0E80F2FFFEB1F2FF02D0AC00F2EF0E0EC
:1002D000EF2EF0E0FF2EF0E80F2FFFE31F2FF02DA1
:1002E000B9016F70707041E752E0649FC001659F73
:1002F000900D749F900D112468EE73E00E943113ED
:10030000EB0141E0843F94070CF0219684E03695A0
:1003100027958A95E1F72F773070B90180E090E05A
:100320000E9404125B016C01BE01882777FD809555
:10033000982F0E94061220E030E040E251E40E9433
:1003400070119B01AC01C601B5010E940811A80102
:1003500097010E94BA12DF91CF911F910F91FF90E8
:10036000EF90DF90CF90BF90AF9008955E989BB1D3
:10037000907F9BB92BB1982F92959F70922B9BB930
:100380005D9AEFE9FFE03197F1F700C000005D985A
:10039000EFEBFDE53197F1F700C000009BB1907FD6
:1003A0009BB99BB18F70892B8BB95D9A8FE99FE0C8
:1003B0000197F1F700C000005D9808955F9A0E94D0
:1003C000B60108955F980E94B6018FEB9DE50197F5
:1003D000F1F700C000000895803118F0805198EACC
:1003E00001C090E8890F0E94E201089581E00E9417
:1003F000E20108958FEF8AB91BB88FEF96E7A1E06D
:1004000081509040A040E1F700C000005F985E98E6
:100410008BB1807F8BB98BB183608BB9AFE1BEE4C8
:100420001197F1F700C000008BB1807F8BB98BB1C1
:1004300083608BB987EE93E00197F1F700C000006D
:100440008BB1807F8BB98BB183608BB9AFE1BEE498
:100450001197F1F700C000008BB1807F8BB9599ADA
:100460005D9A8FEB9DE50197F1F700C000005D9864
:1004700088E20E94E20188E00E94E20181E00E949D
:10048000E20186E00E94E2018CE00E94E201089510
:10049000EF92FF92CF93DF93E82EE7017E01F92ED2
:1004A000E70102C00E94DE0189918823D9F7DF911C
:1004B000CF91FF90EF9008958DE791E060E270E0BA
:1004C00040E250E00E946613109276010895CF93A7
:1004D000DF9380E00E94EC01CDE7D1E089910E949A
:1004E000DE0181E0CD38D807C9F780E10E94EC0138
:1004F00089910E94DE0181E0CD39D807C9F7DF91EB
:10050000CF910895282F392FD9010AC090917601F3
:10051000E92FF0E0E358FE4F80839F5F90937601D0
:100520008D91882399F708958093760108950F930C
:100530001F93DF93CF9300D000D000D0CDB7DEB7AC
:10054000009761F480917601E82FF0E0E358FE4FC8
:1005500090E390838F5F8093760136C097FF0EC043
:1005600020917601E22FF0E0E358FE4F3DE2308328
:100570002F5F20937601909581959F4FFE013196D4
:1005800020E030E00AE010E0B8010E9431138193CE
:100590002F5F3F4FCB010097B9F760917601CE01F5
:1005A0000196FC01E20FF31F462F08C0A42FB0E014
:1005B000A358BE4F5291505D5C934F5FE817F90707
:1005C000A9F7260F2093760126960FB6F894DEBF82
:1005D0000FBECDBFCF91DF911F910F910895EF9284
:1005E000FF920F931F937B018C0120E030E0A90163
:1005F0000E946C119091760187FF0EC0E92FF0E008
:10060000E358FE4F8DE280839F5F9093760117FB46
:10061000109517F9109509C0E92FF0E0E358FE4F47
:100620008BE280839F5F90937601C801B7010E949F
:10063000D811DC01CB010E94970280917601E82F4E
:10064000F0E0E358FE4F9EE290838F5F8093760147
:10065000C801B70120E030E040E251E40E94BA1244
:100660000E94D811CB016AE070E00E941D130E9425
:1006700097021F910F91FF90EF900895833011F42E
:100680008BE0089584E00895833011F482E00895AA
:1006900083E00895FC01728761870895FC016083FF
:1006A00011821282138216820895CF93DF93EC0198
:1006B0000E945C0281E00E94940280E091E00E942E
:1006C000820281E10E9494028BE091E00E9482020A
:1006D00089E10E9494028EE091E00E948202898169
:1006E000882319F0813031F402C080E101C088E133
:1006F0000E94940282E191E00E9482020E946702BD
:10070000DF91CF910895CF93DF93EC010E945C02BB
:1007100081E00E94940284E191E00E9482028A8139
:10072000833071F089E00E9494028AE191E00E9496
:10073000820281E10E94940280E291E00E948202A2
:100740008981813039F0813018F0823041F404C061
:1007500080E003C088E001C080E10E94940282E151
:1007600091E00E9482022A8189859A85233049F48A
:10077000865A9F4FFC018081882309F44EC086E091
:1007800046C0E22FF0E09F01220F331FA5E0EE0FDD
:10079000FF1FAA95E1F7E21BF30BE80FF91F818514
:1007A000882339F086E00E94940286E291E00E945C
:1007B0008202E985FA858A8190E09C01220F331F2D
:1007C00065E0880F991F6A95E1F7821B930BE80F8C
:1007D000F91F8389882339F08EE00E94940286E213
:1007E00091E00E948202E985FA858A8190E09C016D
:1007F000220F331F45E0880F991F4A95E1F7821BAE
:10080000930BE80FF91F858D882339F086E10E944C
:10081000940286E291E00E9482020E946702DF91C8
:10082000CF910895CF93DF93EC012B818AE0289F2D
:10083000900111249A818EE1989FC0011124280F04
:10084000391F89859A85820F931F98878F8381E04E
:100850009E81911180E08E830E945C028C818430A5
:1008600008F04CC08E81882319F48D81813059F0B5
:1008700081E00E949402EF81F8856081718182811C
:1008800093810E94EF028E81882319F48D8182303A
:1008900059F089E00E949402EF81F88564817581A6
:1008A000868197810E94EF028E81882319F48D81C1
:1008B000833079F081E10E949402EF81F885808590
:1008C000882319F088E291E002C08DE291E00E9455
:1008D00082028E81882319F48D81843079F089E138
:1008E0000E949402EF81F8858185882319F082E3C4
:1008F00091E002C085E391E00E9482028C81843005
:10090000D9F0853048F48130C9F08130A8F08230C8
:10091000B9F08330C1F40EC0873071F0883028F40C
:10092000853061F0863079F40BC0883039F0893039
:1009300051F406C088E105C080E003C088E001C032
:1009400080E10E94940282E191E00E9482020E9472
:100950006702DF91CF910895EF92FF920F931F935B
:10096000CF93DF93EC01E984FA840B8110E081E0FE
:100970009E81911180E08E830E945C028C81843084
:1009800008F080C08E81882319F48D818130D1F0E8
:1009900081E00E94940287E190E0089FF001099FA6
:1009A000F00D189FF00D1124EE0DFF1DE65AFF4FBC
:1009B0008081882319F082E391E002C085E391E011
:1009C0000E9482028E81882319F48D818230D1F0B9
:1009D00089E00E94940289E391E00E94820287E10B
:1009E00090E0089FF001099FF00D189FF00D112471
:1009F000EE0DFF1DE55AFF4F608171818281938169
:100A00000E94EF028E81882319F48D818330C1F01A
:100A100081E10E9494028CE391E00E94820287E1CE
:100A200090E0089FF001099FF00D189FF00D112430
:100A3000EE0DFF1DE15AFF4F808190E00E9497026A
:100A40008E81882321F48D81843009F40FC189E1DE
:100A50000E94940280E491E00E94820287E190E08B
:100A6000089FF001099FF00D189FF00D1124EE0D65
:100A7000FF1DEC59FF4F60817181828193810E943B
:100A8000EF02F4C0883008F084C08E81882319F406
:100A90008D818530D1F081E00E94940283E491E061
:100AA0000E94820287E190E0089FF001099FF00D0B
:100AB000189FF00D1124EE0DFF1DE05AFF4F6081CD
:100AC0007181828193810E94EF028E81882319F4C3
:100AD0008D818630D1F089E00E94940286E491E015
:100AE0000E94820287E190E0089FF001099FF00DCB
:100AF000189FF00D1124EE0DFF1DE859FF4F608186
:100B00007181828193810E94EF028E81882319F482
:100B10008D818730C1F081E10E94940289E491E0E7
:100B20000E94820287E190E0089FF001099FF00D8A
:100B3000189FF00D1124EE0DFF1DE459FF4F808129
:100B400090E00E9497028E81882321F48D81883065
:100B500009F48CC089E10E9494028CE491E00E9427
:100B6000820287E190E0089FF001099FF00D189F35
:100B7000F00D1124EE0DFF1DE359FF4F808190E031
:100B80000E9497028FE491E00E94820282E390E04B
:100B90006BC08C3008F06AC08E81882319F48D8177
:100BA000893001F181E00E94940281E591E00E9488
:100BB000820287E190E0089FF001099FF00D189FE5
:100BC000F00D1124EE0DFF1DE259FF4F808190E0E2
:100BD0000E9497028FE491E00E94820282E390E0FB
:100BE0000E9497028E81882319F48D818A3001F149
:100BF00089E00E94940284E591E00E94820287E1EC
:100C000090E0089FF001099FF00D189FF00D11244E
:100C1000EE0DFF1DE159FF4F808190E00E94970289
:100C20008FE491E00E94820282E390E00E949702AA
:100C30008E81882319F48D818B30C1F081E10E946F
:100C4000940287E591E00E94820287E190E0089F8C
:100C5000F001099FF00D189FF00D1124EE0DFF1DFE
:100C6000E059FF4F808190E00E9497028C8185308F
:100C700011F1863070F4823001F1833028F488233A
:100C8000C1F08130E9F417C0833089F08430C1F4B9
:100C900010C0883071F0893028F4863071F08730C8
:100CA00079F405C0893039F08A3051F406C088E102
:100CB00005C080E003C088E001C080E10E9494028A
:100CC00082E191E00E9482020E946702DF91CF914F
:100CD0001F910F91FF90EF900895CF93DF93EC0158
:100CE0000E945C0281E00E9494028AE591E00E94E9
:100CF000820289E00E94940281E691E00E948202D1
:100D000081E10E94940288E691E00E94820289E1DA
:100D10000E9494028FE691E00E94820289818130D4
:100D200049F0813028F0823039F0833051F406C028
:100D300080E005C088E003C080E101C088E10E9436
:100D4000940282E191E00E9482020E946702DF9198
:100D5000CF910895FC012081213039F0213090F0AD
:100D6000223031F0233099F410C00E94830308959B
:100D7000FC012281233019F40E94AC0408950E94E2
:100D8000120408950E946D0608950E945503089567
:100D9000CF93DF93EC018881813039F08130B8F056
:100DA0008230D9F0833071F508C0898192E0988350
:100DB00019828B831C821D8225C089859A850E9499
:100DC0005510188219821A821B821E821BC08981CB
:100DD00091E098838A83198215C08D81882321F43C
:100DE0008C818F5F8D830EC01D826A8189859A8573
:100DF000633021F04B810E94311004C063E04B81CD
:100E00000E944510DF91CF910895AF92BF92CF928B
:100E1000DF92EF92FF920F931F93CF93DF93EC013A
:100E2000062F442311F411E001C012E38D818130BB
:100E300071F5AF80B884602F772767FD7095872F95
:100E4000972F0E9406122DEC3CEC4CEC5DE30E94C7
:100E5000BA126B017C01612F70E0882777FD8095C5
:100E6000982F0E9406129B01AC01C701B6010E9497
:100E7000BA129B01AC01F50160817181828193817D
:100E80000E940811F50160837183828393838D81B1
:100E9000823071F5AF80B884602F772767FD709539
:100EA000872F972F0E9406122DEC3CEC4CEC5DE353
:100EB0000E94BA126B017C01612F70E0882777FDD8
:100EC0008095982F0E9406129B01AC01C701B601C4
:100ED0000E94BA129B01AC01F50164817581868183
:100EE00097810E940811F501648375838683978337
:100EF0008D81833039F4EF81F88581E090859111FF
:100F000080E080878D81843039F4EF81F88581E03D
:100F10009185911180E08187DF91CF911F910F9191
:100F2000FF90EF90DF90CF90BF90AF900895CF9259
:100F3000DF92EF92FF921F93CF93DF93FC01442344
:100F400019F451E011E002C05AE012E38185928564
:100F5000238130E04581463009F4A4C0473090F445
:100F6000433009F443C0443030F44130F1F04230B2
:100F700009F006C12DC0443009F44FC0453009F0D6
:100F8000FFC082C0493009F4C3C04A3038F447304A
:100F900009F496C0483009F0F3C0A9C04A3009F4FA
:100FA000C8C04B3009F0ECC0D5C047E150E0249FE9
:100FB000F001259FF00D349FF00D1124E80FF91F6B
:100FC000E65AFF4F81E09081911180E08083D8C084
:100FD00047E150E0249FE001259FD00D349FD00DC4
:100FE0001124C80FD91FC55ADF4F24C0569F602D4A
:100FF000112447E150E0249FF001259FF00D349F1C
:10100000F00D1124E80FF91FE15AFF4F8081680F9E
:1010100060836D3308F4B4C0B2C047E150E0249F50
:10102000E001259FD00D349FD00D1124C80FD91F8A
:10103000CC59DF4F772767FD7095872F972F0E9438
:1010400006122DEC3CEC4CEC5DE30E94BA126B01F5
:101050007C01612F70E0882777FD8095982F0E9492
:1010600006129B01AC01C701B6010E94BA129B0196
:10107000AC01688179818A819B810E940811688313
:1010800079838A839B837CC047E150E0249FE00101
:10109000259FD00D349FD00D1124C80FD91FC05AE1
:1010A000DF4FC8CF47E150E0249FE001259FD00DDE
:1010B000349FD00D1124C80FD91FC859DF4FBACFA4
:1010C000569F602D112447E150E0249FF001259F99
:1010D000F00D349FF00D1124E80FF91FE459FF4F74
:1010E0008081680F60836F3108F44AC048C0569F02
:1010F000602D112447E150E0249FF001259FF00D61
:10110000349FF00D1124E80FF91FE359FF4F32C04F
:10111000569F602D112447E150E0249FF001259F48
:10112000F00D349FF00D1124E80FF91FE259FF4F25
:1011300021C0569F602D112447E150E0249FF0010B
:10114000259FF00D349FF00D1124E80FF91FE15990
:10115000FF4F10C0569F602D112447E150E0249F9F
:10116000F001259FF00D349FF00D1124E80FF91FB9
:10117000E059FF4F8081680F6083633308F010826D
:10118000DF91CF911F91FF90EF90DF90CF90089566
:10119000FC018081813059F0813018F0823089F56E
:1011A00013C081818F5F8183843059F50BC08181A9
:1011B0008F5F81839281933011F492E001C093E0BC
:1011C0008917F9F4118208958581882361F4848157
:1011D0008F5F84839281933011F49BE001C094E08F
:1011E000891709F414828281833031F0CF0161E0E4
:1011F00040E00E9405070895CF0161E040E00E94B1
:1012000097070895FC018081813081F0813028F0BA
:101210008230D1F08330B1F505C08181882381F41B
:1012200084E00DC08181882339F00AC08181882340
:1012300039F48281833011F482E001C083E081833C
:1012400081818150818308958581882369F4848117
:10125000882339F48281833011F48BE001C084E06B
:1012600084838481815084838281833031F0CF01F3
:101270006FEF40E00E9405070895CF016FEF40E057
:101280000E9497070895FC018081813019F0823017
:10129000D1F403C08281108206C08581882329F49D
:1012A000838191E09083818308958281833031F03E
:1012B000CF016FEF41E00E9405070895CF016FEF66
:1012C00041E00E9497070895FC018081823041F03F
:1012D0008430A1F483E08083118214821582089502
:1012E0008281833031F0CF0161E041E00E94050747
:1012F0000895CF0161E041E00E9497070895CF93E0
:10130000DF93EC010E94F60184E088831982DF916B
:10131000CF910895FC01108261830895FC0181E062
:101320008083628341830895FC0182E0808311827F
:1013300062834383148215820895FC0183E08083D5
:1013400011821482158208950895682FF89485EA11
:1013500091E00E944E0381E08093B001289A299A7F
:101360002A9A2B9A109277011092780110927901A3
:1013700010927A01089585EC91E00E946D0F109211
:10138000B00178940895EF92FF920F931F93DF932B
:10139000CF9300D0CDB7DEB7E0907701F090780121
:1013A0000091790110917A01C801B70124EF31E071
:1013B00040E050E00E9444136115710581059105DC
:1013C00071F00894E11CF11C011D111DE0927701E0
:1013D000F09278010093790110937A01B0C085E012
:1013E0000E94AF0084E00E94AF0083E00E94AF0043
:1013F00085E00E9449016093B5017093B601809326
:10140000B7019093B80184E00E9449016093B9014B
:101410007093BA018093BB019093BC0183E00E945A
:1014200049016093BD017093BE018093BF01909309
:10143000C0010E94DE0FE82E8DE991E062EE71E0BE
:1014400045EB51E00E94FD0C81EA91E062EE71E013
:1014500045EB51E00E94FD0C8EED91E062EE71E0F3
:1014600045EB51E00E94FD0C85EC91E065EB71E0ED
:101470004E2D0E94FF0D0E945C0280E00E949402AB
:101480006091B5017091B6018091B7019091B8015A
:101490000E94EF0288E00E9494026091B90170916D
:1014A000BA018091BB019091BC010E94EF0280E1E2
:1014B0000E9494026091BD017091BE018091BF01B4
:1014C0009091C0010E94EF0288E10E9494028091F5
:1014D000C90190E00E9497028AE10E9494028091E3
:1014E000D8019091D9010E9497028DE10E94940247
:1014F0008091D30190E00E9497028FE10E949402B4
:101500001A82EE2011F08BE201C08DE28983CE01B8
:1015100001960E9482020E94670281E090E0A0E0B2
:10152000B0E08093770190937801A0937901B09314
:101530007A018FE891E00197F1F700C000000F9069
:101540000F90CF91DF911F910F91FF90EF90089531
:1015500085EA91E00E9402091092770110927801C9
:101560001092790110927A01089585EA91E00E9423
:10157000C8081092770110927801109279011092A8
:101580007A01089585EA91E00E94C80610927701D9
:10159000109278011092790110927A01089585EAEB
:1015A00091E00E9443091092770110927801109205
:1015B000790110927A0108958091B001882321F475
:1015C00083E00E94A50904C085EA91E00E946409B5
:1015D00010927701109278011092790110927A019D
:1015E00008958091B001882319F40E94A50902C0D2
:1015F0000E94BB0910927701109278011092790134
:1016000010927A0108951092B1011092B2011092D5
:10161000B3011092B4011092C1011092C201109254
:10162000C3011092C4011092DA011092DB011092F2
:10163000DC011092DD0138983A983998409A429A24
:10164000419A0895309915C08091B1019091B201ED
:10165000A091B301B091B401B7FD0BC00196A11DDB
:10166000B11D8093B1019093B201A093B301B093E7
:10167000B401329915C08091C1019091C201A0912D
:10168000C301B091C401B7FD0BC00196A11DB11DEE
:101690008093C1019093C201A093C301B093C40190
:1016A000319915C08091DA019091DB01A091DC01A4
:1016B000B091DD01B7FD0BC00196A11DB11D809356
:1016C000DA019093DB01A093DC01B093DD018091FE
:1016D000B1019091B201A091B301B091B401893EE2
:1016E00023E0920720E0A20720E0B2076CF00E94FE
:1016F000CF0A8FEF9FEFDC018093B1019093B2018D
:10170000A093B301B093B4018091C1019091C20143
:10171000A091C301B091C401893E23E0920720E06B
:10172000A20720E0B2076CF00E94DC0A8FEF9FEF67
:10173000DC018093C1019093C201A093C301B093D7
:10174000C4018091DA019091DB01A091DC01B0919C
:10175000DD01893E23E0920720E0A20720E0B207E6
:101760006CF00E94F10A8FEF9FEFDC018093DA01A9
:101770009093DB01A093DC01B093DD01309B1DC091
:101780008091B1019091B201A091B301B091B401E7
:101790000197A109B109873E23E0920720E0A20743
:1017A00020E0B20710F40E94A80A1092B101109232
:1017B000B2011092B3011092B401329B1DC080910E
:1017C000C1019091C201A091C301B091C4010197E0
:1017D000A109B109873E23E0920720E0A20720E09B
:1017E000B20710F40E94B50A1092C1011092C20112
:1017F0001092C3011092C401319B1DC08091DA0187
:101800009091DB01A091DC01B091DD010197A1096C
:10181000B109873E23E0920720E0A20720E0B2074B
:1018200010F40E94C20A1092DA011092DB011092A9
:10183000DC011092DD010895F89410928000E1E837
:10184000F0E0108288E391E0909389008093880013
:10185000808188608083AFE6B0E08C9182608C9359
:10186000808185608083789408956F927F928F92B3
:101870009F92AF92BF92CF92DF92EF92FF920F931F
:101880001F931092B0010E94DE0F809381020E948C
:10189000FA010E94030B82EE91E00E9407108DE98D
:1018A00091E060E00E94E30C81EA91E061E00E9437
:1018B000E30C8EED91E062E00E94E30C85EC91E098
:1018C00062EE71E043E00E94A80F85EA91E062EECB
:1018D00071E00E944A030E941C0C5C9A9CE2A92EB3
:1018E00091E0B92EC12CD12C81E0682E712C812C75
:1018F000912C0E94DE0F809381020E94220B8FE9BF
:101900009FE00197F1F700C000008091B0018823AB
:1019100019F0813071F703C00E94C309EACFE0904B
:101920007701F09078010091790110917A01C80156
:10193000B701A60195010E94441361157105810547
:10194000910571F00894E11CF11C011D111DE0923C
:101950007701F09278010093790110937A01C9CF51
:1019600085EA91E00E94AA06609277017092780160
:101970008092790190927A01BCCF1F920F920FB69C
:101980000F9211242F933F934F935F936F937F9305
:101990008F939F93AF93BF93EF93FF9385EC91E069
:1019A0000E94D50EFF91EF91BF91AF919F918F91C2
:1019B0007F916F915F914F913F912F910F900FBE4B
:1019C0000F901F901895FC01608311821282138280
:1019D00024B181E090E0AC0102C0440F551F6A952C
:1019E000E2F7242B24B925B1008002C0880F991F8B
:1019F0000A94E2F7282B25B908954F925F926F92CF
:101A00007F928F929F92AF92BF92CF92DF92EF928E
:101A1000FF920F931F93CF93DF933C015B01FC0177
:101A2000F0808EE1FF2DF89F200111248301C42E48
:101A3000D52E88249924EE24E394E401C40DD51D09
:101A4000CA0DDB1D8985882309F44EC0888588234B
:101A500039F1F60160817181828193812881398118
:101A60004A815B810E946C1187FF02C0F8011182DC
:101A7000688179818A819B812C813D814E815F8142
:101A80000E9408119B01AC01F60160817181828185
:101A900093810E94B61218164CF5F801E18226C017
:101AA000688179818A819B812C813D814E815F8112
:101AB0000E9407119B01AC01F60160817181828156
:101AC00093810E946C1187FF02C0F801E182F60148
:101AD0006081718182819381288139814A815B8112
:101AE0000E94B612181614F4F80111828AE090E0F0
:101AF000880E991E0F5F1F4FE4E0F0E0CE0EDF1E50
:101B0000FEE18F16910409F098CFAF2DB0E0CD0122
:101B1000880F991F05E0AA0FBB1F0A95E1F7A81BC4
:101B2000B90BAA0DBB1DEF2DF0E0CF01880F991F57
:101B300075E0EE0FFF1F7A95E1F7E81BF90BEA0D50
:101B4000FB1D53962C9153978185282BEF2DF0E0A8
:101B5000CF01880F991F55E0EE0FFF1F5A95E1F74F
:101B6000E81BF90BEA0DFB1D858D282BEF2DF0E00E
:101B7000CF01880F991F35E0EE0FFF1F3A95E1F76F
:101B8000E81BF90B3996EA0DFB1D81E090E03081EE
:101B9000332339F0D301A80FB91F3C91332309F443
:101BA00020E001963A968430910589F7222361F06E
:101BB00025B181E090E002C0880F991FFA94E2F706
:101BC0008095822385B90AC025B181E090E002C0EA
:101BD000880F991FFA94E2F7282B25B9DF91CF914E
:101BE0001F910F91FF90EF90DF90CF90BF90AF903B
:101BF0009F908F907F906F905F904F9008950F937C
:101C00001F93CF93DF93EC01AB81AF3F09F4C8C0C2
:101C100029813A81B0E087E190E0A89FF001A99F77
:101C2000F00DB89FF00D1124CF01865A9F4F820FFF
:101C3000931F009709F4B4C0AA0FBB1FAA0FBB1FC4
:101C4000A60FB71F6D917D918D919C9113975C812B
:101C50005330D1F1543028F45130B1F0523030F5D6
:101C600010C0563009F470C0573020F4553009F0D8
:101C700097C056C0573009F474C0583009F090C06E
:101C800080C01E8681E08BC0E20FF31FE55AFF4F34
:101C900020813181428153810E94B61287FD80C02C
:101CA0001A8A198A1C8A1B8A82E079C0E20FF31F04
:101CB000E15AFF4F808190E02B893C892817390732
:101CC00008F46EC083E06BC08F01020F131F442322
:101CD00009F125E02C83F801E05AFF4F2081318182
:101CE000428153810E940811262F372F482F592FE8
:101CF0002D833E834F835887F801EC59FF4F208195
:101D00003181428153810E94071169877A878B87CD
:101D10009C8746C0F801E359FF4F80818E8740C001
:101D2000E20FF31FDF01A259BF4F2C912E874423EE
:101D300031F1E859FF4F20813181428153810E9466
:101D4000B61287FD2DC02AC01E864423C1F0298506
:101D50003A854B855C850E94B61218160CF187E017
:101D60001EC02D852E87442351F02D813E814F8149
:101D700058850E94B61287FD13C088E010C01C82EF
:101D80000FC0E20FF31FE059FF4F8D859081891B33
:101D90008D87181614F081E08D871E8686E08C836F
:101DA000DF91CF911F910F910895FC0143814F3F27
:101DB00009F46FC02181328150E067E170E0469FF5
:101DC000C001479F900D569F900D1124865A9F4F3A
:101DD000820F931F009709F45CC081899289019654
:101DE000928B818B6BE0883B960739F483899489C9
:101DF0000196948B838B128A118A8785908901962C
:101E0000908B878767E170E0469FD001479FB00DB8
:101E1000569FB00D1124A20FB31FA459BF4F7C9140
:101E200062E3769FB00111246817790720F481E0FE
:101E300090E0908B878787E190E0489FD001499F91
:101E4000B00D589FB00D1124A20FB31FA459BF4F5E
:101E50009C918685989FC0011124278530894081F7
:101E60008217930760F025B181E090E002C0880FEF
:101E7000991F4A95E2F78095822385B9089525B187
:101E800081E090E002C0880F991F4A95E2F7282B65
:101E900025B90895FC01108A17860895FC01128A5D
:101EA000118A148A138A0895FC0123812F3F89F037
:101EB00030E087E190E0289FA001299F500D389FD6
:101EC000500D1124465A5F4F21813281240F351F56
:101ED00002C020E030E0C9010895DC018FEF1396C5
:101EE0008C93139711968D919C911297FC01E65A51
:101EF000FF4F2081222381F4FC01EF58FF4F208106
:101F0000222371F4FC01E857FF4F20812223F9F0CE
:101F100042E022E030E007C040E020E030E003C0D3
:101F200041E021E030E013964C93139747E150E0F5
:101F3000249FF001259FF00D349FF00D1124E80F30
:101F4000F91FE159FF4F80811D968C931D970895CD
:101F5000CF93DF93EC0148837A8369830E946D0FEE
:101F60001E861C8280E090E0DC0189879A87AB871F
:101F7000BC878D839E83AF83B887188A1F861A8A91
:101F8000198A1C8A1B8A44B181E090E09C01088078
:101F900002C0220F331F0A94E2F7422B44B925B145
:101FA000088002C0880F991F0A94E2F7282B25B9F0
:101FB000DF91CF910895FC0166870895259881E00F
:101FC0001D9B80E008952AE0429FA00111242EE18C
:101FD000629FB0011124460F571FBA016050704034
:101FE000840F951F4AE050E00E946D13089527E189
:101FF000429FA0011124865A9F4FBA01665A7F4F13
:10200000840F951F47E150E00E946D1308951F93C0
:10201000CF93DF93EC0110E0CE01612F40E00E94EE
:10202000E30FCE01612F41E00E94E30FCE01612F4B
:1020300042E00E94E30F1F5F143071F7CE0163E0AE
:1020400040E00E94F70FCE0163E041E00E94F70FED
:10205000CE0163E042E00E94F70FDF91CF911F9124
:1020600008952AE0429FA00111242EE1629FB00151
:102070001124460F571FBA0160507040840F951FFE
:102080004AE050E00E947D13089527E1429FA0019D
:102090001124865A9F4FBA01665A7F4F840F951FAD
:1020A00047E150E00E947D1308952F923F924F9296
:1020B0005F926F927F928F929F92AF92BF92CF92D8
:1020C000DF92EF92FF920F931F93DF93CF930F92C4
:1020D000CDB7DEB77C0100E010E00F2EF0E0AF2EB0
:1020E000F0E0BF2EF4EACF2EF1E4DF2EF02D0F2E1C
:1020F000F0E06F2EF0E07F2EF0E88F2EFFE39F2EB2
:10210000F02D442443941EC0F101A082B182C2820A
:10211000D382648275828682978240861186C70147
:10212000652D422F29830E94311029812F5F8AE07B
:1021300090E0280E391E233039F70F5F1F4F033010
:10214000110581F0502EC801880F991F180125E054
:10215000220C331C2A95E1F7281A390A2E0C3F1C51
:1021600020E0D2CF9AE5292E312C2E0C3F1C10E016
:102170000F2EF0E0AF2EF0E0BF2EFCE8CF2EF2E401
:10218000DF2EF02D01E00F2EF0E06F2EF0E07F2E1D
:10219000F0E08F2EF0E09F2EF02D8AE0582EF10116
:1021A0001082A182B282C382D48205836286738642
:1021B000848695866682778280869186A686B78693
:1021C000C08AD18A528A038B048B058B068BC70188
:1021D00063E0412F0E9445101F5F87E190E0280EC9
:1021E000391E1330E1F60F90CF91DF911F910F91BF
:1021F000FF90EF90DF90CF90BF90AF909F908F9027
:102200007F906F905F904F903F902F90089550581F
:10221000BB27AA270ED070C161D130F066D120F063
:1022200031F49F3F11F41EF456C10EF4E095E7FB24
:102230004CC1E92F72D180F3BA1762077307840784
:10224000950718F071F49EF58AC10EF4E0950B2EF7
:10225000BA2FA02D0B01B90190010C01CA01A001F8
:102260001124FF27591B99F0593F50F4503E68F153
:102270001A16F040A22F232F342F4427585FF3CF94
:10228000469537952795A795F0405395C9F77EF465
:102290001F16BA0B620B730B840BBAF09150A1F0AE
:1022A000FF0FBB1F661F771F881FC2F70EC0BA0F34
:1022B000621F731F841F48F4879577956795B795BC
:1022C000F7959E3F08F0B3CF9395880F08F09927B4
:1022D000EE0F979587950895D4D008F481E008957E
:1022E0000CD00AC102D140F0F9D030F021F45F3FA8
:1022F00019F0EBC0511134C1EEC00FD198F39923FE
:10230000C9F35523B1F3951B550BBB27AA276217B9
:102310007307840738F09F5F5F4F220F331F441FFE
:10232000AA1FA9F333D00E2E3AF0E0E830D0915036
:102330005040E695001CCAF729D0FE2F27D0660F23
:10234000771F881FBB1F261737074807AB07B0E862
:1023500009F0BB0B802DBF01FF2793585F4F2AF078
:102360009E3F510568F0B1C0FBC05F3FECF3983E63
:10237000DCF3869577956795B795F7959F5FC9F7D5
:10238000880F911D9695879597F90895E1E0660F5E
:10239000771F881FBB1F621773078407BA0720F0D7
:1023A000621B730B840BBA0BEE1F88F7E095089540
:1023B000BCD088F09F5790F0B92F9927B751A0F063
:1023C000D1F0660F771F881F991F1AF0BA95C9F7C9
:1023D00012C0B13081F0C3D0B1E00895C0C0672F02
:1023E000782F8827B85F39F0B93FCCF38695779579
:1023F0006795B395D9F73EF4909580957095619562
:102400007F4F8F4F9F4F0895E89409C097FB3EF48C
:1024100090958095709561957F4F8F4F9F4F992331
:10242000A9F0F92F96E9BB279395F69587957795AF
:102430006795B795F111F8CFFAF4BB0F11F460FF6F
:102440001BC06F5F7F4F8F4F9F4F16C0882311F0C7
:1024500096E911C0772321F09EE8872F762F05C0DB
:10246000662371F096E8862F70E060E02AF09A9576
:10247000660F771F881FDAF7880F9695879597F96B
:102480000895990F0008550FAA0BE0E8FEEF161605
:102490001706E807F907C0F012161306E407F50758
:1024A00098F0621B730B840B950B39F40A2661F0CC
:1024B000232B242B252B21F408950A2609F4A1406F
:1024C000A6958FEF811D811D089597F99F6780E87C
:1024D00070E060E008959FEF80EC089500240A9476
:1024E0001616170618060906089500240A941216EF
:1024F0001306140605060895092E0394000C11F422
:10250000882352F0BB0F40F4BF2B11F460FF04C0CE
:102510006F5F7F4F8F4F9F4F089557FD9058440F27
:10252000551F59F05F3F71F04795880F97FB991F32
:1025300061F09F3F79F087950895121613061406EF
:10254000551FF2CF4695F1DF08C01616170618067C
:10255000991FF1CF86957105610508940895E89457
:10256000BB2766277727CB0197F908958ADF08F400
:102570008FEF08950BD0C0CFB1DF28F0B6DF18F091
:10258000952309F0A2CFA7CF1124EACFC6DFA0F38D
:10259000959FD1F3950F50E0551F629FF001729FF8
:1025A000BB27F00DB11D639FAA27F00DB11DAA1F17
:1025B000649F6627B00DA11D661F829F2227B00D64
:1025C000A11D621F739FB00DA11D621F839FA00DEF
:1025D000611D221F749F3327A00D611D231F849F3F
:1025E000600D211D822F762F6A2F11249F57504096
:1025F0008AF0E1F088234AF0EE0FFF1FBB1F661F31
:10260000771F881F91505040A9F79E3F510570F0E9
:102610005CCFA6CF5F3FECF3983EDCF386957795D1
:102620006795B795F795E7959F5FC1F7FE2B880FE4
:10263000911D9695879597F90895AA1BBB1B51E1AB
:1026400007C0AA1FBB1FA617B70710F0A61BB70B22
:10265000881F991F5A95A9F780959095BC01CD01C7
:10266000089597FB092E07260AD077FD04D0E5DFF1
:1026700006D000201AF4709561957F4F0895F6F703
:10268000909581959F4F0895A1E21A2EAA1BBB1B1E
:10269000FD010DC0AA1FBB1FEE1FFF1FA217B3072E
:1026A000E407F50720F0A21BB30BE40BF50B661F44
:1026B000771F881F991F1A9469F760957095809508
:1026C00090959B01AC01BD01CF010895DC0101C0D3
:1026D0006D9341505040E0F70895DC01CB01FC01BF
:1026E000F999FECF06C0F2BDE1BDF89A319600B46B
:1026F0000D9241505040B8F70895DC01A40FB51F6A
:102700004150504048F0CB01840F951F2E910E94FC
:102710008E1341505040D0F70895262FF999FECFDF
:1027200092BD81BDF89A019700B4021639F01FBA24
:1027300020BD0FB6F894FA9AF99A0FBE0895F8944E
:02274000FFCFC9
:1027420052455345543F3F3F3F3F004E6F0059654E
:1027520073003E0054656D70310054656D70320037
:1027620054656D7033002A00434F4C440048454184
:1027720054004F6E004F666600547A007433200096
:102782005431005432005433007470005367002FE8
:102792000053630053730053640052656C617931D6
:1027A2000052656C6179320052656C617933005276
:0627B200656C6179340042
:00000001FF
