:100000000C9434000C9451000C9451000C94510049
:100010000C9451000C9451000C9451000C9451001C
:100020000C9451000C9451000C9451000C9451000C
:100030000C9451000C94AB0A0C9451000C94510098
:100040000C9451000C9451000C9451000C945100EC
:100050000C9451000C9451000C9451000C945100DC
:100060000C9451000C94510011241FBECFEFD4E02A
:10007000DEBFCDBF11E0A0E0B1E0E2EDFEE102C0E5
:1000800005900D92A635B107D9F712E0A6E5B1E0CB
:1000900001C01D92AE34B107E1F70E945B0A0C94D7
:1000A000670F0C94000097B121E030E002C0220FEE
:1000B000331F8A95E2F7922B97B988B12095822356
:1000C00088B98FEC97E00197F1F700C0000087B185
:1000D000822387B987E191E00197F1F700C0000022
:1000E00086B18FE896E00197F1F700C0000081E04B
:1000F00090E0089521E030E002C0220F331F8A957E
:10010000E2F7322F309588E090E060FF14C047B1ED
:10011000422B47B948B1432348B94AE14A95F1F720
:1001200000C047B1432347B9EBEDF0E03197F1F759
:1001300000C000000FC047B1422B47B948B143236C
:1001400048B9EFEEF0E03197F1F700C0000047B199
:10015000432347B9019711F06695D7CF08951F93B0
:10016000182F0E9453000097B9F08FE99FE0019784
:10017000F1F700C00000812F6CEC0E947A00812F03
:1001800064E40E947A008FEF93EDA0E381509040E9
:10019000A040E1F700C000001F91089597B121E051
:1001A00030E0082E02C0220F331F0A94E2F7922B90
:1001B00097B998B12095922398B995E09A95F1F75F
:1001C000000097B1922397B9E5E3EA95F1F70000B3
:1001D00026B1E7ECF0E03197F1F700C0000030E025
:1001E00002C0359527958A95E2F7822F8170089590
:1001F0000F931F93CF93DF93082FC8E0D0E010E058
:10020000802F0E94CE008795882787951695182BFA
:100210002197B1F7812FDF91CF911F910F91089511
:10022000FF920F931F93182F0E945300009751F1D4
:10023000812F6CEC0E947A00812F6EEB0E947A0075
:10024000812F0E94F800082F812F0E94F800F82EBD
:10025000812F0E94F800812F0E94F800812F0E94B8
:10026000F800812F0E94F800812F0E94F800812F52
:100270000E94F800812F0E94F8003F2D20E0200FFF
:10028000311D02C020E030E0C9011F910F91FF90A5
:100290000895AF92BF92CF92DF92EF92FF920F93A9
:1002A0001F93CF93DF930E9410019C0197FF0EC014
:1002B000309521953F4F0F2EF0E0EF2EF0E0FF2E0E
:1002C000F0E80F2FFFEB1F2FF02D0AC00F2EF0E0EC
:1002D000EF2EF0E0FF2EF0E80F2FFFE31F2FF02DA1
:1002E000B9016F70707041E752E0649FC001659F73
:1002F000900D749F900D112468EE73E00E94F90E2A
:10030000EB0141E0843F94070CF0219684E03695A0
:1003100027958A95E1F72F773070B90180E090E05A
:100320000E94CC0D5B016C01BE01882777FD809592
:10033000982F0E94CE0D20E030E040E251E40E9470
:10034000380D9B01AC01C601B5010E94D00CA8017B
:1003500097010E94820EDF91CF911F910F91FF9024
:10036000EF90DF90CF90BF90AF9008955E989BB1D3
:10037000907F9BB92BB1982F92959F70922B9BB930
:100380005D9AEFE9FFE03197F1F700C000005D985A
:10039000EFEBFDE53197F1F700C000009BB1907FD6
:1003A0009BB99BB18F70892B8BB95D9A8FE99FE0C8
:1003B0000197F1F700C000005D9808955F9A0E94D0
:1003C000B60108955F980E94B6018FEB9DE50197F5
:1003D000F1F700C000000895803118F0805190ECD2
:1003E00001C090E8890F0E94E201089581E00E9417
:1003F000E20108958FEF8AB91BB88FEF96E7A1E06D
:1004000081509040A040E1F700C000005F985E98E6
:100410008BB1807F8BB98BB183608BB9AFE1BEE4C8
:100420001197F1F700C000008BB1807F8BB98BB1C1
:1004300083608BB987EE93E00197F1F700C000006D
:100440008BB1807F8BB98BB183608BB9AFE1BEE498
:100450001197F1F700C000008BB1807F8BB9599ADA
:100460005D9A8FEB9DE50197F1F700C000005D9864
:1004700088E20E94E20188E00E94E20181E00E949D
:10048000E20186E00E94E2018CE00E94E201089510
:10049000EF92FF92CF93DF93E82EE7017E01F92ED2
:1004A000E70102C00E94DE0189918823D9F7DF911C
:1004B000CF91FF90EF90089582E791E060E270E0C5
:1004C00040E250E00E942E0F109256010895CF9303
:1004D000DF9380E00E94EC01C2E7D1E089910E94A5
:1004E000DE0181E0C238D807C9F780E10E94EC0143
:1004F00089910E94DE0181E0C239D807C9F7DF91F6
:10050000CF910895282F392FD9010AC09091560113
:10051000E92FF0E0EE58FE4F80839F5F90935601E5
:100520008D91882399F708958093560108950F932C
:100530001F93DF93CF9300D000D000D0CDB7DEB7AC
:10054000009761F480915601E82FF0E0EE58FE4FDD
:1005500090E390838F5F8093560136C097FF0EC063
:1005600020915601E22FF0E0EE58FE4F3DE230833D
:100570002F5F20935601909581959F4FFE013196F4
:1005800020E030E00AE010E0B8010E94F90E81930B
:100590002F5F3F4FCB010097B9F760915601CE0115
:1005A0000196FC01E20FF31F462F08C0A42FB0E014
:1005B000AE58BE4F5291505D5C934F5FE817F907FC
:1005C000A9F7260F2093560126960FB6F894DEBFA2
:1005D0000FBECDBFCF91DF911F910F910895EF9284
:1005E000FF920F931F937B018C0120E030E0A90163
:1005F0000E94340D9091560187FF0EC0E92FF0E064
:10060000EE58FE4F8DE280839F5F9093560117FB5B
:10061000109517F9109509C0E92FF0E0EE58FE4F3C
:100620008BE280839F5F90935601C801B7010E94BF
:10063000A00DDC01CB010E94970280915601E82FAA
:10064000F0E0EE58FE4F9EE290838F5F809356015C
:10065000C801B70120E030E040E251E40E94820E80
:100660000E94A00DCB016AE070E00E94E50E0E949E
:1006700097021F910F91FF90EF900895882311F436
:1006800087E0089584E00895882311F481E00895B7
:1006900083E008950E94F6011092570110925801CC
:1006A00010925B0110925C0110925D0110925E014C
:1006B00078940895F8949EE190935701809358019F
:1006C00010925B0110925C0110925D0110925E012C
:1006D00008959AE0909357018093590160935801CF
:1006E00010925B0110925C0110925D0110925E010C
:1006F000089594E190935701109258018093590105
:1007000060935A0110925B0110925C0110925D019E
:1007100010925E011092490210924802089588E2F8
:10072000809357011092580110925B0110925C0166
:1007300010925D0110925E011092490210924802DF
:100740000895EF92FF920F931F93E0905B01F0905A
:100750005C0100915D0110915E01C801B70124EFB9
:1007600031E040E050E00E940C0F611571058105F9
:10077000910571F00894E11CF11C011D111DE0921E
:100780005B01F0925C0100935D0110935E018DC0EE
:1007900085E00E94AF0084E00E94AF0083E00E94E9
:1007A000AF0085E00E944901609398017093990120
:1007B00080939A0190939B0184E00E944901609389
:1007C0009C0170939D0180939E0190939F0183E013
:1007D0000E9449016093A0017093A1018093A2013E
:1007E0009093A3018CEA91E068E971E040E00E94F7
:1007F000040B8CEA91E068E971E041E00E94040B8F
:100800008CEA91E068E971E042E00E94040B8CEA16
:1008100091E068E971E043E00E94040B0E945C02F1
:1008200080E00E94940260919801709199018091FA
:100830009A0190919B010E94EF0288E00E9494022D
:1008400060919C0170919D0180919E0190919F010A
:100850000E94EF0280E10E9494026091A0017091D9
:10086000A1018091A2019091A3010E94EF0288E171
:100870000E94940280916E01992787FD90950E94B5
:1008800097020E94670281E090E0A0E0B0E08093D0
:100890005B0190935C01A0935D01B0935E018FE8D2
:1008A00091E00197F1F700C000001F910F91FF90B8
:1008B000EF900895EF92FF920F931F93E0905B01EA
:1008C000F0905C0100915D0110915E01C801B701DB
:1008D00020EE3EE240E050E00E940C0F61157105F1
:1008E0008105910571F00894E11CF11C011D111D99
:1008F000E0925B01F0925C0100935D0110935E0158
:1009000035C00E945C0281E00E94940280E091E088
:100910000E94820281E10E9494028BE091E00E9499
:10092000820289E10E9494028EE091E00E9482029C
:1009300080915801882319F0813031F402C080E1A0
:1009400001C088E10E94940282E191E00E9482024B
:100950000E94670281E090E0A0E0B0E080935B013C
:1009600090935C01A0935D01B0935E011F910F9184
:10097000FF90EF900895EF92FF920F931F93E090F6
:100980005B01F0905C0100915D0110915E01C80176
:10099000B70120EE3EE240E050E00E940C0F6115EE
:1009A00071058105910571F00894E11CF11C011D90
:1009B000111DE0925B01F0925C0100935D011093C8
:1009C0005E0185C00E945C0281E00E94940284E185
:1009D00091E00E94820280915901882371F089E0A0
:1009E0000E9494028AE191E00E94820281E10E94C9
:1009F000940280E291E00E9482028091580181304D
:100A000039F0813018F0823041F404C080E003C036
:100A100088E001C080E10E94940282E191E00E949E
:100A200082022091590130E087E290E0289FF00196
:100A3000299FF00D389FF00D1124E455FE4F81855C
:100A4000882339F086E00E94940286E291E00E94B9
:100A500082022091590130E087E290E0289FF00166
:100A6000299FF00D389FF00D1124E455FE4F868923
:100A7000882339F08EE00E94940286E291E00E9481
:100A800082022091590130E087E290E0289FF00136
:100A9000299FF00D389FF00D1124E455FE4F83A1DE
:100AA000882339F086E10E94940286E291E00E9458
:100AB00082020E94670281E090E0A0E0B0E08093B3
:100AC0005B0190935C01A0935D01B0935E011F9167
:100AD0000F91FF90EF900895EF92FF920F931F9365
:100AE000E0905B01F0905C0100915D0110915E016E
:100AF000C801B70124EF31E040E050E00E940C0F44
:100B0000611571058105910571F00894E11CF11CD6
:100B1000011D111DE0925B01F0925C0100935D01EB
:100B200010935E01ECC090915A018DE0989FC00136
:100B300011243091590127E2329F90011124820F34
:100B4000931F84559E4F909393018093920181E06F
:100B500090915F01911180E080935F010E945C029F
:100B60009091490280915F01943008F05CC0882325
:100B700021F480914802813069F081E00E94940262
:100B8000E0919201F0919301608171818281938162
:100B90000E94EF0280915F01882321F48091480236
:100BA000823069F089E00E949402E0919201F09114
:100BB000930164817581868197810E94EF02809103
:100BC0005F01882321F480914802833089F081E11C
:100BD0000E949402E0919201F09193018085882314
:100BE00019F088E291E002C08BE291E00E9482025B
:100BF00080915F01882329F480914802843009F4B0
:100C000051C089E10E949402E0919201F091930118
:100C10008185882319F080E391E002C083E391E0AD
:100C20000E9482023FC0882321F4809148028530CF
:100C300059F081E00E949402E0919201F0919301B9
:100C4000828590E00E94970280915F01882321F4C1
:100C500080914802863099F089E00E949402E091E8
:100C60009201F0919301838590E00E94970287E3BF
:100C700091E00E9482028EE190E00E9497028091B2
:100C80005F01882321F480914802873059F081E187
:100C90000E949402E0919201F0919301848590E08A
:100CA0000E94970280914902833071F0843028F4C9
:100CB000813071F0823070F409C0853049F08530A0
:100CC00028F0863051F406C088E105C080E003C0FA
:100CD00088E001C080E10E94940282E191E00E94DC
:100CE00082020E94670281E090E0A0E0B0E0809381
:100CF0005B0190935C01A0935D01B0935E011F9135
:100D00000F91FF90EF900895EF92FF920F931F9332
:100D1000E0905B01F0905C0100915D0110915E013B
:100D2000C801B70120EE3EE240E050E00E940C0F07
:100D3000611571058105910571F00894E11CF11CA4
:100D4000011D111DE0925B01F0925C0100935D01B9
:100D500010935E0144C00E945C0281E00E949402F4
:100D600089E391E00E94820289E00E94940280E47B
:100D700091E00E94820281E10E94940287E491E066
:100D80000E94820289E10E9494028EE491E00E9416
:100D9000820280915801813049F0813028F0823000
:100DA00039F0833051F406C080E005C088E003C00C
:100DB00080E101C088E10E94940282E191E00E94FA
:100DC00082020E94670281E090E0A0E0B0E08093A0
:100DD0005B0190935C01A0935D01B0935E011F9154
:100DE0000F91FF90EF900895CF93DF93809157017B
:100DF000843159F1853120F48A3009F0B2C012C033
:100E00008E3121F0883209F0ACC006C080915801C3
:100E10008823A9F484E011C080915801882379F4D3
:100E200082E00BC080915801882349F480915901D8
:100E3000882311F481E001C083E080935801809100
:100E400058018150809358018CC0809148028823BA
:100E500099F480914902882349F4809159018823AB
:100E600011F487E001C084E0809349028091490237
:100E700081508093490214C0813091F4C091920155
:100E8000D0919301688179818A819B812DEC3CEC22
:100E90004CEC5DE30E94CF0C688379838A839B834B
:100EA00080914802823099F4C0919201D0919301CF
:100EB0006C817D818E819F812DEC3CEC4CEC5DE35F
:100EC0000E94CF0C6C837D838E839F834AC08330C6
:100ED00051F4E0919201F091930181E0908591119C
:100EE00080E080873EC0843051F4E0919201F0911F
:100EF000930181E09185911180E0818732C0853036
:100F000089F4E0919201F09193018285815082876A
:100F1000882311F48EE1828782858F3110F181E080
:100F200082871FC0863089F4E0919201F09193018D
:100F3000838581508387882311F48EE1838783859D
:100F40008F3178F081E083870CC0873051F4E091D5
:100F50009201F0919301848581508487833308F056
:100F6000148610925B0110925C0110925D01109248
:100F70005E01DF91CF910895CF93DF938091570168
:100F8000843109F18E3121F08A3009F0A6C009C000
:100F9000809158018F5F80935801843009F09DC083
:100FA0000FC0809158018F5F809358019091590133
:100FB000992311F491E001C093E0891709F08DC0E5
:100FC000109258018AC080914802882389F4809148
:100FD00049028F5F8093490290915901992311F43E
:100FE00097E001C094E08917B9F41092490214C047
:100FF000813091F4C0919201D091930168817981FF
:101000008A819B812DEC3CEC4CEC5DE30E94D00C82
:10101000688379838A839B8380914802823099F424
:10102000C0919201D09193016C817D818E819F81CD
:101030002DEC3CEC4CEC5DE30E94D00C6C837D838A
:101040008E839F834AC0833051F4E0919201F091E6
:10105000930181E09085911180E080873EC08430CB
:1010600051F4E0919201F091930181E09185911109
:1010700080E0818732C0853089F4E0919201F0915F
:10108000930182858F5F8287882311F48EE18287A6
:1010900082858F3110F181E082871FC0863089F40C
:1010A000E0919201F091930183858F5F838788237C
:1010B00011F48EE1838783858F3178F081E0838717
:1010C0000CC0873051F4E0919201F0919301848536
:1010D0008F5F8487833308F0148610925B0110922F
:1010E0005C0110925D0110925E01DF91CF91089535
:1010F000809157018431F1F0853118F48A3071F50F
:1011000005C08E3189F0883249F507C080915901B8
:10111000609158010E94790308958CEA91E00E9441
:10112000610C0E944A0308958091580160E00E947A
:101130006903089580914802882331F4809149021F
:101140008F5F809348020895109248028CEA91E0E4
:101150006091590140915A010E94390C0895CF9332
:10116000DF93809157018A3019F08431D9F505C099
:10117000809159010E945A0335C08091480288230A
:1011800039F48091590160915A010E9469032AC083
:10119000813091F4C0919201D0919301688179815D
:1011A0008A819B8120E030E040EA50E40E94CF0C2D
:1011B000688379838A839B8380914802823091F48B
:1011C000C0919201D09193016C817D818E819F812C
:1011D00020E030E040EA50E40E94CF0C6C837D8335
:1011E0008E839F83DF91CF910895CF93DF9380917A
:1011F0005701882319F0843181F503C00E948F03C1
:101200002CC080914802813091F4C0919201D0911C
:101210009301688179818A819B8120E030E040EAF6
:1012200050E40E94D00C688379838A839B838091E9
:101230004802823091F4C0919201D09193016C8167
:101240007D818E819F8120E030E040EA50E40E9461
:10125000D00C6C837D838E839F83DF91CF91089523
:1012600080915701882319F40E945A0302C00E94FA
:101270004A0310925B0110925C0110925D01109282
:101280005E010895109294011092950110929601BA
:10129000109297011092A4011092A5011092A6013C
:1012A0001092A7011092A8011092A9011092AA0110
:1012B0001092AB0138983A983998409A429A419ADC
:1012C0000895309915C08091940190919501A09155
:1012D0009601B0919701B7FD0BC00196A11DB11DFC
:1012E0008093940190939501A0939601B0939701F8
:1012F000329915C08091A4019091A501A091A601F9
:10130000B091A701B7FD0BC00196A11DB11D80933F
:10131000A4019093A501A093A601B093A7013199D0
:1013200015C08091A8019091A901A091AA01B09146
:10133000AB01B7FD0BC00196A11DB11D8093A801A3
:101340009093A901A093AA01B093AB01809194015D
:1013500090919501A0919601B0919701893E23E06B
:10136000920720E0A20720E0B2076CF00E94AF08CD
:101370008FEF9FEFDC018093940190939501A093F0
:101380009601B09397018091A4019091A501A0913D
:10139000A601B091A701893E23E0920720E0A207B1
:1013A00020E0B2076CF00E94F5088FEF9FEFDC01A0
:1013B0008093A4019093A501A093A601B093A701E7
:1013C0008091A8019091A901A091AA01B091AB01CF
:1013D000893E23E0920720E0A20720E0B2076CF0EC
:1013E0000E9430098FEF9FEFDC018093A80190935A
:1013F000A901A093AA01B093AB01309B1DC08091BD
:10140000940190919501A0919601B0919701019757
:10141000A109B109873E23E0920720E0A20720E05E
:10142000B20710F40E94F4061092940110929501F4
:101430001092960110929701329B1DC08091A401D9
:101440009091A501A091A601B091A7010197A109D2
:10145000B109873E23E0920720E0A20720E0B2070F
:1014600010F40E94BC071092A4011092A5011092E2
:10147000A6011092A701319B1DC08091A8019091F7
:10148000A901A091AA01B091AB010197A109B109ED
:10149000873E23E0920720E0A20720E0B20710F485
:1014A0000E9478081092A8011092A9011092AA0136
:1014B0001092AB0108950E94FA010E9442098CEA41
:1014C00091E00E941E0C0E948D0A5C9A0E946109A4
:1014D0008FE99FE00197F1F700C00000809157016C
:1014E000843191F0853128F4882341F08A3071F7F6
:1014F00008C08E3161F0883249F70CC00E94A10308
:10150000E5CF0E94BB04E2CF0E946C05DFCF0E94B2
:101510008406DCCF0E945A04D9CF209A219A229ABD
:10152000239A289829982A982B98F894109280004A
:10153000E1E8F0E0108281E080936F0080818360B9
:10154000808378940895FC01838580936E0184855F
:1015500080936F0108951F920F920FB60F9211247E
:101560002F933F934F935F936F937F938F939F93AB
:10157000EF93FF93E0916C01F0916D013097A1F131
:101580008091700190917101019690937101809307
:101590007001228530E0B901660F771FA901E5E0EF
:1015A000440F551FEA95E1F7461B570B481759079B
:1015B00034F481E090E09093710180937001409148
:1015C0006E01552747FD5095429FC001439F900DE6
:1015D000529F900D1124209170013091710182175A
:1015E000930714F0289A01C02898FF91EF919F91DA
:1015F0008F917F916F915F914F913F912F910F90BC
:101600000FBE0F901F9018956F927F928F929F92AE
:10161000AF92BF92CF92DF92EF92FF920F931F9300
:10162000CF93DF935C01842EC42EDD2487E290E00B
:10163000C89EE001C99ED00DD89ED00D1124CA0DC0
:10164000DB1DC601880F991F8C0D9D1D8C01005A52
:101650001E4FE62EF72EB3E66B2EB1E07B2E680E02
:10166000791E992493948985882309F44EC088852E
:10167000882339F1688179818A819B812C813D8120
:101680004E815F810E94CF0C9B01AC01F70160810C
:101690007181828193810E94340D87FF02C0F8011D
:1016A0001082F70160817181828193812881398163
:1016B0004A815B810E947E0E18164CF5F8019082DB
:1016C00026C0F701608171818281938128813981EF
:1016D0004A815B810E94340D87FF02C0F80190822D
:1016E000688179818A819B812C813D814E815F81D6
:1016F0000E94D00C9B01AC01F70160817181828155
:1017000093810E947E0E181614F4F80110822D9613
:101710000F5F1F4F84E090E0E80EF91E06151705D5
:1017200009F0A1CF882021F1F601EE0FFF1FEC0D8B
:10173000FD1DE05AFE4F81819081892B9281892B7A
:1017400059F025B181E090E002C0880F991FCA943A
:10175000E2F7282B25B93BC025B181E090E002C01B
:10176000880F991FCA94E2F78095822385B92FC00C
:1017700080916C0190916D01F5012185222369F41E
:101780002689222351F423A1222339F410926D01DA
:1017900010926C0110926E011AC0F501218522236E
:1017A00091F020916001222371F0B0926D01A0921E
:1017B0006C01009761F480916E0190916F01891B1B
:1017C00080936E0104C010926D0110926C01DF9144
:1017D000CF911F910F91FF90EF90DF90CF90BF902E
:1017E000AF909F908F907F906F900895FF920F938E
:1017F0001F93CF93DF93EC01F62E07E2609F8001E9
:1018000011248DE0489FC0011124800F911F9C017D
:10181000205030408C0F9D1FB9014DE050E00E94D8
:10182000350FFF2029F4CE01800F911F0E94A30ADB
:10183000DF91CF911F910F91FF9008951F93CF9348
:10184000DF93EC0110E0CE01612F40E00E94F60B27
:10185000CE01612F41E00E94F60BCE01612F42E0E4
:101860000E94F60B1F5F143071F7DF91CF911F912B
:101870000895FF920F931F93CF93DF93EC01F62E01
:1018800007E2609F800111248DE0489FC001112470
:10189000800F911F9C01205030408C0F9D1FB9017B
:1018A0004DE050E00E94450FFF2029F4CE01800F4B
:1018B000911F0E94A30ADF91CF911F910F91FF907A
:1018C00008952F923F924F925F926F927F928F92E4
:1018D0009F92AF92BF92CF92DF92EF92FF920F93BF
:1018E0001F93DF93CF9300D0CDB7DEB7D82EE92E6C
:1018F0000D2D1E2D20E00F2EF0E08F2EF0E09F2EFC
:10190000F4EAAF2EF1E4BF2EF02D0F2EF0E04F2EB3
:10191000F0E05F2EF0E86F2EFFE37F2EF02DFF2426
:10192000F3948EE1C82E23C0F10180829182A282BD
:10193000B3824482558266827782F0861186F2866F
:10194000C3868D2D9E2D622F432F29833A830E94BB
:10195000390C3A813F5F8DE090E0280E391E2981D5
:10196000333011F72F5F095D1F4F243019F0180134
:1019700030E0DACF0F900F90CF91DF911F910F9150
:10198000FF90EF90DF90CF90BF90AF909F908F909F
:101990007F906F905F904F903F902F900895505898
:1019A000BB27AA270ED070C161D130F066D120F0DC
:1019B00031F49F3F11F41EF456C10EF4E095E7FB9D
:1019C0004CC1E92F72D180F3BA17620773078407FD
:1019D000950718F071F49EF58AC10EF4E0950B2E70
:1019E000BA2FA02D0B01B90190010C01CA01A00171
:1019F0001124FF27591B99F0593F50F4503E68F1CC
:101A00001A16F040A22F232F342F4427585FF3CF0C
:101A1000469537952795A795F0405395C9F77EF4DD
:101A20001F16BA0B620B730B840BBAF09150A1F026
:101A3000FF0FBB1F661F771F881FC2F70EC0BA0FAC
:101A4000621F731F841F48F4879577956795B79534
:101A5000F7959E3F08F0B3CF9395880F08F099272C
:101A6000EE0F979587950895D4D008F481E00895F6
:101A70000CD00AC102D140F0F9D030F021F45F3F20
:101A800019F0EBC0511134C1EEC00FD198F3992376
:101A9000C9F35523B1F3951B550BBB27AA27621732
:101AA0007307840738F09F5F5F4F220F331F441F77
:101AB000AA1FA9F333D00E2E3AF0E0E830D09150AF
:101AC0005040E695001CCAF729D0FE2F27D0660F9C
:101AD000771F881FBB1F261737074807AB07B0E8DB
:101AE00009F0BB0B802DBF01FF2793585F4F2AF0F1
:101AF0009E3F510568F0B1C0FBC05F3FECF3983EDC
:101B0000DCF3869577956795B795F7959F5FC9F74D
:101B1000880F911D9695879597F90895E1E0660FD6
:101B2000771F881FBB1F621773078407BA0720F04F
:101B3000621B730B840BBA0BEE1F88F7E0950895B8
:101B4000BCD088F09F5790F0B92F9927B751A0F0DB
:101B5000D1F0660F771F881F991F1AF0BA95C9F741
:101B600012C0B13081F0C3D0B1E00895C0C0672F7A
:101B7000782F8827B85F39F0B93FCCF386957795F1
:101B80006795B395D9F73EF49095809570956195DA
:101B90007F4F8F4F9F4F0895E89409C097FB3EF405
:101BA00090958095709561957F4F8F4F9F4F9923AA
:101BB000A9F0F92F96E9BB279395F6958795779528
:101BC0006795B795F111F8CFFAF4BB0F11F460FFE8
:101BD0001BC06F5F7F4F8F4F9F4F16C0882311F040
:101BE00096E911C0772321F09EE8872F762F05C054
:101BF000662371F096E8862F70E060E02AF09A95EF
:101C0000660F771F881FDAF7880F9695879597F9E3
:101C10000895990F0008550FAA0BE0E8FEEF16167D
:101C20001706E807F907C0F012161306E407F507D0
:101C300098F0621B730B840B950B39F40A2661F044
:101C4000232B242B252B21F408950A2609F4A140E7
:101C5000A6958FEF811D811D089597F99F6780E8F4
:101C600070E060E008959FEF80EC089500240A94EE
:101C70001616170618060906089500240A94121667
:101C80001306140605060895092E0394000C11F49A
:101C9000882352F0BB0F40F4BF2B11F460FF04C047
:101CA0006F5F7F4F8F4F9F4F089557FD9058440FA0
:101CB000551F59F05F3F71F04795880F97FB991FAB
:101CC00061F09F3F79F08795089512161306140668
:101CD000551FF2CF4695F1DF08C0161617061806F5
:101CE000991FF1CF86957105610508940895E894D0
:101CF000BB2766277727CB0197F908958ADF08F479
:101D00008FEF08950BD0C0CFB1DF28F0B6DF18F009
:101D1000952309F0A2CFA7CF1124EACFC6DFA0F305
:101D2000959FD1F3950F50E0551F629FF001729F70
:101D3000BB27F00DB11D639FAA27F00DB11DAA1F8F
:101D4000649F6627B00DA11D661F829F2227B00DDC
:101D5000A11D621F739FB00DA11D621F839FA00D67
:101D6000611D221F749F3327A00D611D231F849FB7
:101D7000600D211D822F762F6A2F11249F5750400E
:101D80008AF0E1F088234AF0EE0FFF1FBB1F661FA9
:101D9000771F881F91505040A9F79E3F510570F062
:101DA0005CCFA6CF5F3FECF3983EDCF3869577954A
:101DB0006795B795F795E7959F5FC1F7FE2B880F5D
:101DC000911D9695879597F90895AA1BBB1B51E124
:101DD00007C0AA1FBB1FA617B70710F0A61BB70B9B
:101DE000881F991F5A95A9F780959095BC01CD0140
:101DF000089597FB092E07260AD077FD04D0E5DF6A
:101E000006D000201AF4709561957F4F0895F6F77B
:101E1000909581959F4F0895A1E21A2EAA1BBB1B96
:101E2000FD010DC0AA1FBB1FEE1FFF1FA217B307A6
:101E3000E407F50720F0A21BB30BE40BF50B661FBC
:101E4000771F881F991F1A9469F760957095809580
:101E500090959B01AC01BD01CF010895DC0101C04B
:101E60006D9341505040E0F70895DC01CB01FC0137
:101E7000F999FECF06C0F2BDE1BDF89A319600B4E3
:101E80000D9241505040B8F70895DC01A40FB51FE2
:101E90004150504048F0CB01840F951F2E910E9475
:101EA000560F41505040D0F70895262FF999FECF94
:101EB00092BD81BDF89A019700B4021639F01FBA9D
:101EC00020BD0FB6F894FA9AF99A0FBE0895F894C7
:021ED000FFCF42
:101ED20052455345543F3F3F3F3F004E6F005965C7
:101EE20073003E0054656D70310054656D703200B0
:101EF20054656D7033002A00555000444F574E0010
:101F02004F6E004F6666002F0052656C617931009A
:101F120052656C6179320052656C617933005265A9
:061F22006C61793400003F
:00000001FF
