:100000000C9434000C9451000C9451000C94510049
:100010000C9451000C9451000C9451000C9451001C
:100020000C9451000C9451000C9451000C94020B50
:100030000C9451000C9451000C9451000C945100FC
:100040000C9451000C9451000C9451000C945100EC
:100050000C9451000C9451000C9451000C945100DC
:100060000C9451000C94510011241FBECFEFD4E02A
:10007000DEBFCDBF11E0A0E0B1E0E2E0F0E202C0FF
:1000800005900D92AE35B107D9F712E0AEE5B1E0BB
:1000900001C01D92A935B107E1F70E94950A0C94A1
:1000A000FF0F0C94000097B121E030E002C0220F56
:1000B000331F8A95E2F7922B97B988B12095822356
:1000C00088B98FEC97E00197F1F700C0000087B185
:1000D000822387B987E191E00197F1F700C0000022
:1000E00086B18FE896E00197F1F700C0000081E04B
:1000F00090E0089521E030E002C0220F331F8A957E
:10010000E2F7322F309588E090E060FF14C047B1ED
:10011000422B47B948B1432348B94AE14A95F1F720
:1001200000C047B1432347B9EBEDF0E03197F1F759
:1001300000C000000FC047B1422B47B948B143236C
:1001400048B9EFEEF0E03197F1F700C0000047B199
:10015000432347B9019711F06695D7CF08951F93B0
:10016000182F0E9453000097B9F08FE99FE0019784
:10017000F1F700C00000812F6CEC0E947A00812F03
:1001800064E40E947A008FEF93EDA0E381509040E9
:10019000A040E1F700C000001F91089597B121E051
:1001A00030E0082E02C0220F331F0A94E2F7922B90
:1001B00097B998B12095922398B995E09A95F1F75F
:1001C000000097B1922397B9E5E3EA95F1F70000B3
:1001D00026B1E7ECF0E03197F1F700C0000030E025
:1001E00002C0359527958A95E2F7822F8170089590
:1001F0000F931F93CF93DF93082FC8E0D0E010E058
:10020000802F0E94CE008795882787951695182BFA
:100210002197B1F7812FDF91CF911F910F91089511
:10022000FF920F931F93182F0E945300009751F1D4
:10023000812F6CEC0E947A00812F6EEB0E947A0075
:10024000812F0E94F800082F812F0E94F800F82EBD
:10025000812F0E94F800812F0E94F800812F0E94B8
:10026000F800812F0E94F800812F0E94F800812F52
:100270000E94F800812F0E94F8003F2D20E0200FFF
:10028000311D02C020E030E0C9011F910F91FF90A5
:100290000895AF92BF92CF92DF92EF92FF920F93A9
:1002A0001F93CF93DF930E9410019C0197FF0EC014
:1002B000309521953F4F0F2EF0E0EF2EF0E0FF2E0E
:1002C000F0E80F2FFFEB1F2FF02D0AC00F2EF0E0EC
:1002D000EF2EF0E0FF2EF0E80F2FFFE31F2FF02DA1
:1002E000B9016F70707041E752E0649FC001659F73
:1002F000900D749F900D112468EE73E00E94910F91
:10030000EB0141E0843F94070CF0219684E03695A0
:1003100027958A95E1F72F773070B90180E090E05A
:100320000E94640E5B016C01BE01882777FD8095F9
:10033000982F0E94660E20E030E040E251E40E94D7
:10034000D00D9B01AC01C601B5010E94680DA8014A
:1003500097010E941A0FDF91CF911F910F91FF908B
:10036000EF90DF90CF90BF90AF9008955E989BB1D3
:10037000907F9BB92BB1982F92959F70922B9BB930
:100380005D9AEFE9FFE03197F1F700C000005D985A
:10039000EFEBFDE53197F1F700C000009BB1907FD6
:1003A0009BB99BB18F70892B8BB95D9A8FE99FE0C8
:1003B0000197F1F700C000005D9808955F9A0E94D0
:1003C000B60108955F980E94B6018FEB9DE50197F5
:1003D000F1F700C000000895803118F0805190ECD2
:1003E00001C090E8890F0E94E201089581E00E9417
:1003F000E20108958FEF8AB91BB88FEF96E7A1E06D
:1004000081509040A040E1F700C000005F985E98E6
:100410008BB1807F8BB98BB183608BB9AFE1BEE4C8
:100420001197F1F700C000008BB1807F8BB98BB1C1
:1004300083608BB987EE93E00197F1F700C000006D
:100440008BB1807F8BB98BB183608BB9AFE1BEE498
:100450001197F1F700C000008BB1807F8BB9599ADA
:100460005D9A8FEB9DE50197F1F700C000005D9864
:1004700088E20E94E20188E00E94E20181E00E949D
:10048000E20186E00E94E2018CE00E94E201089510
:10049000EF92FF92CF93DF93E82EE7017E01F92ED2
:1004A000E70102C00E94DE0189918823D9F7DF911C
:1004B000CF91FF90EF9008958CE791E060E270E0BB
:1004C00040E250E00E94C60F10925E010895CF9363
:1004D000DF9380E00E94EC01CCE7D1E089910E949B
:1004E000DE0181E0CC38D807C9F780E10E94EC0139
:1004F00089910E94DE0181E0CC39D807C9F7DF91EC
:10050000CF910895282F392FD9010AC090915E010B
:10051000E92FF0E0E458FE4F80839F5F90935E01E7
:100520008D91882399F7089580935E0108950F9324
:100530001F93DF93CF9300D000D000D0CDB7DEB7AC
:10054000009761F480915E01E82FF0E0E458FE4FDF
:1005500090E390838F5F80935E0136C097FF0EC05B
:1005600020915E01E22FF0E0E458FE4F3DE230833F
:100570002F5F20935E01909581959F4FFE013196EC
:1005800020E030E00AE010E0B8010E94910F819372
:100590002F5F3F4FCB010097B9F760915E01CE010D
:1005A0000196FC01E20FF31F462F08C0A42FB0E014
:1005B000A458BE4F5291505D5C934F5FE817F90706
:1005C000A9F7260F20935E0126960FB6F894DEBF9A
:1005D0000FBECDBFCF91DF911F910F910895EF9284
:1005E000FF920F931F937B018C0120E030E0A90163
:1005F0000E94CC0D90915E0187FF0EC0E92FF0E0C4
:10060000E458FE4F8DE280839F5F90935E0117FB5D
:10061000109517F9109509C0E92FF0E0E458FE4F46
:100620008BE280839F5F90935E01C801B7010E94B7
:10063000380EDC01CB010E94970280915E01E82F09
:10064000F0E0E458FE4F9EE290838F5F80935E015E
:10065000C801B70120E030E040E251E40E941A0FE7
:100660000E94380ECB016AE070E00E947D0F0E946C
:1006700097021F910F91FF90EF900895882311F436
:1006800087E0089584E00895882311F482E00895B6
:1006900083E0089586EB91E00E94840C08950E9407
:1006A000F60110925F0110926001109263011092A6
:1006B0006401109265011092660178940895F8948F
:1006C0009EE190935F01809360011092630110920C
:1006D00064011092650110926601289A299A2A9A5B
:1006E0002B9A08959AE090935F0180936101609343
:1006F00060011092630110926401109265011092E2
:100700006601089594E190935F01109260018093D7
:100710006101609362011092630110926401109272
:1007200065011092660110925402109252020895CF
:1007300088E280935F011092600110926301109231
:100740006401109265011092660110925402109299
:100750005202289A299A2A9A2B9A0895EF92FF9288
:100760000F931F93DF93CF9300D0CDB7DEB7E09008
:100770006301F09064010091650110916601C80168
:10078000B70124EF31E040E050E00E94A40F611572
:1007900071058105910571F00894E11CF11C011DA2
:1007A000111DE0926301F0926401009365011093C2
:1007B00066019DC085E00E94AF0084E00E94AF000A
:1007C00083E00E94AF0085E00E9449016093A2018E
:1007D0007093A3018093A4019093A50184E00E94EB
:1007E00049016093A6017093A7018093A80190939B
:1007F000A90183E00E9449016093AA017093AB01B3
:100800008093AC019093AD0186EB91E062EA71E0D8
:1008100040E00E94780B86EB91E062EA71E041E0F3
:100820000E94780B86EB91E062EA71E042E00E9460
:10083000780B86EB91E062EA71E043E00E94780B6E
:100840000E945C0280E00E9494026091A20170917B
:10085000A3018091A4019091A5010E94EF0288E07C
:100860000E9494026091A6017091A7018091A80155
:100870009091A9010E94EF0280E10E949402609190
:10088000AA017091AB018091AC019091AD010E94E1
:10089000EF0288E10E94940280917601992787FDFA
:1008A00090950E9497028FE10E9494021A820E9402
:1008B000740B882311F08BE201C08DE28983CE0195
:1008C00001960E9482020E94670281E090E0A0E00F
:1008D000B0E08093630190936401A0936501B093AD
:1008E00066018FE891E00197F1F700C000000F90DA
:1008F0000F90CF91DF911F910F91FF90EF9008958E
:10090000EF92FF920F931F93E0906301F0906401C8
:100910000091650110916601C801B70120EE3EE229
:1009200040E050E00E94A40F61157105810591051A
:1009300071F00894E11CF11C011D111DE09263018E
:10094000F0926401009365011093660135C00E9426
:100950005C0281E00E94940280E091E00E948202A9
:1009600081E10E9494028BE091E00E94820289E181
:100970000E9494028EE091E00E94820280916001C8
:10098000882319F0813031F402C080E101C088E190
:100990000E94940282E191E00E9482020E9467021A
:1009A00081E090E0A0E0B0E0809363019093640167
:1009B000A0936501B09366011F910F91FF90EF9096
:1009C0000895EF92FF920F931F93E0906301F090D0
:1009D00064010091650110916601C801B70120EE24
:1009E0003EE240E050E00E94A40F611571058105D0
:1009F000910571F00894E11CF11C011D111DE0929C
:100A00006301F0926401009365011093660185C053
:100A10000E945C0281E00E94940284E191E00E94C5
:100A2000820289E00E9494028AE191E00E9482029F
:100A300080916101882339F081E10E94940280E273
:100A400091E00E94820280916001813039F0813012
:100A500018F0823041F404C080E003C088E001C097
:100A600080E10E94940282E191E00E948202209142
:100A7000610130E087E290E0289FF001299FF00DAE
:100A8000389FF00D1124EA54FE4F8185882339F0F8
:100A900086E00E94940286E291E00E948202209108
:100AA000610130E087E290E0289FF001299FF00D7E
:100AB000389FF00D1124EA54FE4F8689882339F0BF
:100AC0008EE00E94940286E291E00E9482022091D0
:100AD000610130E087E290E0289FF001299FF00D4E
:100AE000389FF00D1124EA54FE4F83A1882339F07A
:100AF00086E10E94940286E291E00E9482020E94B6
:100B0000670281E090E0A0E0B0E080936301909301
:100B10006401A0936501B09366011F910F91FF904E
:100B2000EF900895EF92FF920F931F93E09063016F
:100B3000F09064010091650110916601C801B70150
:100B400024EF31E040E050E00E94A40F61157105F0
:100B50008105910571F00894E11CF11C011D111D26
:100B6000E0926301F09264010093650110936601C5
:100B700001C1909162018DE0989FC00111243091D4
:100B8000610127E2329F90011124820F931F8A5442
:100B90009E4F90939D0180939C0181E0909167010D
:100BA000911180E0809367010E945C028091540261
:100BB000843008F05CC080916701882321F4809123
:100BC0005202813069F081E00E949402E0919C0120
:100BD000F0919D0160817181828193810E94EF0279
:100BE00080916701882321F480915202823069F05C
:100BF00089E00E949402E0919C01F0919D01648142
:100C00007581868197810E94EF0280916701882318
:100C100021F480915202833089F081E10E94940294
:100C2000E0919C01F0919D018085882319F088E274
:100C300091E002C08DE291E00E9482028091670102
:100C4000882329F480915202843009F45BC089E141
:100C50000E949402E0919C01F0919D01818588237E
:100C600019F082E391E04CC085E391E049C0873000
:100C700008F048C080916701882321F480915202D6
:100C8000853059F081E00E949402E0919C01F0913E
:100C90009D01828590E00E949702809167018823E0
:100CA00021F480915202863099F089E00E949402EA
:100CB000E0919C01F0919D01838590E00E94970254
:100CC00089E391E00E9482028EE190E00E94970207
:100CD00080916701882321F480915202873059F076
:100CE00081E10E949402E0919C01F0919D01848534
:100CF00090E00E94970289E10E9494028BE391E0C8
:100D00000E948202809154028430D9F0853048F4E8
:100D10008130C9F08130A8F08230B9F08330C1F45D
:100D20000EC0873071F0883028F4853061F086304D
:100D300079F40BC0883039F0893051F406C088E16D
:100D400005C080E003C088E001C080E10E949402F9
:100D500082E191E00E9482020E94670281E090E0BD
:100D6000A0E0B0E08093630190936401A0936501DB
:100D7000B09366011F910F91FF90EF900895EF924D
:100D8000FF920F931F93E0906301F0906401009134
:100D9000650110916601C801B70120EE3EE240E016
:100DA00050E00E94A40F611571058105910571F055
:100DB0000894E11CF11C011D111DE0926301F092E9
:100DC0006401009365011093660144C00E945C02B7
:100DD00081E00E94940280E491E00E94820289E016
:100DE0000E94940287E491E00E94820281E10E94C5
:100DF00094028EE491E00E94820289E10E949402B2
:100E000085E591E00E94820280916001813049F085
:100E1000813028F0823039F0833051F406C080E010
:100E200005C088E003C080E101C088E10E9494020F
:100E300082E191E00E9482020E94670281E090E0DC
:100E4000A0E0B0E08093630190936401A0936501FA
:100E5000B09366011F910F91FF90EF900895CF938B
:100E6000DF9380915F01843151F1853120F48A3024
:100E700009F0B1C011C08E3121F0883209F0ABC049
:100E800006C0809160018823A1F484E010C08091A5
:100E90006001882349F00DC080916001882349F4E6
:100EA00080916101882311F482E001C083E0809386
:100EB0006001809160018150809360018CC08091BD
:100EC0005202882399F480915402882349F4809136
:100ED0006101882311F487E001C084E0809354020B
:100EE0008091540281508093540214C0813091F457
:100EF000C0919C01D0919D01688179818A819B81FB
:100F00002DEC3CEC4CEC5DE30E94670D688379832B
:100F10008A839B8380915202823099F4C0919C0114
:100F2000D0919D016C817D818E819F812DEC3CEC67
:100F30004CEC5DE30E94670D6C837D838E839F8301
:100F40004AC0833051F4E0919C01F0919D0181E011
:100F50009085911180E080873EC0843051F4E0910B
:100F60009C01F0919D0181E09185911180E0818744
:100F700032C0853089F4E0919C01F0919D01828519
:100F800081508287882311F48EE1828782858F3198
:100F900010F181E082871FC0863089F4E0919C01C6
:100FA000F0919D01838581508387882311F48EE120
:100FB000838783858F3178F081E083870CC0873009
:100FC00051F4E0919C01F0919D01848581508487CA
:100FD000833308F01486109263011092640110921A
:100FE000650110926601DF91CF910895CF93DF9351
:100FF00080915F01843109F18E3121F08A3009F04E
:10100000A6C009C0809160018F5F80936001843029
:1010100009F09DC00FC0809160018F5F80936001D7
:1010200090916101992311F492E001C093E0891736
:1010300009F08DC0109260018AC08091520288230D
:1010400089F4809154028F5F8093540290916101E2
:10105000992311F497E001C094E08917B9F4109234
:10106000540214C0813091F4C0919C01D0919D0133
:10107000688179818A819B812DEC3CEC4CEC5DE3AD
:101080000E94680D688379838A839B8380915202D2
:10109000823099F4C0919C01D0919D016C817D8139
:1010A0008E819F812DEC3CEC4CEC5DE30E94680D41
:1010B0006C837D838E839F834AC0833051F4E0919B
:1010C0009C01F0919D0181E09085911180E08087E5
:1010D0003EC0843051F4E0919C01F0919D0181E08B
:1010E0009185911180E0818732C0853089F4E0914B
:1010F0009C01F0919D0182858F5F8287882311F486
:101100008EE1828782858F3110F181E082871FC056
:10111000863089F4E0919C01F0919D0183858F5F79
:101120008387882311F48EE1838783858F3178F05C
:1011300081E083870CC0873051F4E0919C01F091ED
:101140009D0184858F5F8487833308F01486109215
:101150006301109264011092650110926601DF91A3
:10116000CF91089580915F018431F1F0853118F4B9
:101170008A3071F505C08E3189F0883249F507C093
:1011800080916101609160010E948203089586EB65
:1011900091E00E94000D0E944F030895809160012C
:1011A00060E00E947203089580915202882331F416
:1011B000809154028F5F80935202089510925202E0
:1011C00086EB91E060916101409162010E94DE0C2A
:1011D0000895CF93DF9380915F018A3019F08431B5
:1011E000D9F505C0809161010E945F0335C08091EF
:1011F0005202882339F480916101609162010E945A
:1012000072032AC0813091F4C0919C01D0919D015C
:10121000688179818A819B8120E030E040EA50E456
:101220000E94670D688379838A839B838091520231
:10123000823091F4C0919C01D0919D016C817D819F
:101240008E819F8120E030E040EA50E40E94670DEB
:101250006C837D838E839F83DF91CF910895CF939D
:10126000DF9380915F01882319F0843181F503C0F9
:101270000E9498032CC080915202813091F4C09159
:101280009C01D0919D01688179818A819B8120E0B8
:1012900030E040EA50E40E94680D688379838A83D5
:1012A0009B8380915202823091F4C0919C01D09135
:1012B0009D016C817D818E819F8120E030E040EA3C
:1012C00050E40E94680D6C837D838E839F83DF9141
:1012D000CF91089580915F01882319F40E945F03E4
:1012E00002C00E944F031092630110926401109299
:1012F000650110926601089510929E0110929F015F
:101300001092A0011092A1011092AE011092AF01B3
:101310001092B0011092B1011092B2011092B3017B
:101320001092B4011092B50138983A983998409AC1
:10133000429A419A0895309915C080919E019091EA
:101340009F01A091A001B091A101B7FD0BC0019632
:10135000A11DB11D80939E0190939F01A093A001B8
:10136000B093A101329915C08091AE019091AF0167
:10137000A091B001B091B101B7FD0BC00196A11DC4
:10138000B11D8093AE019093AF01A093B001B093D3
:10139000B101319915C08091B2019091B301A09132
:1013A000B401B091B501B7FD0BC00196A11DB11DEF
:1013B0008093B2019093B301A093B401B093B501AF
:1013C00080919E0190919F01A091A001B091A101F7
:1013D000893E23E0920720E0A20720E0B2076CF0EC
:1013E0000E94E9088FEF9FEFDC0180939E019093AC
:1013F0009F01A093A001B093A1018091AE019091B3
:10140000AF01A091B001B091B101893E23E09207F4
:1014100020E0A20720E0B2076CF00E942F098FEFB6
:101420009FEFDC018093AE019093AF01A093B001D8
:10143000B093B1018091B2019091B301A091B40138
:10144000B091B501893E23E0920720E0A20720E099
:10145000B2076CF00E946A098FEF9FEFDC01809366
:10146000B2019093B301A093B401B093B501309B46
:101470001DC080919E0190919F01A091A001B0910B
:10148000A1010197A109B109873E23E0920720E05D
:10149000A20720E0B20710F40E942F0710929E01CD
:1014A00010929F011092A0011092A101329B1DC0C9
:1014B0008091AE019091AF01A091B001B091B101C6
:1014C0000197A109B109873E23E0920720E0A20716
:1014D00020E0B20710F40E94F6071092AE011092BD
:1014E000AF011092B0011092B101319B1DC08091EB
:1014F000B2019091B301A091B401B091B5010197EF
:10150000A109B109873E23E0920720E0A20720E06D
:10151000B20710F40E94B2081092B2011092B30107
:101520001092B4011092B5010895DF93CF930F92FA
:10153000CDB7DEB70E94740B809353020E94FA016C
:101540000E947C0986EB91E00E94C30C0E94E00A95
:1015500086EB91E00E94840C5C9A0E94740B90913F
:101560005302891721F089830E944A03898180935D
:1015700053020E949B098FE99FE00197F1F700C099
:10158000000080915F01843191F0853128F4882337
:1015900041F08A3011F708C08E3161F08832E9F6E7
:1015A0000CC00E94AE03D9CF0E94E104D6CF0E94A6
:1015B0009205D3CF0E94BF06D0CF0E948004CDCF2A
:1015C0002598209A219A229A239A289A299A2A9A27
:1015D0002B9AF89410928000E1E8F0E0108286E700
:1015E00098E0909389008093880080818860808350
:1015F000AFE6B0E08C9182608C93808185608083BF
:10160000789408951F920F920FB60F9211242F9382
:101610003F934F935F936F937F938F939F93EF933A
:10162000FF93279A80917A0190917B01009711F0A6
:101630002F9A01C02F9881E090E020917A0130919B
:101640007B012115310511F080E090E090937B0142
:1016500080937A01E0917401F09175013097A1F1C6
:10166000809178019091790101969093790180930E
:101670007801208130E0B901660F771FA901E5E00C
:10168000440F551FEA95E1F7461B570B48175907BA
:1016900034F481E090E09093790180937801409157
:1016A0007601552747FD5095429FC001439F900DFD
:1016B000529F900D11242091780130917901821769
:1016C000930714F0289801C0289AFF91EF919F91F9
:1016D0008F917F916F915F914F913F912F910F90DB
:1016E0000FBE0F901F90189581E01D9B80E008951C
:1016F0006F927F928F929F92AF92BF92CF92DF9222
:10170000EF92FF920F931F93CF93DF935C01842E90
:10171000C42EDD2487E290E0C89EE001C99ED00D72
:10172000D89ED00D1124CA0DDB1DC601880F991F4C
:101730008C0D9D1D8C0108591E4FE62EF72EBBE621
:101740006B2EB1E07B2E680E791E992493948985C7
:10175000882309F44EC08885882339F1F701608118
:10176000718182819381288139814A815B810E94C4
:10177000CC0D87FF02C0F8011082688179818A81CF
:101780009B812C813D814E815F810E94680D9B0170
:10179000AC01F70160817181828193810E94160FF3
:1017A00018164CF5F801908226C0688179818A81EB
:1017B0009B812C813D814E815F810E94670D9B0141
:1017C000AC01F70160817181828193810E94CC0D0F
:1017D00087FF02C0F8019082F701608171818281E8
:1017E0009381288139814A815B810E94160F1816E6
:1017F00014F4F80110822D960F5F1F4F84E090E0E3
:10180000E80EF91E0615170509F0A1CF882021F171
:10181000F601EE0FFF1FEC0DFD1DE859FE4F818113
:101820009081892B9281892B61F025B181E090E034
:1018300002C0880F991FCA94E2F78095822385B968
:1018400054C025B181E090E002C0880F991FCA946E
:10185000E2F7282B25B949C0C0917401D0917501D8
:10186000F5018185882369F48689882351F483A151
:10187000882339F410927501109274011092760148
:1018800034C00E94740B282F30E04DE050E0249FBC
:10189000C001259F900D349F900D1124F501E80F94
:1018A000F91F41854423E9F028593E4FF901208171
:1018B0002223B9F00A968A0D9B1D9093750180939F
:1018C0007401209791F480915C01882339F4809110
:1018D000760190917701891B8093760110925C01CB
:1018E00004C01092750110927401DF91CF911F9185
:1018F0000F91FF90EF90DF90CF90BF90AF909F90AF
:101900008F907F906F900895CF93DF93EC010E94AA
:10191000740B90E02DE030E0829FF001839FF00D8A
:10192000929FF00D1124EC0FFD1F838580937601AB
:1019300084858093770181E080935C01DF91CF9172
:1019400008951F93CF93DF93EC01162F8DE0489FEE
:10195000C001112427E2629F90011124820F931F7E
:101960009C01205030408C0F9D1FB9014DE050E08C
:101970000E94CD0F112319F4CE010E94840CDF9137
:10198000CF911F9108951F93CF93DF93EC0110E047
:10199000CE01612F40E00E94A10CCE01612F41E0F9
:1019A0000E94A10CCE01612F42E00E94A10C1F5F9A
:1019B000143071F7DF91CF911F9108951F93CF934A
:1019C000DF93EC01162F8DE0489FC001112427E220
:1019D000629F90011124820F931F9C012050304080
:1019E0008C0F9D1FB9014DE050E00E94DD0F1123C7
:1019F00019F4CE010E94840CDF91CF911F910895BC
:101A00002F923F925F926F927F928F929F92AF92AE
:101A1000BF92CF92DF92EF92FF920F931F93DF93CB
:101A2000CF9300D0CDB7DEB75C01982F092F1B2DC7
:101A300020E00F2EF0E0CF2EF0E0DF2EF4EAEF2EC4
:101A4000F1E4FF2EF02D0F2EF0E06F2EF0E07F2E50
:101A5000F0E88F2EFFE39F2EF02D5524539420C0E5
:101A6000F101C082D182E282F38264827582868231
:101A7000978250861186C501622F432F29833A83AE
:101A80000E94DE0C3A813F5F8DE090E0280E391E07
:101A90002981333029F72F5F095D1F4F243019F05A
:101AA000180130E0DDCF0F900F90CF91DF911F91A3
:101AB0000F91FF90EF90DF90CF90BF90AF909F90ED
:101AC0008F907F906F905F903F902F900895505827
:101AD000BB27AA270ED070C161D130F066D120F0AB
:101AE00031F49F3F11F41EF456C10EF4E095E7FB6C
:101AF0004CC1E92F72D180F3BA17620773078407CC
:101B0000950718F071F49EF58AC10EF4E0950B2E3E
:101B1000BA2FA02D0B01B90190010C01CA01A0013F
:101B20001124FF27591B99F0593F50F4503E68F19A
:101B30001A16F040A22F232F342F4427585FF3CFDB
:101B4000469537952795A795F0405395C9F77EF4AC
:101B50001F16BA0B620B730B840BBAF09150A1F0F5
:101B6000FF0FBB1F661F771F881FC2F70EC0BA0F7B
:101B7000621F731F841F48F4879577956795B79503
:101B8000F7959E3F08F0B3CF9395880F08F09927FB
:101B9000EE0F979587950895D4D008F481E00895C5
:101BA0000CD00AC102D140F0F9D030F021F45F3FEF
:101BB00019F0EBC0511134C1EEC00FD198F3992345
:101BC000C9F35523B1F3951B550BBB27AA27621701
:101BD0007307840738F09F5F5F4F220F331F441F46
:101BE000AA1FA9F333D00E2E3AF0E0E830D091507E
:101BF0005040E695001CCAF729D0FE2F27D0660F6B
:101C0000771F881FBB1F261737074807AB07B0E8A9
:101C100009F0BB0B802DBF01FF2793585F4F2AF0BF
:101C20009E3F510568F0B1C0FBC05F3FECF3983EAA
:101C3000DCF3869577956795B795F7959F5FC9F71C
:101C4000880F911D9695879597F90895E1E0660FA5
:101C5000771F881FBB1F621773078407BA0720F01E
:101C6000621B730B840BBA0BEE1F88F7E095089587
:101C7000BCD088F09F5790F0B92F9927B751A0F0AA
:101C8000D1F0660F771F881F991F1AF0BA95C9F710
:101C900012C0B13081F0C3D0B1E00895C0C0672F49
:101CA000782F8827B85F39F0B93FCCF386957795C0
:101CB0006795B395D9F73EF49095809570956195A9
:101CC0007F4F8F4F9F4F0895E89409C097FB3EF4D4
:101CD00090958095709561957F4F8F4F9F4F992379
:101CE000A9F0F92F96E9BB279395F69587957795F7
:101CF0006795B795F111F8CFFAF4BB0F11F460FFB7
:101D00001BC06F5F7F4F8F4F9F4F16C0882311F00E
:101D100096E911C0772321F09EE8872F762F05C022
:101D2000662371F096E8862F70E060E02AF09A95BD
:101D3000660F771F881FDAF7880F9695879597F9B2
:101D40000895990F0008550FAA0BE0E8FEEF16164C
:101D50001706E807F907C0F012161306E407F5079F
:101D600098F0621B730B840B950B39F40A2661F013
:101D7000232B242B252B21F408950A2609F4A140B6
:101D8000A6958FEF811D811D089597F99F6780E8C3
:101D900070E060E008959FEF80EC089500240A94BD
:101DA0001616170618060906089500240A94121636
:101DB0001306140605060895092E0394000C11F469
:101DC000882352F0BB0F40F4BF2B11F460FF04C016
:101DD0006F5F7F4F8F4F9F4F089557FD9058440F6F
:101DE000551F59F05F3F71F04795880F97FB991F7A
:101DF00061F09F3F79F08795089512161306140637
:101E0000551FF2CF4695F1DF08C0161617061806C3
:101E1000991FF1CF86957105610508940895E8949E
:101E2000BB2766277727CB0197F908958ADF08F447
:101E30008FEF08950BD0C0CFB1DF28F0B6DF18F0D8
:101E4000952309F0A2CFA7CF1124EACFC6DFA0F3D4
:101E5000959FD1F3950F50E0551F629FF001729F3F
:101E6000BB27F00DB11D639FAA27F00DB11DAA1F5E
:101E7000649F6627B00DA11D661F829F2227B00DAB
:101E8000A11D621F739FB00DA11D621F839FA00D36
:101E9000611D221F749F3327A00D611D231F849F86
:101EA000600D211D822F762F6A2F11249F575040DD
:101EB0008AF0E1F088234AF0EE0FFF1FBB1F661F78
:101EC000771F881F91505040A9F79E3F510570F031
:101ED0005CCFA6CF5F3FECF3983EDCF38695779519
:101EE0006795B795F795E7959F5FC1F7FE2B880F2C
:101EF000911D9695879597F90895AA1BBB1B51E1F3
:101F000007C0AA1FBB1FA617B70710F0A61BB70B69
:101F1000881F991F5A95A9F780959095BC01CD010E
:101F2000089597FB092E07260AD077FD04D0E5DF38
:101F300006D000201AF4709561957F4F0895F6F74A
:101F4000909581959F4F0895A1E21A2EAA1BBB1B65
:101F5000FD010DC0AA1FBB1FEE1FFF1FA217B30775
:101F6000E407F50720F0A21BB30BE40BF50B661F8B
:101F7000771F881F991F1A9469F76095709580954F
:101F800090959B01AC01BD01CF010895DC0101C01A
:101F90006D9341505040E0F70895DC01CB01FC0106
:101FA000F999FECF06C0F2BDE1BDF89A319600B4B2
:101FB0000D9241505040B8F70895DC01A40FB51FB1
:101FC0004150504048F0CB01840F951F2E910E9444
:101FD000EE0F41505040D0F70895262FF999FECFCB
:101FE00092BD81BDF89A019700B4021639F01FBA6C
:101FF00020BD0FB6F894FA9AF99A0FBE0895F89496
:02200000FFCF10
:1020020052455345543F3F3F3F3F004E6F00596595
:1020120073003E0054656D70310054656D7032007E
:1020220054656D7033002A00434F4C4400484541CB
:1020320054004F6E004F6666002F005365743100E6
:1020420052656C6179310052656C6179320052657A
:0E2052006C6179330052656C617934000100D5
:00000001FF
