:100000000C9434000C9451000C9451000C94510049
:100010000C9451000C9451000C9451000C9451001C
:100020000C9451000C9451000C9451000C9451000C
:100030000C9451000C94740A0C9451000C945100CF
:100040000C9451000C9451000C9451000C945100EC
:100050000C9451000C9451000C9451000C945100DC
:100060000C9451000C94510011241FBECFEFD4E02A
:10007000DEBFCDBF11E0A0E0B1E0E2E0FEE102C0F2
:1000800005900D92AA35B107D9F712E0AAE5B1E0C3
:1000900001C01D92A434B107E1F70E942A0A0C9412
:1000A000FF0E0C94000097B121E030E002C0220F57
:1000B000331F8A95E2F7922B97B988B12095822356
:1000C00088B98FEC97E00197F1F700C0000087B185
:1000D000822387B987E191E00197F1F700C0000022
:1000E00086B18FE896E00197F1F700C0000081E04B
:1000F00090E0089521E030E002C0220F331F8A957E
:10010000E2F7322F309588E090E060FF14C047B1ED
:10011000422B47B948B1432348B94AE14A95F1F720
:1001200000C047B1432347B9EBEDF0E03197F1F759
:1001300000C000000FC047B1422B47B948B143236C
:1001400048B9EFEEF0E03197F1F700C0000047B199
:10015000432347B9019711F06695D7CF08951F93B0
:10016000182F0E9453000097B9F08FE99FE0019784
:10017000F1F700C00000812F6CEC0E947A00812F03
:1001800064E40E947A008FEF93EDA0E381509040E9
:10019000A040E1F700C000001F91089597B121E051
:1001A00030E0082E02C0220F331F0A94E2F7922B90
:1001B00097B998B12095922398B995E09A95F1F75F
:1001C000000097B1922397B9E5E3EA95F1F70000B3
:1001D00026B1E7ECF0E03197F1F700C0000030E025
:1001E00002C0359527958A95E2F7822F8170089590
:1001F0000F931F93CF93DF93082FC8E0D0E010E058
:10020000802F0E94CE008795882787951695182BFA
:100210002197B1F7812FDF91CF911F910F91089511
:10022000FF920F931F93182F0E945300009751F1D4
:10023000812F6CEC0E947A00812F6EEB0E947A0075
:10024000812F0E94F800082F812F0E94F800F82EBD
:10025000812F0E94F800812F0E94F800812F0E94B8
:10026000F800812F0E94F800812F0E94F800812F52
:100270000E94F800812F0E94F8003F2D20E0200FFF
:10028000311D02C020E030E0C9011F910F91FF90A5
:100290000895AF92BF92CF92DF92EF92FF920F93A9
:1002A0001F93CF93DF930E9410019C0197FF0EC014
:1002B000309521953F4F0F2EF0E0EF2EF0E0FF2E0E
:1002C000F0E80F2FFFEB1F2FF02D0AC00F2EF0E0EC
:1002D000EF2EF0E0FF2EF0E80F2FFFE31F2FF02DA1
:1002E000B9016F70707041E752E0649FC001659F73
:1002F000900D749F900D112468EE73E00E94910E92
:10030000EB0141E0843F94070CF0219684E03695A0
:1003100027958A95E1F72F773070B90180E090E05A
:100320000E94640D5B016C01BE01882777FD8095FA
:10033000982F0E94660D20E030E040E251E40E94D8
:10034000D00C9B01AC01C601B5010E94680CA8014C
:1003500097010E941A0EDF91CF911F910F91FF908C
:10036000EF90DF90CF90BF90AF9008955E989BB1D3
:10037000907F9BB92BB1982F92959F70922B9BB930
:100380005D9AEFE9FFE03197F1F700C000005D985A
:10039000EFEBFDE53197F1F700C000009BB1907FD6
:1003A0009BB99BB18F70892B8BB95D9A8FE99FE0C8
:1003B0000197F1F700C000005D9808955F9A0E94D0
:1003C000B60108955F980E94B6018FEB9DE50197F5
:1003D000F1F700C000000895803118F0805190ECD2
:1003E00001C090E8890F0E94E201089581E00E9417
:1003F000E20108958FEF8AB91BB88FEF96E7A1E06D
:1004000081509040A040E1F700C000005F985E98E6
:100410008BB1807F8BB98BB183608BB9AFE1BEE4C8
:100420001197F1F700C000008BB1807F8BB98BB1C1
:1004300083608BB987EE93E00197F1F700C000006D
:100440008BB1807F8BB98BB183608BB9AFE1BEE498
:100450001197F1F700C000008BB1807F8BB9599ADA
:100460005D9A8FEB9DE50197F1F700C000005D9864
:1004700088E20E94E20188E00E94E20181E00E949D
:10048000E20186E00E94E2018CE00E94E201089510
:10049000EF92FF92CF93DF93E82EE7017E01F92ED2
:1004A000E70102C00E94DE0189918823D9F7DF911C
:1004B000CF91FF90EF90089584E791E060E270E0C3
:1004C00040E250E00E94C60E10925A010895CF9368
:1004D000DF9380E00E94EC01C4E7D1E089910E94A3
:1004E000DE0181E0C438D807C9F780E10E94EC0141
:1004F00089910E94DE0181E0C439D807C9F7DF91F4
:10050000CF910895282F392FD9010AC090915A010F
:10051000E92FF0E0EC58FE4F80839F5F90935A01E3
:100520008D91882399F7089580935A0108950F9328
:100530001F93DF93CF9300D000D000D0CDB7DEB7AC
:10054000009761F480915A01E82FF0E0EC58FE4FDB
:1005500090E390838F5F80935A0136C097FF0EC05F
:1005600020915A01E22FF0E0EC58FE4F3DE230833B
:100570002F5F20935A01909581959F4FFE013196F0
:1005800020E030E00AE010E0B8010E94910E819373
:100590002F5F3F4FCB010097B9F760915A01CE0111
:1005A0000196FC01E20FF31F462F08C0A42FB0E014
:1005B000AC58BE4F5291505D5C934F5FE817F907FE
:1005C000A9F7260F20935A0126960FB6F894DEBF9E
:1005D0000FBECDBFCF91DF911F910F910895EF9284
:1005E000FF920F931F937B018C0120E030E0A90163
:1005F0000E94CC0C90915A0187FF0EC0E92FF0E0C9
:10060000EC58FE4F8DE280839F5F90935A0117FB59
:10061000109517F9109509C0E92FF0E0EC58FE4F3E
:100620008BE280839F5F90935A01C801B7010E94BB
:10063000380DDC01CB010E94970280915A01E82F0E
:10064000F0E0EC58FE4F9EE290838F5F80935A015A
:10065000C801B70120E030E040E251E40E941A0EE8
:100660000E94380DCB016AE070E00E947D0E0E946E
:1006700097021F910F91FF90EF900895833011F42E
:1006800086E0089584E008950E94F60110925B01CF
:1006900010925C0110925F01109260011092610152
:1006A0001092620178940895F8949EE190935B0112
:1006B00080935C0110925F011092600110926101C1
:1006C0001092620108959AE090935B0180935D011E
:1006D00060935C0110925F011092600110926101C1
:1006E00010926201089594E190935B0110925C0175
:1006F00080935D0160935E0110925F011092600132
:10070000109261011092620110923F0210923E021B
:10071000089588E280935B0110925C0110925F0162
:1007200010926001109261011092620110923F02DA
:1007300010923E020895EF92FF920F931F93CF9372
:10074000DF93E0905F01F0906001009161011091F2
:100750006201C801B70124EF31E040E050E00E949F
:10076000A40E611571058105910571F00894E11CD5
:10077000F11C011D111DE0925F01F09260010093D8
:100780006101109362019DC085E00E94AF0084E08A
:100790000E94AF0083E00E94AF0085E00E94490103
:1007A00060939A0170939B0180939C0190939D01AB
:1007B00084E00E94490160939E0170939F018093A1
:1007C000A0019093A10183E00E9449016093A201DE
:1007D0007093A3018093A4019093A5018EEA91E008
:1007E0006AE971E040E00E94CB0A8EEA91E06AE992
:1007F00071E041E00E94CB0A8EEA91E06AE971E083
:1008000042E00E94CB0A8EEA91E06AE971E043E09F
:100810000E94CB0A0E945C0280E00E9494026091D8
:100820009A0170919B0180919C0190919D010E9481
:10083000EF0288E00E94940260919E0170919F01F6
:100840008091A0019091A1010E94EF0280E10E949D
:1008500094026091A2017091A3018091A4019091F2
:10086000A5010E94EF0288E10E949402C0E0D0E05E
:1008700083B190E00C2E02C0959587950A94E2F71B
:1008800080FF03C080E091E002C082E091E00E941E
:1008900082022196C330D10559F70E94670281E098
:1008A00090E0A0E0B0E080935F0190936001A0939E
:1008B0006101B09362018FE891E00197F1F700C008
:1008C0000000DF91CF911F910F91FF90EF9008955D
:1008D000EF92FF920F931F93E0905F01F090600101
:1008E0000091610110916201C801B70120EE3EE262
:1008F00040E050E00E94A40E61157105810591054C
:1009000071F00894E11CF11C011D111DE0925F01C2
:10091000F0926001009361011093620135C00E9462
:100920005C0281E00E94940284E091E00E948202D5
:1009300081E10E9494028FE091E00E94820289E1AD
:100940000E94940282E191E00E94820280915C0107
:10095000882319F0813031F402C080E101C088E1C0
:100960000E94940286E191E00E9482020E94670246
:1009700081E090E0A0E0B0E080935F01909360019F
:10098000A0936101B09362011F910F91FF90EF90CE
:100990000895EF92FF920F931F93E0905F01F09004
:1009A00060010091610110916201C801B70120EE60
:1009B0003EE240E050E00E94A40E61157105810501
:1009C000910571F00894E11CF11C011D111DE092CC
:1009D0005F01F0926001009361011093620181C098
:1009E0000E945C0281E00E94940288E191E00E94F2
:1009F000820289E00E9494028EE191E00E948202CC
:100A000081E10E94940284E291E00E94820280913E
:100A10005C01813039F0813018F0823041F404C03B
:100A200080E003C088E001C080E10E94940286E17A
:100A300091E00E94820220915D0130E084E290E02A
:100A4000289FF001299FF00D389FF00D1124E255E9
:100A5000FE4F8185882339F086E00E9494028AE265
:100A600091E00E94820220915D0130E084E290E0FA
:100A7000289FF001299FF00D389FF00D1124E255B9
:100A8000FE4F8589882339F08EE00E9494028AE225
:100A900091E00E94820220915D0130E084E290E0CA
:100AA000289FF001299FF00D389FF00D1124E25589
:100AB000FE4F81A1882339F086E10E9494028AE2E8
:100AC00091E00E9482020E94670281E090E0A0E033
:100AD000B0E080935F0190936001A0936101B093B7
:100AE00062011F910F91FF90EF900895EF92FF9296
:100AF0000F931F93E0905F01F090600100916101FE
:100B000010916201C801B70124EF31E040E050E0EC
:100B10000E94A40E611571058105910571F008947C
:100B2000E11CF11C011D111DE0925F01F0926001BA
:100B30000093610110936201D8C090915E018CE036
:100B4000989FC001112430915D0124E2329F9001F1
:100B50001124820F931F82559E4F9093950180938D
:100B6000940181E090916301911180E08093630191
:100B70000E945C0290913F0280916301943008F0E2
:100B80005BC0882321F480913E02813069F081E0CE
:100B90000E949402E0919401F0919501608171812D
:100BA000828193810E94EF0280916301882321F466
:100BB00080913E02823069F089E00E949402E091C7
:100BC0009401F091950164817581868197810E94DD
:100BD000EF0280916301882321F480913E028330EB
:100BE00089F081E10E949402E0919401F0919501D5
:100BF0008085882319F08CE291E002C08FE291E0B9
:100C00000E94820280916301882321F480913E0238
:100C10008430F1F189E10E949402E0919401F09115
:100C200095018185882319F084E391E002C087E370
:100C300091E00E9482022CC0882321F480913E0220
:100C4000853059F081E00E949402E0919401F09186
:100C50009501828590E00E9497028091630188232C
:100C600021F480913E02863099F089E00E9494023E
:100C7000E0919401F0919501838590E00E949702A4
:100C80008BE391E00E9482028EE190E00E94970245
:100C900080913F02823071F0833028F4882371F014
:100CA000813089F40DC0843049F0843028F08530DB
:100CB00051F406C080E105C088E103C080E001C0B6
:100CC00088E00E94940286E191E00E9482020E94E4
:100CD000670281E090E0A0E0B0E080935F01909334
:100CE0006001A0936101B09362011F910F91FF9089
:100CF000EF900895EF92FF920F931F93E0905F01A2
:100D0000F09060010091610110916201C801B7018A
:100D100020EE3EE240E050E00E94A40E6115710515
:100D20008105910571F00894E11CF11C011D111D54
:100D3000E0925F01F0926001009361011093620103
:100D400044C00E945C0281E00E9494028DE391E025
:100D50000E94820289E00E94940284E491E00E9451
:100D6000820281E10E9494028BE491E00E9482025F
:100D700089E10E94940282E591E00E9482028091C2
:100D80005C01813049F0813028F0823039F08330C5
:100D900051F406C080E005C088E003C080E101C0D6
:100DA00088E10E94940286E191E00E9482020E9402
:100DB000670281E090E0A0E0B0E080935F01909353
:100DC0006001A0936101B09362011F910F91FF90A8
:100DD000EF900895CF93DF9380915B01843129F1E7
:100DE000853120F48A3009F09FC012C08E3121F085
:100DF000883209F099C006C080915C01882379F49B
:100E000084E00BC080915C01882349F482E005C036
:100E100080915C01882319F483E080935C018091C8
:100E20005C01815080935C017FC080913E028823E9
:100E300099F480913F02882349F480915D018330C9
:100E400011F486E001C084E080933F0280913F026C
:100E5000815080933F0214C0813091F4C09194017D
:100E6000D0919501688179818A819B812DEC3CEC40
:100E70004CEC5DE30E94670C688379838A839B83D3
:100E800080913E02823099F4C0919401D0919501F5
:100E90006C817D818E819F812DEC3CEC4CEC5DE37F
:100EA0000E94670C6C837D838E839F833DC083305B
:100EB00051F4E0919401F091950181E090859111B8
:100EC00080E0808731C0843051F4E0919401F0914A
:100ED000950181E09185911180E0818725C0853061
:100EE00089F4E0919401F091950182858150828787
:100EF000882311F48EE1828782858F31A8F081E00A
:100F0000828712C0863081F4E0919401F0919501BE
:100F1000838581508387882311F48EE183878385BD
:100F20008F3110F081E0838710925F011092600191
:100F30001092610110926201DF91CF910895CF93D9
:100F4000DF9380915B018431D1F08E3121F08A30C2
:100F500009F092C009C080915C018F5F80935C01B1
:100F6000843009F089C008C080915C018F5F809354
:100F70005C01833009F080C010925C017DC08091DB
:100F80003E02882389F480913F028F5F80933F0265
:100F900090915D01933011F496E001C094E08917BF
:100FA000B9F410923F0214C0813091F4C0919401C1
:100FB000D0919501688179818A819B812DEC3CECEF
:100FC0004CEC5DE30E94680C688379838A839B8381
:100FD00080913E02823099F4C0919401D0919501A4
:100FE0006C817D818E819F812DEC3CEC4CEC5DE32E
:100FF0000E94680C6C837D838E839F833DC0833009
:1010000051F4E0919401F091950181E09085911166
:1010100080E0808731C0843051F4E0919401F091F8
:10102000950181E09185911180E0818725C085300F
:1010300089F4E0919401F091950182858F5F828718
:10104000882311F48EE1828782858F31A8F081E0B8
:10105000828712C0863081F4E0919401F09195016D
:1010600083858F5F8387882311F48EE1838783854F
:101070008F3110F081E0838710925F011092600140
:101080001092610110926201DF91CF9108958091D9
:101090005B018431F1F0853118F48A3071F505C0B7
:1010A0008E3189F0883249F507C080915D016091E9
:1010B0005C010E94730308958EEA91E00E94FA0B8E
:1010C0000E944403089580915C0160E00E946303E4
:1010D000089580913E02882331F480913F028F5F12
:1010E00080933E02089510923E028EEA91E0609154
:1010F0005D0140915E010E94E60B0895CF93DF935E
:1011000080915B018A3019F08431D9F505C0809156
:101110005D010E94540335C080913E02882339F45A
:1011200080915D0160915E010E9463032AC081305D
:1011300091F4C0919401D0919501688179818A815F
:101140009B8120E030E040EA50E40E94670C688315
:1011500079838A839B8380913E02823091F4C0918F
:101160009401D09195016C817D818E819F8120E0D9
:1011700030E040EA50E40E94670C6C837D838E83EC
:101180009F83DF91CF910895CF93DF9380915B018F
:10119000882319F0843181F503C00E9489032CC093
:1011A00080913E02813091F4C0919401D0919501DB
:1011B000688179818A819B8120E030E040EA50E4B7
:1011C0000E94680C688379838A839B8380913E02A6
:1011D000823091F4C0919401D09195016C817D8110
:1011E0008E819F8120E030E040EA50E40E94680C4C
:1011F0006C837D838E839F83DF91CF91089580914F
:101200005B01882319F40E94540302C00E94440326
:1012100010925F01109260011092610110926201C0
:1012200008951092960110929701109298011092D1
:1012300099011092A6011092A7011092A801109294
:10124000A9011092AA011092AB011092AC01109268
:10125000AD0138983A983998409A429A419A08953F
:10126000309915C08091960190919701A0919801B5
:10127000B0919901B7FD0BC00196A11DB11D8093DE
:10128000960190939701A0939801B0939901329998
:1012900015C08091A6019091A701A091A801B091DD
:1012A000A901B7FD0BC00196A11DB11D8093A60138
:1012B0009093A701A093A801B093A901319915C0FB
:1012C0008091AA019091AB01A091AC01B091AD01C8
:1012D000B7FD0BC00196A11DB11D8093AA0190938B
:1012E000AB01A093AC01B093AD01809196019091B8
:1012F0009701A0919801B0919901893E23E092074E
:1013000020E0A20720E0B2076CF00E947E088FEF79
:101310009FEFDC018093960190939701A093980131
:10132000B09399018091A6019091A701A091A80185
:10133000B091A901893E23E0920720E0A20720E0B6
:10134000B2076CF00E94C4088FEF9FEFDC0180931E
:10135000A6019093A701A093A801B093A901809141
:10136000AA019091AB01A091AC01B091AD01893E71
:1013700023E0920720E0A20720E0B2076CF00E9471
:10138000FF088FEF9FEFDC018093AA019093AB01E0
:10139000A093AC01B093AD01309B1DC0809196012C
:1013A00090919701A0919801B09199010197A1099D
:1013B000B109873E23E0920720E0A20720E0B207B0
:1013C00010F40E94EA061092960110929701109272
:1013D000980110929901329B1DC08091A6019091B5
:1013E000A701A091A801B091A9010197A109B10994
:1013F000873E23E0920720E0A20720E0B20710F426
:101400000E949F071092A6011092A7011092A801B6
:101410001092A901319B1DC08091AA019091AB014E
:10142000A091AC01B091AD010197A109B109873E2E
:1014300023E0920720E0A20720E0B20710F40E9408
:1014400047081092AA011092AB011092AC011092C1
:10145000AD0108950E94FA010E9411098EEA91E0FF
:101460000E94CB0B0E945E0A5C9A0E94F6010E94C9
:1014700030098FE99FE00197F1F700C000008091EB
:101480005B01843191F0853128F4882341F08A3062
:1014900071F708C08E3161F0883249F70CC00E94A4
:1014A0009B03E5CF0E94C904E2CF0E947605DFCFFF
:1014B0000E947A06DCCF0E946804D9CF209A219A34
:1014C000229A239A289829982A982B98F89410926F
:1014D0008000E1E8F0E0108281E080936F0080817D
:1014E00083608083789408951F920F920FB60F92B5
:1014F00011242F933F934F935F936F937F938F9319
:101500009F93EF93FF93E0917001F09171013097F9
:1015100099F18091720190917301019690937301FA
:1015200080937201228530E0B901660F771FA9010F
:10153000689414F8440F551F1694E1F7461B570B97
:101540008417950731F481E090E0909373018093C4
:101550007201438550E0429FC001439F900D529F0E
:10156000900D11242091720130917301821793071D
:1015700014F02B9A01C02B98FF91EF919F918F91BE
:101580007F916F915F914F913F912F910F900FBE7F
:101590000F901F9018956F927F928F929F92AF92AB
:1015A000BF92CF92DF92EF92FF920F931F93CF9350
:1015B000DF935C01942EC42EDD2484E290E0C89E6B
:1015C000E001C99ED00DD89ED00D1124CA0DDB1D9F
:1015D000C601880F991F8C0D9D1D8C010C591E4F43
:1015E000E62EF72E67E6662E61E0762E680E791EEF
:1015F000882483948985882309F448C088858823B2
:1016000009F1688179818A819B812C813D814E819C
:101610005F810E94670C9B01AC01F70160817181C1
:10162000828193810E94CC0C87FF02C0F801108256
:10163000F7016081718182819381288139814A819A
:101640005B8120C0F7016081718182819381288153
:1016500039814A815B810E94CC0C87FF02C0F8016E
:101660008082688179818A819B812C813D814E8134
:101670005F810E94680C9B01AC01F7016081718160
:10168000828193810E94160E181614F4F8011082BC
:101690002C960F5F1F4F84E090E0E80EF91E0615B0
:1016A000170509F0A7CF992D933021F1F601EE0F20
:1016B000FF1FEC0DFD1DEC59FE4F81819081892BA0
:1016C0009281892B59F025B181E090E002C0880F0A
:1016D000991FCA94E2F7282B25B93AC025B181E0B9
:1016E00090E002C0880F991FCA94E2F78095822388
:1016F00085B92EC0F501E459FF4F8185882359F43F
:101700008589882341F481A1882329F410927101ED
:10171000109270011DC080E09CE0899FF0011124AF
:10172000E459FF4FEA0DFB1D2185222371F0A82FFC
:10173000B0E0AC59BE4F19962C911997222329F08D
:10174000F0937101E093700103C08F5F833029F73C
:10175000DF91CF911F910F91FF90EF90DF90CF908D
:10176000BF90AF909F908F907F906F9008952CE0E6
:10177000429FA001112424E2629FB0011124460F70
:10178000571FBA0160507040840F951F4CE050E025
:101790000E94CD0E08951F93CF93DF93EC0110E0CC
:1017A000CE01612F40E00E94B70BCE01612F41E0D6
:1017B0000E94B70BCE01612F42E00E94B70B1F5F62
:1017C000143071F7DF91CF911F9108952CE0429F63
:1017D000A001112424E2629FB0011124460F571F7B
:1017E000BA0160507040840F951F4CE050E00E9499
:1017F000DD0E08952F923F924F925F926F927F92EB
:101800008F929F92AF92BF92CF92DF92EF92FF9210
:101810000F931F93DF93CF9300D0CDB7DEB75C015A
:10182000982F092F1B2D20E00F2EF0E0CF2EF0E097
:10183000DF2EF4EAEF2EF1E4FF2EF02D0F2EF0E074
:101840006F2EF0E07F2EF0E88F2EFFE39F2EF02D1D
:10185000552453948EE1482E22C0F101C082D182DA
:10186000E282F38264827582868297821086118674
:1018700052864386C501622F432F29833A830E94F3
:10188000E60B3A813F5F8CE090E0280E391E2981FB
:10189000333019F72F5F0C5D1F4F243019F01801FA
:1018A00030E0DBCF0F900F90CF91DF911F910F9120
:1018B000FF90EF90DF90CF90BF90AF909F908F9070
:1018C0007F906F905F904F903F902F900895505869
:1018D000BB27AA270ED070C161D130F066D120F0AD
:1018E00031F49F3F11F41EF456C10EF4E095E7FB6E
:1018F0004CC1E92F72D180F3BA17620773078407CE
:10190000950718F071F49EF58AC10EF4E0950B2E40
:10191000BA2FA02D0B01B90190010C01CA01A00141
:101920001124FF27591B99F0593F50F4503E68F19C
:101930001A16F040A22F232F342F4427585FF3CFDD
:10194000469537952795A795F0405395C9F77EF4AE
:101950001F16BA0B620B730B840BBAF09150A1F0F7
:10196000FF0FBB1F661F771F881FC2F70EC0BA0F7D
:10197000621F731F841F48F4879577956795B79505
:10198000F7959E3F08F0B3CF9395880F08F09927FD
:10199000EE0F979587950895D4D008F481E00895C7
:1019A0000CD00AC102D140F0F9D030F021F45F3FF1
:1019B00019F0EBC0511134C1EEC00FD198F3992347
:1019C000C9F35523B1F3951B550BBB27AA27621703
:1019D0007307840738F09F5F5F4F220F331F441F48
:1019E000AA1FA9F333D00E2E3AF0E0E830D0915080
:1019F0005040E695001CCAF729D0FE2F27D0660F6D
:101A0000771F881FBB1F261737074807AB07B0E8AB
:101A100009F0BB0B802DBF01FF2793585F4F2AF0C1
:101A20009E3F510568F0B1C0FBC05F3FECF3983EAC
:101A3000DCF3869577956795B795F7959F5FC9F71E
:101A4000880F911D9695879597F90895E1E0660FA7
:101A5000771F881FBB1F621773078407BA0720F020
:101A6000621B730B840BBA0BEE1F88F7E095089589
:101A7000BCD088F09F5790F0B92F9927B751A0F0AC
:101A8000D1F0660F771F881F991F1AF0BA95C9F712
:101A900012C0B13081F0C3D0B1E00895C0C0672F4B
:101AA000782F8827B85F39F0B93FCCF386957795C2
:101AB0006795B395D9F73EF49095809570956195AB
:101AC0007F4F8F4F9F4F0895E89409C097FB3EF4D6
:101AD00090958095709561957F4F8F4F9F4F99237B
:101AE000A9F0F92F96E9BB279395F69587957795F9
:101AF0006795B795F111F8CFFAF4BB0F11F460FFB9
:101B00001BC06F5F7F4F8F4F9F4F16C0882311F010
:101B100096E911C0772321F09EE8872F762F05C024
:101B2000662371F096E8862F70E060E02AF09A95BF
:101B3000660F771F881FDAF7880F9695879597F9B4
:101B40000895990F0008550FAA0BE0E8FEEF16164E
:101B50001706E807F907C0F012161306E407F507A1
:101B600098F0621B730B840B950B39F40A2661F015
:101B7000232B242B252B21F408950A2609F4A140B8
:101B8000A6958FEF811D811D089597F99F6780E8C5
:101B900070E060E008959FEF80EC089500240A94BF
:101BA0001616170618060906089500240A94121638
:101BB0001306140605060895092E0394000C11F46B
:101BC000882352F0BB0F40F4BF2B11F460FF04C018
:101BD0006F5F7F4F8F4F9F4F089557FD9058440F71
:101BE000551F59F05F3F71F04795880F97FB991F7C
:101BF00061F09F3F79F08795089512161306140639
:101C0000551FF2CF4695F1DF08C0161617061806C5
:101C1000991FF1CF86957105610508940895E894A0
:101C2000BB2766277727CB0197F908958ADF08F449
:101C30008FEF08950BD0C0CFB1DF28F0B6DF18F0DA
:101C4000952309F0A2CFA7CF1124EACFC6DFA0F3D6
:101C5000959FD1F3950F50E0551F629FF001729F41
:101C6000BB27F00DB11D639FAA27F00DB11DAA1F60
:101C7000649F6627B00DA11D661F829F2227B00DAD
:101C8000A11D621F739FB00DA11D621F839FA00D38
:101C9000611D221F749F3327A00D611D231F849F88
:101CA000600D211D822F762F6A2F11249F575040DF
:101CB0008AF0E1F088234AF0EE0FFF1FBB1F661F7A
:101CC000771F881F91505040A9F79E3F510570F033
:101CD0005CCFA6CF5F3FECF3983EDCF3869577951B
:101CE0006795B795F795E7959F5FC1F7FE2B880F2E
:101CF000911D9695879597F90895AA1BBB1B51E1F5
:101D000007C0AA1FBB1FA617B70710F0A61BB70B6B
:101D1000881F991F5A95A9F780959095BC01CD0110
:101D2000089597FB092E07260AD077FD04D0E5DF3A
:101D300006D000201AF4709561957F4F0895F6F74C
:101D4000909581959F4F0895A1E21A2EAA1BBB1B67
:101D5000FD010DC0AA1FBB1FEE1FFF1FA217B30777
:101D6000E407F50720F0A21BB30BE40BF50B661F8D
:101D7000771F881F991F1A9469F760957095809551
:101D800090959B01AC01BD01CF010895DC0101C01C
:101D90006D9341505040E0F70895DC01CB01FC0108
:101DA000F999FECF06C0F2BDE1BDF89A319600B4B4
:101DB0000D9241505040B8F70895DC01A40FB51FB3
:101DC0004150504048F0CB01840F951F2E910E9446
:101DD000EE0E41505040D0F70895262FF999FECFCE
:101DE00092BD81BDF89A019700B4021639F01FBA6E
:101DF00020BD0FB6F894FA9AF99A0FBE0895F89498
:021E0000FFCF12
:101E02003100300052455345543F3F3F3F3F004E63
:101E12006F00596573003E0054656D703100546562
:101E22006D70320054656D7033002A0055500044C5
:101E32004F574E004F6E004F6666002F0052656C82
:101E42006179310052656C6179320052656C617959
:0A1E5200330052656C617934000022
:00000001FF
