:100000000C9434000C9451000C9451000C94510049
:100010000C9451000C9451000C9451000C9451001C
:100020000C9451000C9451000C9451000C9451000C
:100030000C9451000C9451000C9451000C945100FC
:100040000C9451000C9451000C9451000C945100EC
:100050000C9451000C9451000C9451000C945100DC
:100060000C9451000C94510011241FBECFEFD4E02A
:10007000DEBFCDBF11E0A0E0B1E0E0EFF7E102C0EC
:1000800005900D92A234B107D9F711E0A2E4B1E0D6
:1000900001C01D92A83FB107E1F70E94E6080C9449
:1000A000F60B0C94000097B121E030E002C0220F63
:1000B000331F8A95E2F7922B97B988B12095822356
:1000C00088B98FEC97E00197F1F700C0000087B185
:1000D000282327B987E191E00197F1F700C00000DC
:1000E00086B18FE896E00197F1F700C0000081E04B
:1000F00090E0089521E030E002C0220F331F8A957E
:10010000E2F7822F809540E050E060FF14C097B185
:10011000922B97B998B1982398B99AE19A95F1F7EB
:1001200000C097B1982397B9EBEDF0E03197F1F764
:1001300000C000000FC097B1922B97B998B19823D7
:1001400098B9EFEEF0E03197F1F700C0000097B1F9
:10015000982397B94F5F5F4F4830510511F066956E
:10016000D4CF08951F93182F0E9453000097B9F021
:100170008FE99FE00197F1F700C00000812F6CEC40
:100180000E947A00812F64E40E947A008FEF93ED41
:10019000A0E381509040A040E1F700C000001F9113
:1001A000089597B141E050E0082E02C0440F551F5A
:1001B0000A94E2F7942B97B998B14095942398B993
:1001C00095E09A95F1F7000097B1492347B9E5E327
:1001D000EA95F1F7000026B1E7ECF0E03197F1F78E
:1001E00000C0000030E002C0359527958A95E2F7FF
:1001F00081E020FF80E008950F931F93CF93DF935A
:10020000082FC8E0D0E010E0802F0E94D100879531
:10021000882787951695182B2197B1F7812FDF91A5
:10022000CF911F910F910895FF920F931F93F82E76
:100230000E945300009751F18F2D6CEC0E947A00C0
:100240008F2D6EEB0E947A008F2D0E94FC00182FDC
:100250008F2D0E94FC00082F8F2D0E94FC008F2DF7
:100260000E94FC008F2D0E94FC008F2D0E94FC003C
:100270008F2D0E94FC008F2D0E94FC008F2D0E946C
:10028000FC00302F20E0210F311D02C020E030E0C3
:10029000822F932F1F910F91FF900895AF92BF92DD
:1002A000CF92DF92EF92FF920F931F93CF93DF9342
:1002B0000E9414019C01992374F4309521953F4FBD
:1002C0000F2EF0E0AF2EF0E0BF2EF0E8CF2EFFEBC8
:1002D000DF2EF02D0AC00F2EF0E0AF2EF0E0BF2E83
:1002E000F0E8CF2EFFE3DF2EF02DB9016F707070B4
:1002F00041E752E0649FC001659F900D749F900D8F
:10030000112468EE73E00E94880BEB0141E0843F0A
:1003100094070CF02196329522952F7023273F7079
:1003200023272F773070B90180E090E00E945F0AA8
:100330007B018C01BE01882777FD8095982F0E9454
:10034000610A20E030E040E251E40E94CB099B01C9
:10035000AC01C801B7010E946309A60195010E9482
:10036000110BDF91CF911F910F91FF90EF90DF90D4
:10037000CF90BF90AF9008955E989BB1907F9BB94E
:100380009BB1282F22952F70922B9BB95D9AEFE994
:10039000FFE03197F1F700C000005D98EFEBFDE55D
:1003A0003197F1F700C000009BB1907F9BB99BB1E2
:1003B0008F70892B8BB95D9A8FE99FE00197F1F7D8
:1003C00000C000005D9808955F9A0E94BC010895E6
:1003D0005F980E94BC018FEB9DE50197F1F700C08B
:1003E00000000895803118F0805190EC01C090E831
:1003F000890F0E94E801089581E00E94E8010895B4
:100400008FEF8AB91BB88FEF96E7A1E0815090403B
:10041000A040E1F700C000005F985E988BB1807F3C
:100420008BB98BB183608BB9AFE1BEE41197F1F763
:1004300000C000008BB1807F8BB98BB183608BB91A
:1004400087EE93E00197F1F700C000008BB1807F49
:100450008BB98BB183608BB9AFE1BEE41197F1F733
:1004600000C000008BB1807F8BB9599A5D9A8FEBE9
:100470009DE50197F1F700C000005D9888E20E94B9
:10048000E80188E00E94E80181E00E94E80186E03E
:100490000E94E8018CE00E94E8010895CF93DF9369
:1004A000EC018881882331F021960E94E401899132
:1004B0008823D9F7DF91CF9108958CE491E060E231
:1004C00070E048E250E00E94BD0B10924201089596
:1004D000EF92FF920F931F93CF93DF9380E00E94E0
:1004E000F2010CE411E07801E8016096F8018191D5
:1004F0008F010E94E4010C171D07C1F780E10E94E3
:10050000F2010CE511E0E701A096F80181918F015D
:100510000E94E4010C171D07C1F7DF91CF911F91D5
:100520000F91FF90EF900895FC012081222379F034
:1005300031968CE491E030914201DC01A30FB11DB2
:100540002C933F5F3093420121912223A1F708951C
:100550008093420108950F931F93DF93CF9300D0B0
:1005600000D000D0CDB7DEB7009761F48091420192
:10057000ECE4F1E0E80FF11D90E390838F5F80934E
:10058000420140C0992374F420914201ECE4F1E06F
:10059000E20FF11D3DE230832F5F209342019095E1
:1005A00081959F4F181619066CF5FE01319620E0D3
:1005B00030E00AE010E0B8010E94880B81932F5FC1
:1005C0003F4F862F972F18161906ACF3C9010197D4
:1005D000CAF060914201722FCE010196FC01E20F38
:1005E000F31F9C01462F8CE491E0DC01A40FB11DA8
:1005F0005291505D5C934F5FE217F307B1F7670FBD
:100600006093420126960FB6F894DEBF0FBECDBFB1
:10061000CF91DF911F910F910895EF92FF920F9369
:100620001F937B018C0120E030E0A9010E94C709E3
:10063000882384F480914201ECE4F1E0E80FF11D9D
:100640009DE290838F5F8093420117FB109517F90D
:1006500010950BC080914201ECE4F1E0E80FF11D30
:100660009BE290838F5F80934201C801B7010E9493
:10067000330ADC01CB010E94AB0280914201ECE421
:10068000F1E0E80FF11D9EE290838F5F80934201BD
:10069000C801B70120E030E040E251E40E94110BB4
:1006A0000E94330ACB016AE070E00E94740B0E9442
:1006B000AB021F910F91FF90EF9008956F927F9280
:1006C0008F929F92AF92BF92CF92DF92EF92FF9262
:1006D0000F931F93CF93DF93E0904701F090480171
:1006E0000091490110914A01C801B70124EF31E09E
:1006F00040E050E00E949B0B61157105810591055A
:1007000071F00894E11CF11C011D111DE0924701DC
:10071000F09248010093490110934A0157C085E0C7
:100720000E94B20084E00E94B20083E00E94B20006
:1007300085E00E944E017B018C0184E00E944E0105
:100740005B016C0183E00E944E013B014C01CAE752
:10075000D1E0CE01B801A70120E00E941E09CE0120
:10076000B601A50121E00E941E09CE01B401A3013A
:1007700022E00E941E090E945D0280E00E94A80201
:10078000C801B7010E940D0388E00E94A802C601BB
:10079000B5010E940D0380E10E94A802C401B301CB
:1007A0000E940D030E94680281E090E0A0E0B0E0AA
:1007B0008093470190934801A0934901B0934A0167
:1007C0008FE891E00197F1F700C00000DF91CF9131
:1007D0001F910F91FF90EF90DF90CF90BF90AF905F
:1007E0009F908F907F906F900895EF92FF920F935C
:1007F0001F93E0904701F09048010091490110914A
:100800004A01C801B70120EE3EE240E050E00E94FC
:100810009B0B611571058105910571F00894E11C30
:10082000F11C011D111DE0924701F0924801009357
:10083000490110934A0197C00E945D0281E00E9425
:10084000A80280E091E00E94940289E00E94A80240
:1008500086E091E00E94940281E10E94A8028CE06F
:1008600091E00E94940280914401813049F08130EE
:1008700018F0823061F408C080E00E94A80207C02E
:1008800088E00E94A80203C080E10E94A80282E1E1
:1008900091E00E9494028091450190E09C01220F1A
:1008A000331F820F931FFC01EE0FFF1FEE0FFF1F80
:1008B0008E0F9F1FFC01EE0FFF1FE658FE4F818534
:1008C000882339F086E00E94A80284E191E00E942A
:1008D00094028091450190E09C01220F331F820F0A
:1008E000931FFC01EE0FFF1FEE0FFF1F8E0F9F1FC8
:1008F000FC01EE0FFF1FE658FE4F8389882339F075
:100900008EE00E94A80284E191E00E94940280910E
:10091000450190E09C01220F331F820F931FFC01C1
:10092000EE0FFF1FEE0FFF1F8E0F9F1FFC01EE0F3C
:10093000FF1FE658FE4F858D882339F086E10E941F
:10094000A80284E191E00E9494020E94680281E082
:1009500090E0A0E0B0E08093470190934801A0931D
:100960004901B0934A011F910F91FF90EF900895B4
:10097000EF92FF920F931F93E0904701F090480190
:100980000091490110914A01C801B70124EF31E0FB
:1009900040E050E00E949B0B6115710581059105B7
:1009A00071F00894E11CF11C011D111DE09247013A
:1009B000F09248010093490110934A01A9C0209187
:1009C00046018AE0289F90011124909145018EE113
:1009D000989FC0011124820F931F86589E4F9093B9
:1009E0006D0180936C0181E090914B01911180E049
:1009F00080934B010E945D0280914B01882321F47A
:100A00008091F2018130A9F081E00E94A802E0917A
:100A10006C01F0916D0160817181828193810E94EE
:100A20000D0380914B01882321F48091F2018230E3
:100A3000A9F089E00E94A802E0916C01F0916D019B
:100A400064817581868197810E940D0380914B019D
:100A5000882321F48091F2018330D9F081E10E9452
:100A6000A802E0916C01F0916D018085882329F046
:100A700086E191E00E94940204C089E191E00E9425
:100A8000940280914B01882321F48091F2018430FB
:100A900099F089E10E94A802E0916C01F0916D014A
:100AA0008185882329F08EE191E00E94940204C0A0
:100AB00081E291E00E9494028091F301813059F02B
:100AC000813028F0823059F0833081F40CC080E00E
:100AD0000E94A8020BC088E00E94A80207C080E123
:100AE0000E94A80203C088E10E94A80282E191E06E
:100AF0000E9494020E94680281E090E0A0E0B0E0D1
:100B00008093470190934801A0934901B0934A0113
:100B10001F910F91FF90EF900895EF92FF920F9326
:100B20001F93E0904701F090480100914901109116
:100B30004A01C801B70120EE3EE240E050E00E94C9
:100B40009B0B611571058105910571F00894E11CFD
:100B5000F11C011D111DE0924701F0924801009324
:100B6000490110934A014AC00E945D0281E00E943F
:100B7000A80285E291E00E94940289E00E94A80206
:100B80008CE291E00E94940281E10E94A80283E33A
:100B900091E00E94940289E10E94A8028AE391E018
:100BA0000E94940280914401813059F0813028F0F4
:100BB000823059F0833081F40CC080E00E94A8029A
:100BC0000BC088E00E94A80207C080E10E94A80232
:100BD00003C088E10E94A80282E191E00E94940291
:100BE0000E94680281E090E0A0E0B0E080934701BD
:100BF00090934801A0934901B0934A011F910F912E
:100C0000FF90EF900895CF93DF938091430184315B
:100C100001F18E3121F08A3009F06EC00DC0809153
:100C20004401882319F484E08093440180914401B5
:100C300081508093440160C080914401882319F45D
:100C400083E080934401809144018150809344016A
:100C500053C08091F201882369F48091F3018823C5
:100C600019F484E08093F3018091F3018150809323
:100C7000F30114C0813091F4C0916C01D0916D01E9
:100C8000688179818A819B812DEC3CEC4CEC5DE3A1
:100C90000E946209688379838A839B838091F20131
:100CA000823099F4C0916C01D0916D016C817D818D
:100CB0008E819F812DEC3CEC4CEC5DE30E9462093F
:100CC0006C837D838E839F8317C0833051F4E091C2
:100CD0006C01F0916D0181E09085911180E0808739
:100CE0000BC0843049F4E0916C01F0916D0181E01A
:100CF0009185911180E081871092470110924801FF
:100D00001092490110924A01DF91CF910895CF933B
:100D1000DF93809143018431E1F08E3121F08A30FC
:100D200009F068C00BC0809144018F5F809344013B
:100D3000843009F05FC0109244015CC0809144018E
:100D40008F5F80934401833009F054C010924401B6
:100D500051C08091F201882349F48091F3018F5FA3
:100D60008093F301843011F41092F3018091F20129
:100D7000813091F4C0916C01D0916D0168817981CD
:100D80008A819B812DEC3CEC4CEC5DE30E94630975
:100D9000688379838A839B838091F201823099F4FE
:100DA000C0916C01D0916D016C817D818E819F819C
:100DB0002DEC3CEC4CEC5DE30E9463096C837D837D
:100DC0008E839F8317C0833051F4E0916C01F091C2
:100DD0006D0181E09085911180E080870BC08430A7
:100DE00049F4E0916C01F0916D0181E091859111E0
:100DF00080E08187109247011092480110924901CA
:100E000010924A01DF91CF9108958091430184317E
:100E100051F18E31B1F08A30D1F584E180934301F4
:100E2000809144018093460110924701109248013D
:100E30001092490110924A011092F3011092F201AE
:100E400008958AE080934301809144018093450195
:100E500010924401109247011092480110924901EA
:100E600010924A0108958091F201882331F4809113
:100E7000F3018F5F8093F20108951092F2018AE7E7
:100E800091E060914501409146010E944E0908950C
:100E9000CF93DF9380914301843161F58091F2011A
:100EA000813091F4C0916C01D0916D01688179819C
:100EB0008A819B8120E030E040EA50E40E94620990
:100EC000688379838A839B838091F201823091F4D5
:100ED000C0916C01D0916D016C817D818E819F816B
:100EE00020E030E040EA50E40E9462096C837D8398
:100EF0008E839F83DF91CF910895CF93DF9380916D
:100F00004301843161F58091F201813091F4C09107
:100F10006C01D0916D01688179818A819B8120E08B
:100F200030E040EA50E40E946309688379838A8351
:100F30009B838091F201823091F4C0916C01D09139
:100F40006D016C817D818E819F8120E030E040EADF
:100F500050E40E9463096C837D838E839F83DF91BD
:100F6000CF91089580914301882331F48EE18093DD
:100F700043011092440102C01092430110924701B4
:100F8000109248011092490110924A01089510925E
:100F90006E0110926F011092700110927101109207
:100FA00072011092730110927401109275011092E7
:100FB0007601109277011092780110927901389899
:100FC0003A983998409A429A419A0895309915C0B2
:100FD00080916E0190916F01A0917001B0917101AB
:100FE000BB235CF00196A11DB11D80936E0190930F
:100FF0006F01A0937001B0937101329915C0809177
:10100000720190917301A0917401B0917501BB239D
:101010005CF00196A11DB11D809372019093730144
:10102000A0937401B0937501319915C08091760138
:1010300090917701A0917801B0917901BB235CF088
:101040000196A11DB11D8093760190937701A09325
:101050007801B093790180916E0190916F01A09118
:101060007001B0917101893E23E0920720E0A20750
:1010700020E0B2077CF0BB2314F00E9448078FEFFA
:101080009FEFDC0180936E0190936F01A09370013C
:10109000B09371018091720190917301A0917401DC
:1010A000B0917501893E23E0920720E0A20720E07D
:1010B000B2077CF0BB2314F00E947D078FEF9FEFF7
:1010C000DC018093720190937301A0937401B0933B
:1010D00075018091760190917701A0917801B0918E
:1010E0007901893E23E0920720E0A20720E0B207C1
:1010F0007CF0BB2314F00E94B2078FEF9FEFDC015E
:101100008093760190937701A0937801B093790151
:10111000309B1DC080916E0190916F01A091700174
:10112000B09171010197A109B109873E23E09207AF
:1011300020E0A20720E0B20710F40E9403061092FC
:101140006E0110926F011092700110927101329B2A
:101150001DC08091720190917301A0917401B091B2
:1011600075010197A109B109873E23E0920720E0AC
:10117000A20720E0B20710F40E94870610927201C5
:10118000109273011092740110927501319B1DC071
:101190008091760190917701A0917801B0917901C9
:1011A0000197A109B109873E23E0920720E0A20739
:1011B00020E0B20710F40E94050710927601109209
:1011C0007701109278011092790108950E9400022F
:1011D0000E94C7078AE791E00E9433090E9415091F
:1011E0005C9A0E94FC010E94E6078FE99FE001974C
:1011F000F1F700C00000809143018A3069F08B3024
:1012000018F4882331F0EFCF843149F08E3159F74B
:1012100009C00E945E03E7CF0E94F503E4CF0E945D
:10122000B804E1CF0E948D05DECF209A219A229A40
:10123000239A289829982A982B98089508952AE0A7
:10124000429FA00111242EE1629FB0011124460F9C
:10125000571FBA0160507040840F951F4AE050E05C
:101260000E94C40B08951F93CF93DF93EC0110E00D
:10127000CE01612F40E00E941F09CE01612F41E0A5
:101280000E941F09CE01612F42E00E941F091F5FCB
:10129000143071F7DF91CF911F9108952AE0429F9A
:1012A000A00111242EE1629FB0011124460F571FA7
:1012B000BA0160507040840F951F4AE050E00E94D0
:1012C000D40B08955058BB27AA270ED070C161D106
:1012D00030F066D120F031F49F3F11F41EF456C176
:1012E0000EF4E095E7FB4CC1E92F72D180F3BA17F9
:1012F000620773078407950718F071F49EF58AC199
:101300000EF4E0950B2EBA2FA02D0B01B901900120
:101310000C01CA01A0011124FF27591B99F0593F64
:1013200050F4503E68F11A16F040A22F232F342FAC
:101330004427585FF3CF469537952795A795F040FA
:101340005395C9F77EF41F16BA0B620B730B840B0F
:10135000BAF09150A1F0FF0FBB1F661F771F881FC7
:10136000C2F70EC0BA0F621F731F841F48F487951F
:1013700077956795B795F7959E3F08F0B3CF93950E
:10138000880F08F09927EE0F979587950895D4D088
:1013900008F481E008950CD00AC102D140F0F9D0E0
:1013A00030F021F45F3F19F0EBC0511134C1EEC0B1
:1013B0000FD198F39923C9F35523B1F3951B550B1E
:1013C000BB27AA2762177307840738F09F5F5F4F18
:1013D000220F331F441FAA1FA9F333D00E2E3AF059
:1013E000E0E830D091505040E695001CCAF729D073
:1013F000FE2F27D0660F771F881FBB1F26173707C2
:101400004807AB07B0E809F0BB0B802DBF01FF27F1
:1014100093585F4F2AF09E3F510568F0B1C0FBC062
:101420005F3FECF3983EDCF3869577956795B7952B
:10143000F7959F5FC9F7880F911D9695879597F946
:101440000895E1E0660F771F881FBB1F62177307BF
:101450008407BA0720F0621B730B840BBA0BEE1FD4
:1014600088F7E0950895BCD088F09F5790F0B92F89
:101470009927B751A0F0D1F0660F771F881F991FE9
:101480001AF0BA95C9F712C0B13081F0C3D0B1E0FB
:101490000895C0C0672F782F8827B85F39F0B93F0B
:1014A000CCF3869577956795B395D9F73EF49095EB
:1014B0008095709561957F4F8F4F9F4F0895E89469
:1014C00009C097FB3EF490958095709561957F4F8C
:1014D0008F4F9F4F9923A9F0F92F96E9BB2793953A
:1014E000F695879577956795B795F111F8CFFAF44A
:1014F000BB0F11F460FF1BC06F5F7F4F8F4F9F4F7B
:1015000016C0882311F096E911C0772321F09EE8D8
:10151000872F762F05C0662371F096E8862F70E03E
:1015200060E02AF09A95660F771F881FDAF7880F18
:101530009695879597F90895990F0008550FAA0B6E
:10154000E0E8FEEF16161706E807F907C0F01216D6
:101550001306E407F50798F0621B730B840B950BD9
:1015600039F40A2661F0232B242B252B21F408952E
:101570000A2609F4A140A6958FEF811D811D0895CB
:1015800097F99F6780E870E060E008959FEF80EC36
:10159000089500240A9416161706180609060895D9
:1015A00000240A9412161306140605060895092E3F
:1015B0000394000C11F4882352F0BB0F40F4BF2BAE
:1015C00011F460FF04C06F5F7F4F8F4F9F4F0895EE
:1015D00057FD9058440F551F59F05F3F71F04795E4
:1015E000880F97FB991F61F09F3F79F087950895C9
:1015F000121613061406551FF2CF4695F1DF08C0E8
:10160000161617061806991FF1CF86957105610504
:1016100008940895E894BB2766277727CB0197F9AC
:1016200008950BD0C4CFB5DF28F0BADF18F09523AA
:1016300009F0A6CFABCF1124EECFCADFA0F3959F60
:10164000D1F3950F50E0551F629FF001729FBB27A9
:10165000F00DB11D639FAA27F00DB11DAA1F649F55
:101660006627B00DA11D661F829F2227B00DA11D08
:10167000621F739FB00DA11D621F839FA00D611D8E
:10168000221F749F3327A00D611D231F849F600DAF
:10169000211D822F762F6A2F11249F5750408AF0E8
:1016A000E1F088234AF0EE0FFF1FBB1F661F771F74
:1016B000881F91505040A9F79E3F510570F060CFB0
:1016C000AACF5F3FECF3983EDCF38695779567955C
:1016D000B795F795E7959F5FC1F7FE2B880F911D92
:1016E0009695879597F90895AA1BBB1B51E107C0F2
:1016F000AA1FBB1FA617B70710F0A61BB70B881FA2
:10170000991F5A95A9F780959095BC01CD01089530
:1017100097FB092E07260AD077FD04D0E5DF06D017
:1017200000201AF4709561957F4F0895F6F7909513
:1017300081959F4F0895A1E21A2EAA1BBB1BFD01A4
:101740000DC0AA1FBB1FEE1FFF1FA217B307E407A0
:10175000F50720F0A21BB30BE40BF50B661F771FF8
:10176000881F991F1A9469F76095709580959095D8
:101770009B01AC01BD01CF010895DC0101C06D9357
:1017800041505040E0F70895DC01CB01FC01F9998C
:10179000FECF06C0F2BDE1BDF89A319600B40D92BD
:1017A00041505040B8F70895DC01A40FB51F4150D7
:1017B000504048F0CB01840F951F2E910E94E50BFD
:1017C00041505040D0F70895262FF999FECF92BD91
:1017D00081BDF89A019700B4021639F01FBA20BDF6
:1017E0000FB6F894FA9AF99A0FBE0895F894FFCFBD
:1017F00054656D70310054656D70320054656D70C4
:1018000033003E002A00555000444F574E004F6EA3
:10181000004F66660052656C6179310052656C61FB
:1018200079320052656C6179330052656C617934AC
:021830000000B6
:00000001FF
