:1000000012C02CC02BC02AC029C028C027C026C0BF
:1000100025C024C023C022C021C020C01FC01EC0D4
:100020001DC01CC01BC011241FBECFE5D4E0DEBF25
:10003000CDBF11E0A0E6B0E0E2EEFEE102C0059027
:100040000D92A438B107D9F711E0A4E8B1E001C0DE
:100050001D92AB3DB107E1F7FFD341CFD1CF0F9355
:100060001F93809184018A3021F0843109F057C0B8
:100070000DC080918501882319F483E08093850168
:100080008091850181508093850149C08091AC01A8
:10009000882369F48091B601882319F483E0809362
:1000A000B6018091B60181508093B60138C081308D
:1000B000A1F400918C0110918D01F8016081718192
:1000C000828193812DEC3CEC4CEC5DE3CDD8F801C2
:1000D000608371838283938322C08230A1F4009174
:1000E0008C0110918D01F801648175818681978161
:1000F0002DEC3CEC4CEC5DE3B7D8F80164837583E0
:10010000868397830CC0833051F4E0918C01F09189
:100110008D0190E08085882309F491E0908710920A
:1001200086011092870110928801109289011F9117
:100130000F9108950F931F93809184018A3021F0CD
:10014000843109F052C00BC0809185018F5F80938C
:100150008501833009F049C01092850146C0809125
:10016000AC01882351F48091B6018F5F8093B60172
:100170008330D9F51092B60138C08130A1F40091D6
:100180008C0110918D01F8016081718182819381D0
:100190002DEC3CEC4CEC5DE392D8F801608371836C
:1001A0008283938322C08230A1F400918C0110914C
:1001B0008D01F80164817581868197812DEC3CEC7D
:1001C0004CEC5DE37CD8F801648375838683978368
:1001D0000CC0833051F4E0918C01F0918D0190E0DE
:1001E0008085882309F491E090871092860110920F
:1001F000870110928801109289011F910F91089533
:100200000F931F9380918401843169F58091AC0133
:100210008130A1F400918C0110918D01F801608171
:1002200071818281938120E030E040EA50E41CD863
:10023000F801608371838283938315C0823099F4BF
:1002400000918C0110918D01F80164817581868186
:10025000978120E030E040EA50E406D8F80164835A
:100260007583868397831F910F9108950F931F9332
:1002700080918401843169F58091AC018130A1F4D1
:1002800000918C0110918D01F80160817181828152
:10029000938120E030E040EA50E411D8F801608317
:1002A00071838283938315C0823099F400918C010D
:1002B00010918D01F801648175818681978120E01C
:1002C00030E040EA50E4FBD7F8016483758386830D
:1002D00097831F910F91089580918401882331F4B1
:1002E0008AE0809384011092850102C010928401FB
:1002F0001092860110928701109288011092890154
:10030000089510928E0110928F0110929001109218
:10031000910110929B0110929C0110929D011092EC
:100320009E0110929F011092A0011092A1011092C3
:10033000A201A098A298A198A89AAA9AA99A089509
:10034000809184018A3019F0843109F510C084E16C
:100350008093840110928601109287011092880187
:10036000109289011092B6011092AC01089580910B
:10037000AC01882331F48091B6018F5F8093AC018A
:1003800008951092AC01809185018F5F3ED508954C
:10039000989915C080918E0190918F01A091900144
:1003A000B0919101B7FD0BC00196A11DB11D8093C5
:1003B0008E0190938F01A0939001B09391019A992F
:1003C00015C080919B0190919C01A0919D01B091DD
:1003D0009E01B7FD0BC00196A11DB11D80939B012D
:1003E00090939C01A0939D01B0939E01999915C093
:1003F00080919F019091A001A091A101B091A201D3
:10040000B7FD0BC00196A11DB11D80939F01909374
:10041000A001A093A101B093A20180918E019091BF
:100420008F01A0919001B0919101895E9340A0400D
:10043000B0406CF0E5DE8FEF9FEFAFEFBFEF809342
:100440008E0190938F01A0939001B09391018091C0
:100450009B0190919C01A0919D01B0919E01895EAC
:100460009340A040B0406CF001DF8FEF9FEFAFEF03
:10047000BFEF80939B0190939C01A0939D01B0934B
:100480009E0180919F019091A001A091A101B09146
:10049000A201895E9340A040B0406CF01DDF8FEF59
:1004A0009FEFAFEFBFEF80939F019093A001A093C8
:1004B000A101B093A201989B19C080918E019091E7
:1004C0008F01A0919001B09191010197A109B1090B
:1004D000875E9340A040B04008F4C1DD10928E01C9
:1004E00010928F0110929001109291019A9B19C065
:1004F00080919B0190919C01A0919D01B0919E01E2
:100500000197A109B109875E9340A040B04008F46B
:1005100011DE10929B0110929C0110929D0110928D
:100520009E01999B19C080919F019091A001A0917B
:10053000A101B091A2010197A109B109875E934081
:10054000A040B04008F4FCDE10929F011092A00180
:100550001092A1011092A2010895EF92FF920F93C1
:100560001F93E0908601F09087010091880110911F
:100570008901C801B70124EF31E040E050E01FDC01
:10058000611571058105910571F00894E11CF11C5C
:10059000011D111DE0928601F092870100938801F0
:1005A000109389017AC080918501813041F08130BA
:1005B00018F0823069F406C082E991E005C083EA50
:1005C00091E002C08DEA91E090938D0180938C01BF
:1005D00090E080918A01882309F491E090938A0148
:1005E0000AD480918A01882321F48091AC01813062
:1005F00059F081E04AD3E0918C01F0918D01608146
:10060000718182819381ADD380918A01882321F405
:100610008091AC01823059F089E037D3E0918C01B0
:10062000F0918D0164817581868197819AD3809143
:100630008A01882321F48091AC01833079F081E133
:1006400024D3E0918C01F0918D018085882319F0ED
:1006500080E690E002C083E690E006D38091B60188
:10066000813039F0813018F0823039F404C080E0F4
:1006700003C088E001C080E108D388E690E0F4D2AE
:10068000DCD281E090E0A0E0B0E08093860190931E
:100690008701A0938801B09389011F910F91FF906A
:1006A000EF900895EF92FF920F931F93E0908601D1
:1006B000F09087010091880110918901C801B7016C
:1006C00020EE3EE240E050E07ADB611571058105E5
:1006D000910571F00894E11CF11C011D111DE092BF
:1006E0008601F092870100938801109389012FC041
:1006F00082D381E0CAD28AE690E0B6D289E0C5D240
:1007000080E790E0B1D281E1C0D286E790E0ACD240
:1007100080918501813039F0813018F0823039F4D0
:1007200004C080E003C088E001C080E1AED288E66A
:1007300090E09AD282D281E090E0A0E0B0E0809395
:10074000860190938701A0938801B09389011F913E
:100750000F91FF90EF9008956F927F928F929F92EA
:10076000AF92BF92CF92DF92EF92FF920F931F93BF
:10077000E0908601F0908701009188011091890135
:10078000C801B70124EF31E040E050E018DB61150B
:1007900071058105910571F00894E11CF11C011DA2
:1007A000111DE0928601F092870100938801109359
:1007B000890145C085E0C3D084E0C1D083E0BFD0CB
:1007C00085E046D17B018C0184E042D15B016C0164
:1007D00083E03ED13B014C0182E991E0B801A701E1
:1007E00022E057D383EA91E0B601A50121E051D37D
:1007F0008DEA91E0B401A30120E04BD3FCD280E06C
:1008000044D2C801B701ADD288E03FD2C601B501DC
:10081000A8D280E13AD2C401B301A3D20ED281E0C2
:1008200090E0A0E0B0E08093860190938701A093D0
:100830008801B093890180E991E00197F1F71F9158
:100840000F91FF90EF90DF90CF90BF90AF909F906F
:100850008F907F906F900895CF93DF93A1D151DD5A
:100860000AD310D3949A99D1C0EADFE091DDCE018A
:100870000197F1F7809184018A3031F0843131F0B1
:100880008823A1F769DFF2CF0DDFF0CF66DEEECF70
:1008900094B321E030E002C0220F331F8A95E2F7C3
:1008A000922B94BB85B32095822385BB80ED97E086
:1008B0000197F1F784B3282324BB88E191E00197E5
:1008C000F1F783B380E996E00197F1F781E090E0DA
:1008D000089521E030E002C0220F331F8A95E2F72D
:1008E000722F709540E050E0A0EFB0E03AE1ECEDFF
:1008F000F0E060FF10C084B3822B84BB85B38723F4
:1009000085BB832F8A95F1F784B3872384BBCF01FE
:100910000197F1F70CC084B3822B84BB85B3872386
:1009200085BBCD010197F1F784B3872384BB4F5F6B
:100930005F4F4830510511F06695DBCF08951F9346
:10094000182FA6DF892B99F080EA9FE00197F1F735
:10095000812F6CECBEDF812F64E4BBDF80E197E286
:1009600020E931E0F9013197F1F70197D9F71F91AB
:100970000895382F24B381E090E0032E02C0880F41
:10098000991F0A94E2F7282B24BB25B380952823CE
:1009900025BB95E09A95F1F724B3822384BB85E3C8
:1009A0008A95F1F783B3E8ECF0E03197F1F790E046
:1009B00002C0959587953A95E2F7817008950F9357
:1009C0001F93CF93DF93082F10E0C0E0D0E0802F7B
:1009D000D0DF912F9695182F179511271795192B62
:1009E0002196C830D10599F7812FDF91CF911F91C2
:1009F0000F910895FF920F931F93F82E49DF892BD3
:100A000019F420E030E01FC08F2D6CEC62DF8F2DD9
:100A10006EEB5FDF8F2DD3DF082F8F2DD0DF182FE8
:100A20008F2DCDDF8F2DCBDF8F2DC9DF8F2DC7DF32
:100A30008F2DC5DF8F2DC3DF8F2DC1DF912F80E07C
:100A40009C01200F311DC9011F910F91FF90089546
:100A50008F929F92AF92BF92CF92DF92EF92FF92CE
:100A60000F931F93CF93DF93C5DFEC0197FD0BC06E
:100A70000F2EF0E08F2EF0E09F2EF0E8AF2EFFE378
:100A8000BF2EF02D0DC0D095C195DF4F0F2EF0E099
:100A90008F2EF0E09F2EF0E8AF2EFFEBBF2EF02D53
:100AA0009E012F70307081E792E0289FF001299F0E
:100AB000F00D389FF00D1124CF0168EE73E06CD972
:100AC0006B01CF0168EE73E067D9845F91401CF041
:100AD0000894C11CD11C84E0D695C7958A95E1F78E
:100AE000CF77D070BE0180E090E0D8D67B018C013A
:100AF000B601882777FD8095982F25D620E030E035
:100B000040E251E4F8D49B01AC01C801B701D7D34E
:100B1000A5019401FBD3DF91CF911F910F91FF901D
:100B2000EF90DF90CF90BF90AF909F908F900895FF
:100B3000969892B3907F92BB22B3982F92959F7014
:100B4000922B92BB959A20EA3FE0F9013197F1F799
:100B50009598E0ECFDE53197F1F792B3907F92BB69
:100B600092B38F70982B92BB959AC9010197F1F7B8
:100B700095980895979ADCDF08959798D9DF80ECCF
:100B80009DE50197F1F70895803110F490E802C0D7
:100B9000805190EC890FF1DF089581E0EEDF089538
:100BA0008FEF81BB12BA8CE291E020E931E0F901CC
:100BB0003197F1F70197D9F79798969882B3807F8C
:100BC00082BB82B3836082BB20E23EE4C90101970D
:100BD000F1F782B3807F82BB82B3836082BB88EEF1
:100BE00093E00197F1F782B3807F82BB82B3836089
:100BF00082BBC9010197F1F782B3807F82BB919AD2
:100C0000959A80EC9DE50197F1F7959888E2B5DF1C
:100C100088E0B3DF81E0B1DF86E0AFDF8CE0ADDFFD
:100C20000895CF93DF93EC0102C0A4DF2196888161
:100C30008823D9F7DF91CF910895CF93DF9380E098
:100C4000A3DFCBEBD1E0899195DF81E0CB3CD807E6
:100C5000D1F780E199DF89918DDF81E0CB3DD80725
:100C6000D1F7DF91CF910895DC010BC080918B010A
:100C7000E82FF0E0E554FE4F90838F5F80938B0167
:100C800011969C91992391F7089580938B01089573
:100C9000EF92FF920F931F93DF93CF9300D000D07A
:100CA00000D0CDB7DEB79C01009761F480918B0135
:100CB000E82FF0E0E554FE4F90E390838F5F809340
:100CC0008B0142C097FF0EC080918B01E82FF0E0AE
:100CD000E554FE4F9DE290838F5F80938B013095AA
:100CE00021953F4F00E010E07E010894E11CF11CCB
:100CF000F701E00FF11FC9016AE070E04DD8808371
:100D00000F5F1F4FC9016AE070E046D89B01611573
:100D1000710571F720918B0101501040D701A00F90
:100D2000B11F0F5F1F4F922F09C0E92FF0E0E5546C
:100D3000FE4F8C91805D80839F5F1197AC17BD073C
:100D4000A1F7200F20938B0126960FB6F894DEBFF3
:100D50000FBECDBFCF91DF911F910F91FF90EF900C
:100D60000895EF92FF920F931F937B018C0120E077
:100D700030E040E050E0BCD490918B01882374F4C3
:100D8000E92FF0E0E554FE4F8DE280839F5F909362
:100D90008B0117FB109517F9109509C0E92FF0E0AA
:100DA000E554FE4F8BE280839F5F90938B01C801D7
:100DB000B701E8D0DC01CB016BDF90918B01E92F0B
:100DC000F0E0E554FE4F8EE280839F5F90938B01AD
:100DD000C801B70120E030E040E251E497D2D2D020
:100DE000DC01CB016AE070E0C3D752DF1F910F91A5
:100DF000FF90EF9008958BEB91E060E270E048E2A5
:100E000050E036D810928B010895823049F083303B
:100E100079F08130A1F482E991E060E070E004C0F3
:100E200083EA91E069E070E049E050E038D8089545
:100E30008DEA91E062E170E049E050E030D8089539
:100E4000823049F0833079F08130A1F482E991E079
:100E500060E070E004C083EA91E069E070E049E09E
:100E600050E00DD808958DEA91E062E170E049E02C
:100E700050E005D8089581E0E3DF82E0E1DF83E020
:100E8000DFDF0895BA9AB99AB89AC298C198C09803
:100E900008959F92AF92BF92CF92DF92EF92FF920E
:100EA0000F931F93CF93DF93EC015A016B01922EA6
:100EB0008885E880F9800A811B81882361F1C80157
:100EC000B7012C813D814E815F81CED19B01AC0168
:100ED000C601B5010DD4882364F428B381E090E005
:100EE000092C02C0880F991F0A94E2F7809582238B
:100EF00088BBC601B501A8019701A4D31816B4F5A3
:100F000028B381E090E002C0880F991F9A94E2F71D
:100F1000282B28BB2BC0CB01BA01A8019701E8D32D
:100F200088235CF428B381E090E0092C02C0880F8C
:100F3000991F0A94E2F7282B28BBC801B7012C811E
:100F40003D814E815F81BBD19B01AC01C601B501E2
:100F500079D318165CF428B381E090E002C0880FC2
:100F6000991F9A94E2F78095822388BBDF91CF91F5
:100F70001F910F91FF90EF90DF90CF90BF90AF90B7
:100F80009F900895EF92FF920F931F937B018C0126
:100F900020E030E040E05FE480D388237CF0C801AB
:100FA000B70120E030E040E05FE45ED126D49B0151
:100FB000AC01205030404040504805C0C801B70146
:100FC0001CD49B01AC01B901CA011F910F91FF9084
:100FD000EF900895A0E0B0E0EFEEF7E012C7DC017B
:100FE0002B01FA019C91923008F439C1EB01888100
:100FF000823008F433C1943069F4843009F02FC191
:1010000011969C9111978981981709F428C1ACE732
:10101000B0E025C1843009F421C18230A9F49230B6
:1010200009F01DC19A01AD0188E0EA010990AE0105
:10103000E90109929E018150C1F7E201898111966F
:101040009C918923818308C1923009F407C11296CB
:101050002D903C901397EB018A819B811496AD9063
:10106000BD90CD90DC901797EC80FD800E811F81A4
:101070009101281B390BB90137FF04C06627772778
:10108000621B730B603271050CF061C012161306FF
:101090006CF537014801062E04C096948794779426
:1010A00067940A94D2F721E030E040E050E004C0B9
:1010B000220F331F441F551F6A95D2F7215030402D
:1010C000404050402E213F2140235123211531051E
:1010D0004105510521F021E030E040E050E0790188
:1010E0008A01E628F728082919293CC0232BD1F1C9
:1010F000260E371E35014601062E04C096948794AD
:10110000779467940A94D2F721E030E040E050E011
:1011100004C0220F331F441F551F6A95D2F7215078
:101120003040404050402A213B214C215D21211577
:1011300031054105510521F021E030E040E050E06B
:1011400059016A01A628B728C828D9280BC08215DA
:1011500093052CF01C01AA24BB24650103C0EE24D6
:10116000FF24870111969C91D20111968C919817BA
:1011700009F445C0992339F0A80197012A193B09C0
:101180004C095D0906C0A60195012E193F09400BC7
:10119000510B57FD08C0118233822282248335838C
:1011A000468357831DC081E0818333822282882752
:1011B0009927DC01821B930BA40BB50B84839583C9
:1011C000A683B7830DC0220F331F441F551F2483EE
:1011D00035834683578382819381019793838283EA
:1011E0002481358146815781DA01C9010197A1091E
:1011F000B1098F5F9F4FAF4FBF4328F30BC091835F
:1012000033822282EA0CFB1C0C1D1D1DE482F58238
:101210000683178383E0808324813581468157814B
:1012200057FF1AC0C901AA2797FDA095BA2F817050
:101230009070A070B0705695479537952795822B82
:10124000932BA42BB52B84839583A683B7838281AC
:101250009381019693838283DF0101C0D201CD0186
:10126000CDB7DEB7E2E1E9C5A0E2B0E0E9E3F9E03D
:10127000D4C569837A838B839C832D833E834F837C
:101280005887E9E0EE2EF12CEC0EFD1ECE01019602
:10129000B7019DD48E010F5E1F4FCE010596B80198
:1012A00096D48A8991E089278A8BC701B801AE015B
:1012B000475E5F4F8FDEB6D3A096E6E0CAC5A0E2D8
:1012C000B0E0E4E6F9E0A9C569837A838B839C8367
:1012D0002D833E834F835887F9E0EF2EF12CEC0EDF
:1012E000FD1ECE010196B70172D48E010F5E1F4F15
:1012F000CE010596B8016BD4C701B801AE01475EB7
:101300005F4F68DE8FD3A096E6E0A3C5A0E2B0E011
:10131000EBE8F9E076C569837A838B839C832D8320
:101320003E834F835887CE010196BE01675F7F4F92
:101330004ED4CE010596BE016F5E7F4F48D499858D
:10134000923088F089898230C8F0943019F4823064
:1013500051F404C0843029F4923081F48CE790E099
:10136000C6C0923049F420E09A858A89981321E01A
:101370002A87CE010996BBC0823049F420E09A85C5
:101380008A89981321E02A8BCE014196B0C02D8422
:101390003E844F8458886D887E888F88988CEE2490
:1013A000FF248701AA24BB24650140E050E060E0EF
:1013B00070E0E0E0F0E0C10181709070892BE9F00D
:1013C000E60CF71C081D191D9A01AB012A0D3B1DE7
:1013D0004C1D5D1D80E090E0A0E0B0E0E614F70455
:1013E0000805190520F481E090E0A0E0B0E0BA0122
:1013F000A901480F591F6A1F7B1FAA0CBB1CCC1CDC
:10140000DD1C97FE08C081E090E0A0E0B0E0A82AD3
:10141000B92ACA2ADB2A3196E032F10549F0660C76
:10142000771C881C991C5694479437942794C3CFF3
:10143000FA85EA892B893C898B859C85280F391F81
:101440002E5F3F4F17C0CA0181709070892B61F0E9
:1014500016950795F794E79480E090E0A0E0B0E857
:10146000E82AF92A0A2B1B2B7695679557954795FD
:101470002F5F3F4F77FDE7CF0CC0440F551F661F0E
:10148000771F17FD4160EE0CFF1C001F111F21503C
:101490003040403090E0590790E0690790E47907C8
:1014A00060F32B8F3C8FDB01CA018F779070A070A7
:1014B000B07080349105A105B10561F447FD0AC003
:1014C000E114F1040105110529F0405C5F4F6F4FF5
:1014D0007F4F40781A8EFE1711F081E08A8F4D8F72
:1014E0005E8F6F8F78A383E0898FCE0149969AD261
:1014F000A096E2E1A2C4A8E1B0E0E0E8FAE089C485
:1015000069837A838B839C832D833E834F835887A3
:10151000B9E0EB2EF12CEC0EFD1ECE010196B701C9
:1015200056D38E010F5E1F4FCE010596B8014FD3E3
:101530002985223008F47EC03989323010F4B80190
:101540007CC08A859A8989278A87243011F02230C5
:1015500031F4231709F06EC06CE770E06EC03430D0
:1015600039F41D861E861F86188A1C861B8604C0B9
:10157000323021F484E08987B7015FC02B853C8538
:101580008B899C89281B390B3C872B87ED84FE8433
:101590000F851889AD88BE88CF88D88CEA14FB04E3
:1015A0000C051D0540F4EE0CFF1C001F111F2150FF
:1015B00030403C872B8720E030E040E050E080E086
:1015C00090E0A0E0B0E460E070E0EA14FB040C05F9
:1015D0001D0540F0282B392B4A2B5B2BEA18FB0802
:1015E0000C091D09B695A79597958795EE0CFF1CDC
:1015F000001F111F6F5F7F4F6F31710531F7DA01E7
:10160000C9018F779070A070B07080349105A105EA
:10161000B10561F427FD0AC0E114F10401051105CB
:1016200029F0205C3F4F4F4F5F4F20782D873E873A
:101630004F87588BBE01675F7F4FCB01F3D1689610
:10164000EAE003C4A8E1B0E0E7E2FBE0E6C36983B7
:101650007A838B839C832D833E834F83588789E0D5
:10166000E82EF12CEC0EFD1ECE010196B701AFD293
:101670008E010F5E1F4FCE010596B801A8D2898555
:10168000823038F08989823020F0C701B80117D341
:1016900001C08FEF6896E6E0DCC3A8E1B0E0E2E5C8
:1016A000FBE0BBC369837A838B839C832D833E835A
:1016B0004F83588789E0E82EF12CEC0EFD1ECE01F9
:1016C0000196B70184D28E010F5E1F4FCE010596A1
:1016D000B8017DD28985823038F08989823020F046
:1016E000C701B801ECD201C08FEF6896E6E0B1C344
:1016F000A8E1B0E0EDE7FBE090C369837A838B83D8
:101700009C832D833E834F83588789E0E82EF12CFC
:10171000EC0EFD1ECE010196B70159D28E010F5E6F
:101720001F4FCE010596B80152D28985823038F01C
:101730008989823020F0C701B801C1D201C081E09F
:101740006896E6E086C3A8E0B0E0E8EAFBE062C3A2
:101750009B01AC0183E08983DA01C9018827B7FDC9
:1017600083959927AA27BB27B82E21153105410556
:10177000510519F482E0898339C08823A9F020300B
:1017800080E0380780E0480780E8580729F460E0E7
:1017900070E080E09FEC2EC0EE24FF248701E21A67
:1017A000F30A040B150B02C079018A018EE1C82EE1
:1017B000D12CDC82CB82ED82FE820F831887C80198
:1017C000B701E1D001971816190684F4082E04C059
:1017D000EE0CFF1C001F111F0A94D2F7ED82FE824F
:1017E0000F831887C81AD90ADC82CB82BA82CE014D
:1017F000019618D12896E9E029C3ACE0B0E0E2E018
:10180000FCE00FC369837A838B839C83CE010196AE
:10181000BE016B5F7F4FDBD18D81823061F1823001
:1018200050F1843021F48E81882351F12EC02F8114
:10183000388537FD20C06E812F3131051CF06623BD
:10184000F9F023C08EE190E0821B930B29853A8545
:101850004B855C8504C056954795379527958A95A5
:10186000D2F76623B1F050954095309521953F4FC2
:101870004F4F5F4F0EC020E030E040E050E009C025
:101880002FEF3FEF4FEF5FE704C020E030E040E094
:1018900050E8B901CA012C96E2E0DFC2A8E0B0E04E
:1018A000E3E5FCE0B6C27B018C01611571058105A1
:1018B000910519F482E089835FC083E089838EE11A
:1018C000C82ED12CDC82CB82ED82FE820F8318875A
:1018D000C801B70158D0FC013197F7FF3BC0222760
:1018E00033272E1B3F0B57016801022E04C0D694EC
:1018F000C794B794A7940A94D2F740E050E060E010
:1019000070E081E090E0A0E0B0E004C0880F991F93
:10191000AA1FBB1F2A95D2F70197A109B1098E21F1
:101920009F21A023B1230097A105B10521F041E03B
:1019300050E060E070E04A295B296C297D294D83E5
:101940005E836F8378878EE190E08E1B9F0B9C8374
:101950008B8312C0309781F00E2E04C0EE0CFF1C5A
:10196000001F111F0A94D2F7ED82FE820F831887A1
:10197000CE1ADF0ADC82CB821A82CE01019652D0C7
:101980002896EAE062C2EF92FF920F931F937B01C9
:101990008C0180E0E81680E0F80681E0080780E02E
:1019A000180788F48FEFE816F1040105110531F0EE
:1019B00028F088E090E0A0E0B0E017C080E090E080
:1019C000A0E0B0E012C080E0E81680E0F80680E019
:1019D000080781E0180728F088E190E0A0E0B0E077
:1019E00004C080E190E0A0E0B0E020E230E040E020
:1019F00050E0281B390B4A0B5B0B04C0169507956A
:101A0000F794E7948A95D2F7F701EC57FF4F80815E
:101A1000281B310941095109C9011F910F91FF90FC
:101A2000EF900895DF92EF92FF920F931F93FC01C6
:101A3000E480F58006811781D1808081823048F46E
:101A400080E090E0A0E1B0E0E82AF92A0A2B1B2B05
:101A5000A5C0843009F49FC0823021F4EE24FF2415
:101A6000870105C0E114F1040105110519F4E0E056
:101A7000F0E096C0628173819FEF623879070CF0C5
:101A80005BC022E83FEF261B370B2A3131052CF0D3
:101A900020E030E040E050E02AC0B801A701022E6B
:101AA00004C076956795579547950A94D2F781E0DB
:101AB00090E0A0E0B0E004C0880F991FAA1FBB1FF0
:101AC0002A95D2F70197A109B1098E219F21A02360
:101AD000B1230097A105B10521F081E090E0A0E0DD
:101AE000B0E09A01AB01282B392B4A2B5B2BDA0192
:101AF000C9018F779070A070B07080349105A105F6
:101B0000B10539F427FF09C0205C3F4F4F4F5F4FAD
:101B100004C0215C3F4F4F4F5F4FE0E0F0E02030CA
:101B2000A0E03A07A0E04A07A0E45A0710F0E1E07D
:101B3000F0E079018A0127C06038710564F5FB0186
:101B4000E158FF4FD801C7018F779070A070B07037
:101B500080349105A105B10539F4E7FE0DC080E49C
:101B600090E0A0E0B0E004C08FE390E0A0E0B0E03F
:101B7000E80EF91E0A1F1B1F17FF05C016950795D3
:101B8000F794E794319687E016950795F794E794D4
:101B90008A95D1F705C0EE24FF248701EFEFF0E02E
:101BA0006E2F679566276795902F9F77D794DD24D2
:101BB000D7948E2F8695492F462B582F5D29B70134
:101BC000CA011F910F91FF90EF90DF900895FC01E3
:101BD000DB01408151812281622F6F7770E0221FEB
:101BE0002227221F9381892F880F822B282F30E0F4
:101BF000991F9927991F11969C93119721153105CB
:101C0000A9F5411551056105710511F482E037C050
:101C100082E89FEF13969C938E9312979A01AB01E3
:101C200067E0220F331F441F551F6A95D1F783E0E9
:101C30008C930DC0220F331F441F551F12968D9198
:101C40009C911397019713969C938E931297203033
:101C500080E0380780E0480780E4580758F314967E
:101C60002D933D934D935C93179708952F3F310526
:101C700079F4411551056105710519F484E08C93DF
:101C8000089564FF03C081E08C9312C01C9210C0C1
:101C90002F57304013963C932E93129783E08C93EA
:101CA00087E0440F551F661F771F8A95D1F7706430
:101CB00014964D935D936D937C93179708951F939E
:101CC000DC01FB019C91923008F447C08081823096
:101CD00008F443C0943051F411961C91843099F566
:101CE0008181682F70E0611B71093FC0843021F051
:101CF000923031F48230B9F18181882389F12DC08D
:101D000011961C9111978230F1F081811817D9F446
:101D100012962D913C91139782819381821793079C
:101D200094F028173907BCF014968D919D910D9071
:101D3000BC91A02D24813581468157812817390710
:101D40004A075B0718F4112341F00AC08217930772
:101D5000A407B50740F4112319F061E070E005C055
:101D60006FEF7FEF02C060E070E0CB011F9108953C
:101D7000AA1BBB1B51E107C0AA1FBB1FA617B707B1
:101D800010F0A61BB70B881F991F5A95A9F78095CD
:101D90009095BC01CD01089597FB092E07260AD026
:101DA00077FD04D0E5DF06D000201AF47095619528
:101DB0007F4F0895F6F7909581959F4F0895A1E282
:101DC0001A2EAA1BBB1BFD010DC0AA1FBB1FEE1FB5
:101DD000FF1FA217B307E407F50720F0A21BB30B00
:101DE000E40BF50B661F771F881F991F1A9469F77C
:101DF00060957095809590959B01AC01BD01CF01D8
:101E000008952F923F924F925F926F927F928F929E
:101E10009F92AF92BF92CF92DF92EF92FF920F9379
:101E20001F93CF93DF93CDB7DEB7CA1BDB0B0FB683
:101E3000F894DEBF0FBECDBF09942A883988488840
:101E40005F846E847D848C849B84AA84B984C884D6
:101E5000DF80EE80FD800C811B81AA81B981CE0FCD
:101E6000D11D0FB6F894DEBF0FBECDBFED010895B2
:101E7000DC0101C06D9341505040E0F70895DC0152
:101E8000CB01FC01E199FECF06C0FFBBEEBBE09A9F
:101E900031960DB20D9241505040B8F70895DC01D3
:101EA000A40FB51F4150504040F0CB01840F951F47
:101EB0002E9105D041505040D8F70895262FE19932
:101EC000FECF9FBB8EBBE09A01970DB2021631F098
:101ED0002DBB0FB6F894E29AE19A0FBE0895F894DC
:021EE000FFCF32
:101EE200555000444F574E003E0054656D7031000E
:101EF20054656D70320054656D703300000000004F
:101F020000000000000102020303030304040404AE
:101F12000404040405050505050505050505050573
:101F22000505050506060606060606060606060653
:101F3200060606060606060606060606060606063F
:101F42000606060607070707070707070707070723
:101F5200070707070707070707070707070707070F
:101F620007070707070707070707070707070707FF
:101F720007070707070707070707070707070707EF
:101F820007070707080808080808080808080808D3
:101F920008080808080808080808080808080808BF
:101FA20008080808080808080808080808080808AF
:101FB200080808080808080808080808080808089F
:101FC200080808080808080808080808080808088F
:101FD200080808080808080808080808080808087F
:101FE200080808080808080808080808080808086F
:101FF200080808080808080808080808080808085F
:0420020008080808BA
:00000001FF
