:1000000012C02CC02BC02AC029C028C027C026C0BF
:1000100025C024C023C022C021C020C01FC01EC0D4
:100020001DC01CC01BC011241FBECFE5D4E0DEBF25
:10003000CDBF11E0A0E6B0E0E0EBFEE102C005902C
:100040000D92A039B107D9F711E0A0E9B1E001C0E4
:100050001D92AE3DB107E1F7C4D328CFD1CF6F9247
:100060007F928F929F92AF92BF92CF92DF92EF9248
:10007000FF920F931F93E0909201F09093010091F3
:10008000940110919501C801B70120EE3EE240E0D5
:1000900050E07CDE611571058105910571F00894D1
:1000A000E11CF11C011D111DE0929201F0929301DF
:1000B00000939401109395014BC061D580E690E0C8
:1000C000AAD585E005D485E08DD47B018C0184E040
:1000D000FFD384E087D45B016C0185E0F9D385E030
:1000E00081D43B014C018EE991E0B801A70122E0E7
:1000F000BED68CEA91E0B601A50121E0B8D683EB2B
:1001000091E0B401A30120E0B2D698D580E0C9D532
:10011000C801B70120D688E0C4D5C601B5011BD6F9
:1001200080E1BFD5C401B30116D692D581E090E03D
:10013000A0E0B0E08093920190939301A09394018A
:10014000B09395018FE891E00197F1F700C00000AE
:100150001F910F91FF90EF90DF90CF90BF90AF90E5
:100160009F908F907F906F900895EF92FF920F93E2
:100170001F93E0909201F0909301009194011091EF
:100180009501C801B70120EE3EE240E050E0FEDDFF
:10019000611571058105910571F00894E11CF11C50
:1001A000011D111DE0929201F092930100939401C0
:1001B000109395012FC042D581E073D58BE690E076
:1001C0005ED589E06ED581E790E059D581E169D5AA
:1001D00087E790E054D580919101813039F08130EA
:1001E00018F0823039F404C080E003C088E001C018
:1001F00080E157D58DE790E042D52AD581E090E0A7
:10020000A0E0B0E08093920190939301A0939401B9
:10021000B09395011F910F91FF90EF900895EF9289
:10022000FF920F931F93E0909201F0909301009141
:10023000940110919501C801B70124EF31E040E02D
:1002400050E0A4DD611571058105910571F00894F8
:10025000E11CF11C011D111DE0929201F09293012D
:10026000009394011093950177C0809191018130A2
:1002700041F0813018F0823069F406C08EE991E0D7
:1002800005C08CEA91E002C083EB91E09093990164
:100290008093980181E090919601911180E0809384
:1002A0009601CCD480919601882321F48091B201EB
:1002B000813059F081E0F5D4E0919801F0919901F5
:1002C000608171818281938146D5809196018823D6
:1002D00021F48091B201823049F089E0E2D4E091CA
:1002E0009801F0919901848190E0DED4809196018B
:1002F000882321F48091B201833079F081E1D1D457
:10030000E0919801F09199018581882319F08FE798
:1003100090E002C082E890E0B2D48091B9018130CF
:1003200039F0813018F0823039F404C080E003C025
:1003300088E001C080E1B5D48DE790E0A0D488D4F6
:1003400081E090E0A0E0B0E080939201909393016F
:10035000A0939401B09395011F910F91FF90EF909E
:100360000895CF93DF93809190018A3021F08431FA
:1003700009F049C00DC080919101882319F483E0F0
:1003800080939101809191018150809391013BC0B4
:100390008091B201882369F48091B901882319F40E
:1003A00083E08093B9018091B90181508093B901B4
:1003B00013C0813089F4C0919801D091990168816E
:1003C00079818A819B812DEC3CEC4CEC5DE365D717
:1003D000688379838A839B838091B201823041F460
:1003E000E0919801F09199018481815084830BC040
:1003F000833049F4E0919801F091990181E0958171
:10040000911180E0858310929201109293011092D5
:10041000940110929501DF91CF910895CF93DF93CE
:10042000809190018A3021F0843109F043C00AC0E4
:10043000809191018F5F809391018330D9F5109263
:10044000910138C08091B201882351F48091B901A3
:100450008F5F8093B9018330B1F41092B90113C05A
:10046000813089F4C0919801D09199016881798196
:100470008A819B812DEC3CEC4CEC5DE3E7D66883F4
:1004800079838A839B838091B201823041F4E09129
:100490009801F091990184818F5F84830BC0833030
:1004A00049F4E0919801F091990181E095819111D1
:1004B00080E0858310929201109293011092940132
:1004C00010929501DF91CF910895809190018A302B
:1004D00019F0843109F510C084E1809390011092E5
:1004E0009201109293011092940110929501109232
:1004F000B9011092B20108958091B201882331F4BC
:100500008091B9018F5F8093B20108951092B2017A
:10051000809191018F5F89D40895CF93DF9380916B
:1005200090018431A9F48091B201813089F4C091A5
:100530009801D0919901688179818A819B8120E01D
:1005400030E040EA50E4A9D6688379838A839B83AC
:10055000DF91CF910895CF93DF9380919001843103
:10056000A9F48091B201813089F4C0919801D091B1
:100570009901688179818A819B8120E030E040EA9D
:1005800050E464D6688379838A839B83DF91CF911B
:10059000089580919001882331F48AE0809390013E
:1005A0001092910102C0109290011092920110924B
:1005B00093011092940110929501089510929A015E
:1005C00010929B0110929C0110929D011092A40127
:1005D0001092A5011092A6011092A7011092A801F5
:1005E0001092A9011092AA011092AB01A098A298B2
:1005F000A198A89AAA9AA99A0895989915C0809145
:100600009A0190919B01A0919C01B0919D01B7FD31
:100610000BC00196A11DB11D80939A0190939B017F
:10062000A0939C01B0939D019A9915C08091A4015B
:100630009091A501A091A601B091A701B7FD0BC0B3
:100640000196A11DB11D8093A4019093A501A093D3
:10065000A601B093A701999915C08091A801909126
:10066000A901A091AA01B091AB01B7FD0BC0019601
:10067000A11DB11D8093A8019093A901A093AA0187
:10068000B093AB0180919A0190919B01A0919C0144
:10069000B0919D01893E23E0920720E0A20720E06F
:1006A000B20764F03ADF8FEF9FEFDC0180939A018D
:1006B00090939B01A0939C01B0939D018091A40114
:1006C0009091A501A091A601B091A701893E23E0D8
:1006D000920720E0A20720E0B20764F03CDF8FEF32
:1006E0009FEFDC018093A4019093A501A093A60144
:1006F000B093A7018091A8019091A901A091AA01AE
:10070000B091AB01893E23E0920720E0A20720E0F0
:10071000B20764F03EDF8FEF9FEFDC018093A8010A
:100720009093A901A093AA01B093AB01989B1CC020
:1007300080919A0190919B01A0919C01B0919D01A3
:100740000197A109B109873E23E0920720E0A207A3
:1007500020E0B20708F405DE10929A0110929B0186
:1007600010929C0110929D019A9B1CC08091A40143
:100770009091A501A091A601B091A7010197A109AF
:10078000B109873E23E0920720E0A20720E0B207EC
:1007900008F444DE1092A4011092A5011092A60163
:1007A0001092A701999B1CC08091A8019091A9016A
:1007B000A091AA01B091AB010197A109B109873EAF
:1007C00023E0920720E0A20720E0B20708F47DDED4
:1007D0001092A8011092A9011092AA011092AB01E7
:1007E0000895D0D1EBDE1AD33BD3949AC8D105DF5C
:1007F0008FE99FE00197F1F700C000008091900120
:100800008A3031F0843131F0882389F728DCEFCF4A
:10081000ACDCEDCF04DDEBCF94B321E030E002C0DF
:10082000220F331F8A95E2F7922B94BB85B3209554
:10083000822385BB8FEC97E00197F1F700C00000A1
:1008400084B3822384BB87E191E00197F1F700C074
:10085000000083B38FE896E00197F1F700C0000035
:1008600081E090E0089521E030E002C0220F331FC4
:100870008A95E2F7322F309588E090E060FF14C04F
:1008800044B3422B44BB45B3432345BB4AE14A959D
:10089000F1F700C044B3432344BBEBEDF0E03197E4
:1008A000F1F700C000000FC044B3422B44BB45B376
:1008B000432345BBEFEEF0E03197F1F700C00000B5
:1008C00044B3432344BB019711F06695D7CF0895F5
:1008D0001F93182FA1DF0097A9F08FE99FE00197E0
:1008E000F1F700C00000812F6CECBDDF812F64E4C4
:1008F000BADF8FEF93EDA0E381509040A040E1F785
:1009000000C000001F91089594B321E030E0082E4C
:1009100002C0220F331F0A94E2F7922B94BB95B3C7
:100920002095922395BB95E09A95F1F7000094B33A
:10093000922394BBE5E3EA95F1F7000023B3E7ECDB
:10094000F0E03197F1F700C0000030E002C03595CB
:1009500027958A95E2F7822F817008950F931F9350
:10096000CF93DF93082FC8E0D0E010E0802FCCDFDA
:100970008795882787951695182B2197B9F7812F8A
:10098000DF91CF911F910F910895FF920F931F93C5
:10099000182F42DF0097F9F0812F6CEC64DF812F74
:1009A0006EEB61DF812FDADF082F812FD7DFF82E82
:1009B000812FD4DF812FD2DF812FD0DF812FCEDFB7
:1009C000812FCCDF812FCADF812FC8DF3F2D20E0B0
:1009D000200F311D02C020E030E0C9011F910F91AE
:1009E000FF900895AF92BF92CF92DF92EF92FF9265
:1009F0000F931F93CF93DF93C8DF9C0197FF0EC027
:100A0000309521953F4F0F2EF0E0EF2EF0E0FF2EB6
:100A1000F0E80F2FFFEB1F2FF02D0AC00F2EF0E094
:100A2000EF2EF0E0FF2EF0E80F2FFFE31F2FF02D49
:100A3000B9016F70707041E752E0649FC001659F1B
:100A4000900D749F900D112468EE73E08CD9EB012A
:100A500041E0843F94070CF0219684E03695279579
:100A60008A95E1F72F773070B90180E090E00AD7DE
:100A70005B016C01BE01882777FD8095982F57D6C2
:100A800020E030E040E251E428D59B01AC01C601F2
:100A9000B501DCD3A80197012BD4DF91CF911F9131
:100AA0000F91FF90EF90DF90CF90BF90AF9008959F
:100AB0008A3010F4805D0895895C0895979A96981D
:100AC00092B3907F92BB22B3982F92959F70922BF6
:100AD00092BB959AEFE9FFE03197F1F700C0000073
:100AE0009598EFECF7E03197F1F700C0000092B372
:100AF000907F92BB92B38F70892B82BB959A8FE9BE
:100B00009FE00197F1F700C000009598089597982D
:100B1000969892B3907F92BB22B3982F92959F7034
:100B2000922B92BB959AEFE9FFE03197F1F700C065
:100B300000009598EFEBFDE53197F1F700C000005C
:100B400092B3907F92BB92B38F70892B82BB959AA0
:100B50008FE99FE00197F1F700C000009598EFEB57
:100B6000FDE53197F1F700C000000895803118F0DD
:100B7000805198EA01C090E8890FC9DF089581E0AB
:100B8000C6DF08958FEF81BB12BA8FEF96E7A1E021
:100B900081509040A040E1F700C0000097989698DF
:100BA00082B3807F82BB82B3836082BBAFE1BEE44D
:100BB0001197F1F700C0000082B3807F82BB82B33F
:100BC000836082BB87EE93E00197F1F700C00000DD
:100BD00082B3807F82BB82B3836082BBAFE1BEE41D
:100BE0001197F1F700C0000082B3807F82BB919A19
:100BF000959A8FEB9DE50197F1F700C0000095985D
:100C000088E285DF88E083DF81E081DF86E07FDFC7
:100C10008CE07DDF0895EF92FF92CF93DF93E82E73
:100C2000E7017E01F92EE70101C048DF89918823A1
:100C3000E1F7DF91CF91FF90EF9008958EEB91E077
:100C400060E270E048E250E0FAD81092970108950F
:100C5000CF93DF9380E08ADFCEEBD1E089912EDF66
:100C600081E0CE3CD807D1F780E180DF899126DF93
:100C700081E0CE3DD807D1F7DF91CF910895282F9D
:100C8000392FD9010AC090919701E92FF0E0E25481
:100C9000FE4F80839F5F909397018D91882399F7F2
:100CA00008958093970108950F931F93DF93CF9337
:100CB00000D000D000D0CDB7DEB7009761F48091AE
:100CC0009701E82FF0E0E254FE4F90E390838F5FAE
:100CD0008093970135C097FF0EC020919701E22FB6
:100CE000F0E0E254FE4F3DE230832F5F2093970106
:100CF000909581959F4FFE01319620E030E00AE00B
:100D000010E0B80130D881932F5F3F4FCB0100979F
:100D1000C1F760919701CE010196FC01E20FF31F2C
:100D2000462F08C0A42FB0E0A254BE4F5291505D90
:100D30005C934F5FE817F907A9F7260F20939701F7
:100D400026960FB6F894DEBF0FBECDBFCF91DF91D0
:100D50001F910F910895EF92FF920F931F937B01C4
:100D60008C0120E030E0A901B7D49091970187FF72
:100D70000EC0E92FF0E0E254FE4F8DE280839F5FCA
:100D80009093970117FB109517F9109509C0E92F5B
:100D9000F0E0E254FE4F8BE280839F5F90939701D7
:100DA000C801B701E3D0DC01CB017EDF8091970160
:100DB000E82FF0E0E254FE4F9EE290838F5F809335
:100DC0009701C801B70120E030E040E251E490D241
:100DD000CDD0CB016AE070E0B2D766DF1F910F91F2
:100DE000FF90EF900895823049F0833079F08130A0
:100DF000A1F48EE991E060E070E004C08CEA91E03B
:100E000066E070E046E050E021D8089583EB91E081
:100E10006CE070E046E050E019D8089581E0E3DF2F
:100E200082E0E1DF83E0DFDF0895823049F0833044
:100E300079F08130A1F48EE991E060E070E004C0C7
:100E40008CEA91E066E070E046E050E00FD808954B
:100E500083EB91E06CE070E046E050E007D8089545
:100E6000BA9AB99AB89AC298C198C0980895DF9270
:100E7000EF92FF920F931F93CF93DF93EC017A01D0
:100E80008B01D22E8D816C818823A9F170E0882797
:100E900077FD8095982F4BD49B01AC0168817981B7
:100EA0008A819B81FAD19B01AC01C801B70114D49E
:100EB00087FF0CC028B381E090E00D2C02C0880FA2
:100EC000991F0A94E2F78095822388BBC801B70175
:100ED000288139814A815B81A9D318160CF03EC064
:100EE00028B381E090E002C0880F991FDA94E2F7FE
:100EF000282B28BB33C070E0882777FD8095982F7A
:100F000016D49B01AC01688179818A819B81C5D10E
:100F10009B01AC01C801B701DFD387FF0BC028B329
:100F200081E090E00D2C02C0880F991F0A94E2F72F
:100F3000282B28BBC801B701288139814A815B81F0
:100F400075D318165CF428B381E090E002C0880FD6
:100F5000991FDA94E2F78095822388BBDF91CF91C5
:100F60001F910F91FF90EF90DF900895EF92FF9205
:100F70000F931F937B018C0120E030E040E05FE4A1
:100F800080D387FD0FC0C801B70120E030E040E00A
:100F90005FE483D128D49B01AC0120503040404015
:100FA000504805C0C801B7011ED49B01AC01B9016E
:100FB000CA011F910F91FF90EF900895A0E0B0E05B
:100FC000E3EEF7E009C7FC01EA018081823008F412
:100FD00038C1DB019C91923008F430C1843059F45F
:100FE000943009F02EC1918111968C911197981728
:100FF00009F021C126C1943009F420C19230B1F426
:10100000823009F01EC1CA01AF0128E0DA010D905B
:10101000AD01DC010D92CD012150C1F7DB0111962C
:101020008C9111979181892389830AC1823009F4B7
:1010300005C1C280D380DB0112966D907C9013971E
:1010400024813581468157811496ED90FD900D9154
:101050001C911797C601861997095C0197FF04C078
:10106000AA24BB24A81AB90AB0E2AB16B1040CF04A
:1010700061C0181619066CF5370148010A2C04C026
:1010800096948794779467940A94D2F781E090E0DD
:10109000A0E0B0E00A2C04C0880F991FAA1FBB1F54
:1010A0000A94D2F70197A109B1098E219F21A023AB
:1010B000B123EE24FF248701E3940097A105B10535
:1010C00019F4EE24FF248701E628F72808291929B6
:1010D0003CC00097D1F1CA0CDB1C39014A010A2C33
:1010E00004C096948794779467940A94D2F781E029
:1010F00090E0A0E0B0E00A2C04C0880F991FAA1F5E
:10110000BB1F0A94D2F70197A109B1098223932347
:10111000A423B52321E030E040E050E00097A10592
:10112000B10519F420E030E0A90126293729482922
:1011300059290BC06C147D0424F4EE24FF2487018C
:1011400004C0630120E030E0A9018181FB019181AD
:10115000891709F445C0882349F0D801C701821BCB
:10116000930BA40BB50B9C01AD0104C02E193F09D4
:10117000400B510B57FD04C01982DB82CA820BC0A1
:1011800081E08983DB82CA82509540953095219514
:101190003F4F4F4F5F4F2C833D834E835F830DC086
:1011A000880F991FAA1FBB1F8C839D83AE83BF83AB
:1011B0008A819B8101979B838A838C819D81AE81EB
:1011C000BF819C01AD0121503040404050402F3F35
:1011D000EFEF3E07EFEF4E07EFE35E0708F30BC0BC
:1011E0008983DB82CA822E0D3F1D401F511F2C8335
:1011F0003D834E835F8383E088832C813D814E81D4
:101200005F8157FF1DC0DA01C90181709070A07025
:10121000B0705695479537952795822B932BA42B25
:10122000B52B8C839D83AE83BF838A819B8101967E
:101230009B838A8305C0E7E8F0E003C0FB0101C09F
:10124000FE01CF01CDB7DEB7EEE0E2C5A0E2B0E02F
:10125000EBE2F9E0C9C569837A838B839C832D8394
:101260003E834F83588789E0E82EF12CEC0EFD1E5B
:10127000CE010196B701A1D48E010F5E1F4FCE01A2
:101280000596B8019AD4C701B801AE01475E5F4F19
:1012900095DEC6D3A096E6E0C3C5A0E2B0E0E2E5E5
:1012A000F9E0A2C569837A838B839C832D833E8377
:1012B0004F8358878E01075F1F4FCE010196B801FB
:1012C0007CD491E1E92EF12CEC0EFD1ECE010596A9
:1012D000B70173D48A8991E089278A8BC801B70145
:1012E000AE01475E5F4F6ADE9BD3A096E6E098C5ED
:1012F000A0E2B0E0EDE7F9E06BC569837A838B8308
:101300009C832D833E834F835887CE010196BE0177
:10131000675F7F4F52D4CE010596BE016F5E7F4F4F
:101320004CD49985923078F089898230C0F094301D
:1013300019F4823041F4CBC0843019F4923079F43E
:10134000C6C0923051F481E02A859A89291709F4A0
:1013500080E08A87CE010996BCC0823051F481E0DA
:101360002A859A89291709F480E08A8BCE01419653
:10137000B0C06D847E848F849888ED88FE880F8944
:10138000188DE0E2F0E080E090E0DC01AA24BB24CC
:10139000650120E030E0A901B30161707070611552
:1013A0007105D1F02E0D3F1D401F511F1501260163
:1013B000280E391E4A1E5B1E81E090E0A0E0B0E0DE
:1013C0002E153F054007510718F080E090E0DC0142
:1013D000820D931DA41DB51DAA0CBB1CCC1CDD1CCD
:1013E00017FF09C061E0262E312C412C512CA22878
:1013F000B328C428D528319749F0EE0CFF1C001FF4
:10140000111F9694879477946794C6CF6B897C89D3
:10141000EB85FC856E0F7F1F6E5F7F4F7C8F6B8F20
:1014200061E0EA857A89E71709F460E06A8F6B8DDD
:101430007C8D10C0FC01E170F070309729F056955A
:101440004795379527955068B695A79597958795B1
:101450006F5F7F4FB7FDEECF0CC0880F991FAA1F9B
:10146000BB1F57FD8160220F331F441F551F615062
:1014700070408030E0E09E07E0E0AE07E0E4BE07A9
:1014800060F36B8F7C8F6FE7E62EF12C012D112D11
:10149000E822F9220A231B2360E4E616F104010581
:1014A000110561F487FD0AC021153105410551057B
:1014B00029F0805C9F4FAF4FBF4F80788D8F9E8FFC
:1014C000AF8FB8A383E0898FCE01499602C087E829
:1014D00090E0A6D2A096E2E197C4A8E1B0E0E2E7EE
:1014E000FAE07EC469837A838B839C832D833E8359
:1014F0004F8358878E01075F1F4FCE010196B801B9
:101500005CD381E1E82EF12CEC0EFD1ECE01059698
:10151000B70153D39985923008F483C0898982300A
:1015200008F47BC02A853A8923272A87943011F052
:10153000923021F4981709F06CC071C0843039F4EE
:101540001D861E861F86188A1C861B866AC08230EE
:1015500019F484E0898765C08B859C852B893C893B
:10156000821B930B9C878B872D853E854F855889E1
:10157000ED88FE880F89188D2E153F05400751070D
:1015800038F4220F331F441F551F01979C878B8708
:101590006FE170E0A12CB12CC12CA0E4DA2E80E028
:1015A00090E0DC012E153F054007510740F08A29E5
:1015B0009B29AC29BD292E193F09400B510BD6940C
:1015C000C794B794A794220F331F441F551F61502F
:1015D000704041F76FE7E62EF12C012D112DE82226
:1015E000F9220A231B2360E4E616F1040105110524
:1015F00061F487FD0AC0211531054105510529F027
:10160000805C9F4FAF4FBF4F80788D879E87AF879D
:10161000B88B8E01075F1F4F04C0870102C007E827
:1016200010E0C801FDD16896EAE0F6C3A8E1B0E099
:10163000EBE1FBE0D9C369837A838B839C832D83A1
:101640003E834F8358878E01075F1F4FCE0101965F
:10165000B801B3D281E1E82EF12CEC0EFD1ECE01D3
:101660000596B701AAD28985823038F089898230FF
:1016700020F0C801B7010AD301C08FEF6896E6E0F9
:10168000CFC3A8E1B0E0E6E4FBE0AEC369837A83B0
:101690008B839C832D833E834F8358878E01075F06
:1016A0001F4FCE010196B80188D281E1E82EF12CBE
:1016B000EC0EFD1ECE010596B7017FD289858230E2
:1016C00038F08989823020F0C801B701DFD201C02B
:1016D0008FEF6896E6E0A4C3A8E1B0E0E1E7FBE0A5
:1016E00083C369837A838B839C832D833E834F835B
:1016F00058878E01075F1F4FCE010196B8015DD25A
:1017000081E1E82EF12CEC0EFD1ECE010596B7010D
:1017100054D28985823038F08989823020F0C8011E
:10172000B701B4D201C081E06896E6E079C3A8E0D1
:10173000B0E0ECE9FBE058C37B018C0183E08983D6
:10174000D801C7018827B7FD83959927AA27BB270A
:10175000282F8A83E114F1040105110519F482E0B0
:10176000898336C08EE190E09C838B83222389F0AD
:1017700080E0E81680E0F80680E0080780E81807B7
:1017800059F110950095F094E094E11CF11C011DB5
:10179000111DED82FE820F831887C801B701E6D0C4
:1017A0009C01215030401216130694F4022E04C0FE
:1017B000EE0CFF1C001F111F0A94D2F7ED82FE826F
:1017C0000F8318878EE190E0821B930B9C838B83A1
:1017D000CE01019625D104C060E070E080E09FEC6E
:1017E0002896E6E01DC3ACE0B0E0E8EFFBE000C304
:1017F00069837A838B839C83CE010196BE016B5FE4
:101800007F4FDBD18D81823081F1823070F1843065
:1018100021F48E81882369F10AC02F81388537FD34
:1018200024C06E812F3131053CF0662311F120E098
:1018300030E040E050E821C08EE190E0821B930B45
:1018400029853A854B855C8504C056954795379523
:1018500027958A95D2F7662381F05095409530956B
:1018600021953F4F4F4F5F4F08C020E030E0A90166
:1018700004C02FEF3FEF4FEF5FE7B901CA012C968D
:10188000E2E0D2C2A8E0B0E0E7E4FCE0ABC27B015A
:101890008C011A82611571058105910519F482E0A8
:1018A00089835EC083E089838EE1C82ED12CDC82DF
:1018B000CB82ED82FE820F831887C801B70156D014
:1018C000FC013197F7FF3AC0AA27BB27AE1BBF0B1D
:1018D00021E030E040E050E00A2E04C0220F331F28
:1018E000441F551F0A94D2F72150304040405040C9
:1018F0002E213F214023512361E070E080E090E001
:10190000211531054105510519F460E070E0CB0166
:1019100004C016950795F794E794AA95D2F7E62A9E
:10192000F72A082B192BED82FE820F8318878EE190
:1019300090E08E1B9F0B9C838B8312C0309781F0AD
:101940000E2E04C0EE0CFF1C001F111F0A94D2F7CC
:10195000ED82FE820F831887CE1ADF0ADC82CB82EB
:10196000CE0101965DD02896E8E058C2AF92BF92B2
:10197000CF92DF92EF92FF920F931F937B018C0126
:1019800080E0E81680E0F80681E0080780E01807AC
:1019900058F4EFEFEE16F1040105110509F090F48B
:1019A00080E090E0DC0117C0F0E0EF16F0E0FF0609
:1019B000F0E00F07F1E01F0750F480E190E0A0E0B5
:1019C000B0E009C088E090E0A0E0B0E004C088E1A9
:1019D00090E0A0E0B0E020E230E040E050E0281BE2
:1019E000390B4A0B5B0B5701680104C0D694C794AE
:1019F000B794A7948A95D2F7D601C50181579F4F16
:101A0000FC018081281B310941095109C9011F913D
:101A10000F91FF90EF90DF90CF90BF90AF9008951F
:101A2000EF92FF920F931F93CF93DF93FC012481DA
:101A300035814681578161818081823020F4406107
:101A4000EFEFF0E0A3C0843009F49BC0823009F4CA
:101A500092C0211531054105510509F48FC002805E
:101A6000F381E02D8FEFE238F8070CF05AC0C2E89E
:101A7000DFEFCE1BDF0BCA31D1056CF579018A018E
:101A80000C2E04C016950795F794E7940A94D2F7A4
:101A900081E090E0A0E0B0E00C2E04C0880F991F18
:101AA000AA1FBB1F0A94D2F70197A109B10982238B
:101AB0009323A423B52321E030E040E050E00097D9
:101AC000A105B10519F420E030E0A9012E293F2934
:101AD000402B512B03C020E030E0A901DA01C901FD
:101AE0008F779070A070B07080349105A105B1051A
:101AF00039F427FF09C0205C3F4F4F4F5F4F04C0B0
:101B0000215C3F4F4F4F5F4FE1E0F0E0203080E03D
:101B1000380780E0480780E4580728F5E0E0F0E067
:101B200022C0E038F1056CF5E158FF4FDA01C90138
:101B30008F779070A070B07080349105A105B105C9
:101B400039F427FF09C0205C3F4F4F4F5F4F04C05F
:101B5000215C3F4F4F4F5F4F57FF05C0569547954C
:101B600037952795319687E0569547953795279570
:101B70008A95D1F70BC0E0E0F0E005C0E0E0F0E0CE
:101B800005C0EFEFF0E020E030E0A9018E2F87954F
:101B900088278795942F9F77679566276795E695A1
:101BA000E22EA92FA82BFE2FF62B622F732F8A2F40
:101BB0009F2FCDB7DEB7E6E033C1DC01FB012C91EE
:101BC00011963C91119712968C911297482F4F774E
:101BD00050E0982F991F9927991F13966C9113978E
:101BE000862F880F892B90E0661F6627661F61830A
:101BF000009739F5211531054105510511F482E0B1
:101C000029C082E89FEF9383828367E0220F331F0E
:101C1000441F551F6A95D1F783E0808309C0220FC6
:101C2000331F441F551F82819381019793838283C1
:101C3000203080E0380780E0480780E4580778F3D8
:101C400020C08F3F910579F42115310541055105DB
:101C500019F484E08083089544FF03C081E0808309
:101C600010C010820EC08F5790409383828383E010
:101C7000808387E0220F331F441F551F8A95D1F7B9
:101C8000506424833583468357830895FC01DB0128
:101C90009081923008F449C08C91823008F445C09C
:101CA000943051F461818430B1F511962C911197E3
:101CB00030E0261B310941C0843021F0923041F4DC
:101CC0008230B1F111968C9111978823A1F12DC02A
:101CD0006181823001F111968C9111976817D9F4C6
:101CE0002281338112968D919C91139782179307CD
:101CF00094F028173907BCF024813581468157813B
:101D000014968D919D910D90BC91A02D82179307F3
:101D1000A407B50718F4662341F00DC0281739074A
:101D20004A075B0728F4662331F021E030E005C064
:101D300020E030E002C02FEF3FEFC9010895AA1B59
:101D4000BB1B51E107C0AA1FBB1FA617B70710F0A6
:101D5000A61BB70B881F991F5A95A9F780959095D8
:101D6000BC01CD01089597FB092E07260AD077FD07
:101D700004D0E5DF06D000201AF4709561957F4FFE
:101D80000895F6F7909581959F4F0895A1E21A2E38
:101D9000AA1BBB1BFD010DC0AA1FBB1FEE1FFF1F0F
:101DA000A217B307E407F50720F0A21BB30BE40B5F
:101DB000F50B661F771F881F991F1A9469F76095A6
:101DC0007095809590959B01AC01BD01CF01089560
:101DD0002F923F924F925F926F927F928F929F923B
:101DE000AF92BF92CF92DF92EF92FF920F931F9329
:101DF000CF93DF93CDB7DEB7CA1BDB0B0FB6F894DA
:101E0000DEBF0FBECDBF09942A88398848885F8419
:101E10006E847D848C849B84AA84B984C884DF808A
:101E2000EE80FD800C811B81AA81B981CE0FD11D6E
:101E30000FB6F894DEBF0FBECDBFED010895DC01F3
:101E400001C06D9341505040E0F70895DC01CB0193
:101E5000FC01E199FECF06C0FFBBEEBBE09A3196D4
:101E60000DB20D9241505040B8F70895DC01A40F17
:101E7000B51F4150504040F0CB01840F951F2E916B
:101E800005D041505040D8F70895262FE199FECF54
:101E90009FBB8EBBE09A01970DB2021631F02DBBAD
:101EA0000FB6F894E29AE19A0FBE0895F894FFCF26
:101EB00057616974696E672E2E2E0054656D7031FE
:101EC0000054656D70320054656D7033003E0055EE
:101ED0005000444F574E000000000000000000007A
:101EE00001020203030303040404040404040405BC
:101EF0000505050505050505050505050505050691
:101F00000606060606060606060606060606060671
:101F10000606060606060606060606060606060760
:101F20000707070707070707070707070707070741
:101F30000707070707070707070707070707070731
:101F40000707070707070707070707070707070721
:101F50000707070707070707070707070707070810
:101F600008080808080808080808080808080808F1
:101F700008080808080808080808080808080808E1
:101F800008080808080808080808080808080808D1
:101F900008080808080808080808080808080808C1
:101FA00008080808080808080808080808080808B1
:101FB00008080808080808080808080808080808A1
:101FC0000808080808080808080808080808080891
:101FD0000808080808080808080808080808080089
:00000001FF
