:100000000C9434000C9451000C9451000C94510049
:100010000C9451000C9451000C9451000C9451001C
:100020000C9451000C9451000C9451000C94E90C68
:100030000C9451000C9451000C9451000C945100FC
:100040000C9451000C9451000C9451000C945100EC
:100050000C9451000C9451000C9451000C945100DC
:100060000C9451000C94510011241FBECFEFD4E02A
:10007000DEBFCDBF11E0A0E0B1E0EEE4F9E202C0E6
:1000800005900D92AC37B107D9F712E0ACE7B1E0BB
:1000900001C01D92A039B107E1F70E94610C0C94D8
:1000A000A5140C94000097B121E030E002C0220FAB
:1000B000331F8A95E2F7922B97B988B12095822356
:1000C00088B98FEC97E00197F1F700C0000087B185
:1000D000822387B987E191E00197F1F700C0000022
:1000E00086B18FE896E00197F1F700C0000081E04B
:1000F00090E0089521E030E002C0220F331F8A957E
:10010000E2F7322F309588E090E060FF14C047B1ED
:10011000422B47B948B1432348B94AE14A95F1F720
:1001200000C047B1432347B9EBEDF0E03197F1F759
:1001300000C000000FC047B1422B47B948B143236C
:1001400048B9EFEEF0E03197F1F700C0000047B199
:10015000432347B9019711F06695D7CF08951F93B0
:10016000182F0E9453000097B9F08FE99FE0019784
:10017000F1F700C00000812F6CEC0E947A00812F03
:1001800064E40E947A008FEF93EDA0E381509040E9
:10019000A040E1F700C000001F91089597B121E051
:1001A00030E0082E02C0220F331F0A94E2F7922B90
:1001B00097B998B12095922398B995E09A95F1F75F
:1001C000000097B1922397B9E5E3EA95F1F70000B3
:1001D00026B1E7ECF0E03197F1F700C0000030E025
:1001E00002C0359527958A95E2F7822F8170089590
:1001F0000F931F93CF93DF93082FC8E0D0E010E058
:10020000802F0E94CE008795882787951695182BFA
:100210002197B1F7812FDF91CF911F910F91089511
:10022000FF920F931F93182F0E945300009751F1D4
:10023000812F6CEC0E947A00812F6EEB0E947A0075
:10024000812F0E94F800082F812F0E94F800F82EBD
:10025000812F0E94F800812F0E94F800812F0E94B8
:10026000F800812F0E94F800812F0E94F800812F52
:100270000E94F800812F0E94F8003F2D20E0200FFF
:10028000311D02C020E030E0C9011F910F91FF90A5
:100290000895AF92BF92CF92DF92EF92FF920F93A9
:1002A0001F93CF93DF930E9410019C0197FF0EC014
:1002B000309521953F4F0F2EF0E0EF2EF0E0FF2E0E
:1002C000F0E80F2FFFEB1F2FF02D0AC00F2EF0E0EC
:1002D000EF2EF0E0FF2EF0E80F2FFFE31F2FF02DA1
:1002E000B9016F70707041E752E0649FC001659F73
:1002F000900D749F900D112468EE73E00E943714E6
:10030000EB0141E0843F94070CF0219684E03695A0
:1003100027958A95E1F72F773070B90180E090E05A
:100320000E940A135B016C01BE01882777FD80954E
:10033000982F0E940C1320E030E040E251E40E942C
:1003400076129B01AC01C601B5010E940E12A801F4
:1003500097010E94C013DF91CF911F910F91FF90E1
:10036000EF90DF90CF90BF90AF900895833030F43E
:10037000E82FF0E0E050FF4F8081089580E008957D
:100380005E989BB1907F9BB92BB1982F92959F70EF
:10039000922B9BB95D9AEFE9FFE03197F1F700C02E
:1003A00000005D98EFEBFDE53197F1F700C000002C
:1003B0009BB1907F9BB99BB18F70892B8BB95D9A54
:1003C0008FE99FE00197F1F700C000005D98089564
:1003D0005F9A0E94C00108955F980E94C0018FEB50
:1003E0009DE50197F1F700C000000895803118F0F5
:1003F000805198EA01C090E8890F0E94EC010895AD
:1004000081E00E94EC0108958FEF8AB91BB88FEF4D
:1004100096E7A1E081509040A040E1F700C00000C5
:100420005F985E988BB1807F8BB98BB183608BB9FD
:10043000AFE1BEE41197F1F700C000008BB1807FFF
:100440008BB98BB183608BB987EE93E00197F1F79D
:1004500000C000008BB1807F8BB98BB183608BB9FA
:10046000AFE1BEE41197F1F700C000008BB1807FCF
:100470008BB9599A5D9A8FEB9DE50197F1F700C012
:1004800000005D9888E20E94EC0188E00E94EC0187
:1004900081E00E94EC0186E00E94EC018CE00E9469
:1004A000EC010895EF92FF92CF93DF93E82EE701DE
:1004B0007E01F92EE70102C00E94E801899188239C
:1004C000D9F7DF91CF91FF90EF90089583E891E005
:1004D00060E270E040E250E00E946C1410927C01F7
:1004E0000895CF93DF9380E00E94F601C3E8D1E046
:1004F00089910E94E80181E0C339D807C9F780E1FA
:100500000E94F60189910E94E80181E0C33AD80770
:10051000C9F7DF91CF910895282F392FD9010AC04B
:1005200090917C01E92FF0E0ED57FE4F80839F5FB3
:1005300090937C018D91882399F7089580937C0195
:1005400008950F931F93DF93CF9300D000D000D076
:10055000CDB7DEB7009761F480917C01E82FF0E021
:10056000ED57FE4F90E390838F5F80937C0136C000
:1005700097FF0EC020917C01E22FF0E0ED57FE4F77
:100580003DE230832F5F20937C01909581959F4FB2
:10059000FE01319620E030E00AE010E0B8010E9450
:1005A000371481932F5F3F4FCB010097B9F76091CC
:1005B0007C01CE010196FC01E20FF31F462F08C01B
:1005C000A42FB0E0AD57BE4F5291505D5C934F5F8A
:1005D000E817F907A9F7260F20937C0126960FB696
:1005E000F894DEBF0FBECDBFCF91DF911F910F9169
:1005F0000895EF92FF920F931F937B018C0120E0EF
:1006000030E0A9010E94721290917C0187FF0EC018
:10061000E92FF0E0ED57FE4F8DE280839F5F9093CE
:100620007C0117FB109517F9109509C0E92FF0E030
:10063000ED57FE4F8BE280839F5F90937C01C80152
:10064000B7010E94DE12DC01CB010E94A102809161
:100650007C01E82FF0E0ED57FE4F9EE290838F5F24
:1006600080937C01C801B70120E030E040E251E412
:100670000E94C0130E94DE12CB016AE070E00E946B
:1006800023140E94A1021F910F91FF90EF900895F3
:10069000833011F48BE0089584E00895833011F4E1
:1006A00082E0089583E00895FC01728761870895D0
:1006B000FC01608311821282138216820895CF9307
:1006C000DF93EC010E94660281E00E949E0283E0BB
:1006D00091E00E948C0281E10E949E028EE091E0F6
:1006E0000E948C0289E10E949E0281E191E00E94B9
:1006F0008C028981882319F0813031F402C080E1B5
:1007000001C088E10E949E0285E191E00E948C0276
:100710000E947102DF91CF910895CF93DF93EC0196
:100720000E94660281E00E949E0287E191E00E94A1
:100730008C028A81833071F089E00E949E028DE1F3
:1007400091E00E948C0281E10E949E0283E291E08E
:100750000E948C028981813039F0813018F082301A
:1007600041F404C080E003C088E001C080E10E9441
:100770009E0285E191E00E948C022A8189859A85FA
:10078000233049F4865A9F4FFC018081882309F465
:100790004EC086E046C0E22FF0E09F01220F331FDB
:1007A000A5E0EE0FFF1FAA95E1F7E21BF30BE80FA0
:1007B000F91F8185882339F086E00E949E0289E234
:1007C00091E00E948C02E985FA858A8190E09C0183
:1007D000220F331F65E0880F991F6A95E1F7821B8E
:1007E000930BE80FF91F8389882339F08EE00E946C
:1007F0009E0289E291E00E948C02E985FA858A8155
:1008000090E09C01220F331F45E0880F991F4A9505
:10081000E1F7821B930BE80FF91F858D882339F0D0
:1008200086E10E949E0289E291E00E948C020E9471
:100830007102DF91CF910895CF93DF93EC012B816B
:100840008AE0289F900111249A818EE1989FC0012F
:100850001124280F391F89859A85820F931F988745
:100860008F8381E09E81911180E08E830E946602D9
:100870008C81843008F04CC08E81882319F48D81DE
:10088000813059F081E00E949E02EF81F8856081FD
:100890007181828193810E94F9028E81882319F4EB
:1008A0008D81823059F089E00E949E02EF81F885A7
:1008B00064817581868197810E94F9028E818823E7
:1008C00019F48D81833079F081E10E949E02EF81DD
:1008D000F8858085882319F08BE291E002C080E3DF
:1008E00091E00E948C028E81882319F48D818430DE
:1008F00079F089E10E949E02EF81F8858185882345
:1009000019F085E391E002C088E391E00E948C0237
:100910008C818430D9F0853048F48130C9F0813041
:10092000A8F08230B9F08330C1F40EC0873071F086
:10093000883028F4853061F0863079F40BC0883037
:1009400039F0893051F406C088E105C080E003C069
:1009500088E001C080E10E949E0285E191E00E9452
:100960008C020E947102DF91CF910895EF92FF9265
:100970000F931F93CF93DF93EC01E984FA840B81EB
:1009800010E081E09E81911180E08E830E946602DA
:100990008C81843008F080C08E81882319F48D8189
:1009A0008130D1F081E00E949E0287E190E0089FB3
:1009B000F001099FF00D189FF00D1124EE0DFF1DA1
:1009C000E65AFF4F8081882319F085E391E002C049
:1009D00088E391E00E948C028E81882319F48D8136
:1009E0008230D1F089E00E949E028CE391E00E9467
:1009F0008C0287E190E0089FF001099FF00D189F9D
:100A0000F00D1124EE0DFF1DE55AFF4F608171813D
:100A1000828193810E94F9028E81882319F48D814D
:100A20008330C1F081E10E949E028FE391E00E9439
:100A30008C0287E190E0089FF001099FF00D189F5C
:100A4000F00D1124EE0DFF1DE15AFF4F808190E063
:100A50000E94A1028E81882321F48D81843009F4C3
:100A60000FC189E10E949E0283E491E00E948C0202
:100A700087E190E0089FF001099FF00D189FF00DAD
:100A80001124EE0DFF1DEC59FF4F608171818281B1
:100A900093810E94F902F4C0883008F084C08E81EE
:100AA000882319F48D818530D1F081E00E949E0267
:100AB00086E491E00E948C0287E190E0089FF001BB
:100AC000099FF00D189FF00D1124EE0DFF1DE05A47
:100AD000FF4F60817181828193810E94F9028E8132
:100AE000882319F48D818630D1F089E00E949E021E
:100AF00089E491E00E948C0287E190E0089FF00178
:100B0000099FF00D189FF00D1124EE0DFF1DE859FF
:100B1000FF4F60817181828193810E94F9028E81F1
:100B2000882319F48D818730C1F081E10E949E02F3
:100B30008CE491E00E948C0287E190E0089FF00134
:100B4000099FF00D189FF00D1124EE0DFF1DE459C3
:100B5000FF4F808190E00E94A1028E81882321F4C2
:100B60008D81883009F48CC089E10E949E028FE457
:100B700091E00E948C0287E190E0089FF001099FBC
:100B8000F00D189FF00D1124EE0DFF1DE359FF4FDE
:100B9000808190E00E94A10282E591E00E948C0297
:100BA00082E390E06BC08C3008F06AC08E818823AD
:100BB00019F48D81893001F181E00E949E0284E563
:100BC00091E00E948C0287E190E0089FF001099F6C
:100BD000F00D189FF00D1124EE0DFF1DE259FF4F8F
:100BE000808190E00E94A10282E591E00E948C0247
:100BF00082E390E00E94A1028E81882319F48D8106
:100C00008A3001F189E00E949E0287E591E00E940E
:100C10008C0287E190E0089FF001099FF00D189F7A
:100C2000F00D1124EE0DFF1DE159FF4F808190E082
:100C30000E94A10282E591E00E948C0282E390E092
:100C40000E94A1028E81882319F48D818B30C1F01E
:100C500081E10E949E028AE591E00E948C0287E178
:100C600090E0089FF001099FF00D189FF00D1124EE
:100C7000EE0DFF1DE059FF4F808190E00E94A10220
:100C80008C81853011F1863070F4823001F183302F
:100C900028F48823C1F08130E9F417C0833089F04B
:100CA0008430C1F410C0883071F0893028F4863067
:100CB00071F0873079F405C0893039F08A3051F409
:100CC00006C088E105C080E003C088E001C080E183
:100CD0000E949E0285E191E00E948C020E947102B6
:100CE000DF91CF911F910F91FF90EF900895CF93D7
:100CF000DF93EC010E94660281E00E949E028DE576
:100D000091E00E948C0289E00E949E0284E691E0BC
:100D10000E948C0281E10E949E028BE691E00E947B
:100D20008C0289E10E949E0282E791E00E948C027F
:100D30008981813049F0813028F0823039F0833068
:100D400051F406C080E005C088E003C080E101C026
:100D500088E10E949E0285E191E00E948C020E943F
:100D60007102DF91CF910895FC012081213039F08B
:100D7000213090F0223031F0233099F410C00E94DD
:100D80008D030895FC012281233019F40E94B604DA
:100D900008950E941C0408950E94770608950E94F9
:100DA0005F030895CF93DF93EC018881813039F0A0
:100DB0008130B8F08230D9F0833071F508C0898174
:100DC00092E0988319828B831C821D8225C08985BD
:100DD0009A850E945B11188219821A821B821E82D8
:100DE0001BC0898191E098838A83198215C08D8107
:100DF000882321F48C818F5F8D830EC01D826A81D0
:100E000089859A85633021F04B810E94371104C097
:100E100063E04B810E944B11DF91CF910895AF9217
:100E2000BF92CF92DF92EF92FF920F931F93CF93D7
:100E3000DF93EC01062F442311F411E001C012E30B
:100E40008D81813071F5AF80B884602F772767FD81
:100E50007095872F972F0E940C132DEC3CEC4CECD7
:100E60005DE30E94C0136B017C01612F70E0882755
:100E700077FD8095982F0E940C139B01AC01C70150
:100E8000B6010E94C0139B01AC01F5016081718124
:100E9000828193810E940E12F501608371838283A7
:100EA00093838D81823071F5AF80B884602F77276E
:100EB00067FD7095872F972F0E940C132DEC3CEC4B
:100EC0004CEC5DE30E94C0136B017C01612F70E06C
:100ED000882777FD8095982F0E940C139B01AC0109
:100EE000C701B6010E94C0139B01AC01F5016481EA
:100EF0007581868197810E940E12F5016483758346
:100F0000868397838D81833039F4EF81F88581E082
:100F10009085911180E080878D81843039F4EF8154
:100F2000F88581E09185911180E08187DF91CF91F3
:100F30001F910F91FF90EF90DF90CF90BF90AF90F7
:100F40000895CF92DF92EF92FF921F93CF93DF939A
:100F5000FC01442319F451E011E002C05AE012E30D
:100F600081859285238130E04581463009F4A4C013
:100F7000473090F4433009F443C0443030F44130FA
:100F8000F1F0423009F006C12DC0443009F44FC0E1
:100F9000453009F0FFC082C0493009F4C3C04A306F
:100FA00038F4473009F496C0483009F0F3C0A9C0BE
:100FB0004A3009F4C8C04B3009F0ECC0D5C047E155
:100FC00050E0249FF001259FF00D349FF00D112477
:100FD000E80FF91FE65AFF4F81E09081911180E000
:100FE0008083D8C047E150E0249FE001259FD00DC9
:100FF000349FD00D1124C80FD91FC55ADF4F24C00C
:10100000569F602D112447E150E0249FF001259F59
:10101000F00D349FF00D1124E80FF91FE15AFF4F36
:101020008081680F60836D3308F4B4C0B2C047E1BB
:1010300050E0249FE001259FD00D349FD00D112456
:10104000C80FD91FCC59DF4F772767FD7095872FC1
:10105000972F0E940C132DEC3CEC4CEC5DE30E94AE
:10106000C0136B017C01612F70E0882777FD8095AC
:10107000982F0E940C139B01AC01C701B6010E947E
:10108000C0139B01AC01688179818A819B810E9498
:101090000E12688379838A839B837CC047E150E08A
:1010A000249FE001259FD00D349FD00D1124C80F3F
:1010B000D91FC05ADF4FC8CF47E150E0249FE0015D
:1010C000259FD00D349FD00D1124C80FD91FC859AA
:1010D000DF4FBACF569F602D112447E150E0249F87
:1010E000F001259FF00D349FF00D1124E80FF91F3A
:1010F000E459FF4F8081680F60836F3108F44AC064
:1011000048C0569F602D112447E150E0249FF00114
:10111000259FF00D349FF00D1124E80FF91FE359BE
:10112000FF4F32C0569F602D112447E150E0249FAD
:10113000F001259FF00D349FF00D1124E80FF91FE9
:10114000E259FF4F21C0569F602D112447E150E026
:10115000249FF001259FF00D349FF00D1124E80F1E
:10116000F91FE159FF4F10C0569F602D112447E130
:1011700050E0249FF001259FF00D349FF00D1124C5
:10118000E80FF91FE059FF4F8081680F60836333D8
:1011900008F01082DF91CF911F91FF90EF90DF90C8
:1011A000CF900895FC018081813059F0813018F092
:1011B000823089F513C081818F5F8183843059F536
:1011C0000BC081818F5F81839281933011F492E013
:1011D00001C093E08917F9F411820895858188236D
:1011E00061F484818F5F84839281933011F49BE05A
:1011F00001C094E0891709F414828281833031F0B0
:10120000CF0161E040E00E940F070895CF0161E047
:1012100040E00E94A1070895FC018081813081F0A7
:10122000813028F08230D1F08330B1F505C0818162
:10123000882381F484E00DC08181882339F00AC0BD
:101240008181882339F48281833011F482E001C0E6
:1012500083E0818381818150818308958581882302
:1012600069F48481882339F48281833011F48BE01E
:1012700001C084E0848384818150848382818330AF
:1012800031F0CF016FEF40E00E940F070895CF01CA
:101290006FEF40E00E94A1070895FC01808181303A
:1012A00019F08230D1F403C08281108206C085819A
:1012B000882329F4838191E090838183089582813A
:1012C000833031F0CF016FEF41E00E940F070895A6
:1012D000CF016FEF41E00E94A1070895FC018081DA
:1012E000823041F08430A1F483E080831182148243
:1012F000158208958281833031F0CF0161E041E0B1
:101300000E940F070895CF0161E041E00E94A1070C
:101310000895CF93DF93EC010E94000284E088835C
:101320001982DF91CF910895FC01108261830895A5
:10133000FC0181E08083628341830895FC0182E0A7
:101340008083118262834383148215820895FC0195
:1013500083E0808311821482158208950895682F96
:10136000F8948BEA91E00E94580381E08093B601E3
:10137000289A299A2A9A2B9A10927D0110927E011E
:1013800010927F011092800108958BEC91E00E94F1
:10139000C30E1092B60178940895DF92EF92FF92F7
:1013A0000F931F93DF93CF9300D0CDB7DEB7E090BC
:1013B0007D01F0907E0100917F0110918001C801B4
:1013C000B70124EF31E040E050E00E944A1461157B
:1013D00071058105910571F00894E11CF11C011D56
:1013E000111DE0927D01F0927E0100937F01109328
:1013F0008001D0C085E00E94AF0084E00E94AF0071
:1014000083E00E94AF0085E00E9449016093BB0128
:101410007093BC018093BD019093BE0184E00E9453
:1014200049016093BF017093C0018093C101909303
:10143000C20183E00E9449016093C3017093C4011B
:101440008093C5019093C6010E94340FD82E83EA81
:1014500091E068EE71E04BEB51E00E94290D87EAC4
:1014600091E068EE71E04BEB51E00E94290D84EEB3
:1014700091E068EE71E04BEB51E00E94290D8BEC9E
:1014800091E06BEB71E04D2D28E832E00E94C10F36
:101490000E94660280E00E949E026091BB017091F2
:1014A000BC018091BD019091BE010E94F90285E0CE
:1014B0000E949E026091BF017091C0018091C101A4
:1014C0009091C2010E94F9028BE00E949E02E0907E
:1014D0008802F090890200918A0210918B02C80163
:1014E000B70120E030E040EA52EC0E94BC1318162D
:1014F0002CF4C801B7010E94F90204C089E791E009
:101500000E948C0280E10E949E026091C301709152
:10151000C4018091C5019091C6010E94F90288E141
:101520000E949E028091CF0190E00E94A1028AE178
:101530000E949E028091DE019091DF010E94A10233
:101540008DE10E949E028091D90190E00E94A1024B
:101550008FE10E949E021A82DD2011F08BE201C011
:101560008DE28983CE0101960E948C020E94710255
:1015700081E090E0A0E0B0E080937D0190937E0157
:10158000A0937F01B09380018FE891E00197F1F77C
:1015900000C000000F900F90CF91DF911F910F912D
:1015A000FF90EF90DF9008958BEA91E00E940C0984
:1015B00010927D0110927E0110927F0110928001A5
:1015C00008958BEA91E00E94D20810927D0110925A
:1015D0007E0110927F011092800108958BEA91E0C4
:1015E0000E94D20610927D0110927E0110927F011E
:1015F0001092800108958BEA91E00E944D091092AB
:101600007D0110927E0110927F0110928001089559
:101610008091B601882321F483E00E94AF0904C0C1
:101620008BEA91E00E946E0910927D0110927E017A
:1016300010927F011092800108958091B601882355
:1016400019F40E94AF0902C00E94C50910927D01E1
:1016500010927E0110927F011092800108951092E5
:10166000B7011092B8011092B9011092BA0110920C
:10167000C7011092C8011092C9011092CA011092BC
:10168000E0011092E1011092E2011092E30138981A
:101690003A983998409A429A419A0895309915C0DB
:1016A0008091B7019091B801A091B901B091BA01B0
:1016B000B7FD0BC00196A11DB11D8093B70190939A
:1016C000B801A093B901B093BA01329915C08091C5
:1016D000C7019091C801A091C901B091CA01B7FD9D
:1016E0000BC00196A11DB11D8093C7019093C80145
:1016F000A093C901B093CA01319915C08091E0014E
:101700009091E101A091E201B091E301B7FD0BC01E
:101710000196A11DB11D8093E0019093E101A0937A
:10172000E201B093E3018091B7019091B801A091DB
:10173000B901B091BA01893E23E0920720E0A207E7
:1017400020E0B2076CF00E94FB0A8FEF9FEFDC01F4
:101750008093B7019093B801A093B901B093BA01F7
:101760008091C7019091C801A091C901B091CA01AF
:10177000893E23E0920720E0A20720E0B2076CF048
:101780000E94080B8FEF9FEFDC018093C7019093BD
:10179000C801A093C901B093CA018091E001909162
:1017A000E101A091E201B091E301893E23E09207BB
:1017B00020E0A20720E0B2076CF00E941D0B8FEF23
:1017C0009FEFDC018093E0019093E101A093E2019F
:1017D000B093E301309B1DC08091B7019091B80197
:1017E000A091B901B091BA010197A109B109873E51
:1017F00023E0920720E0A20720E0B20710F40E9445
:10180000D40A1092B7011092B8011092B901109247
:10181000BA01329B1DC08091C7019091C801A0916F
:10182000C901B091CA010197A109B109873E23E01E
:10183000920720E0A20720E0B20710F40E94E10A1C
:101840001092C7011092C8011092C9011092CA01EA
:10185000319B1DC08091E0019091E101A091E201D6
:10186000B091E3010197A109B109873E23E09207F6
:1018700020E0A20720E0B20710F40E94EE0A1092C6
:10188000E0011092E1011092E2011092E30108954B
:10189000F89410928000E1E8F0E0108288E391E093
:1018A0009093890080938800808188608083AFE670
:1018B000B0E08C9182608C93808185608083789485
:1018C00008956F927F928F929F92AF92BF92CF9224
:1018D000DF92EF92FF920F931F931092B6010E9436
:1018E000340F809387020E9404020E942F0B88EE1F
:1018F00091E00E940D1183EA91E060E00E940F0DDB
:1019000087EA91E061E00E940F0D84EE91E062E0D1
:101910000E940F0D8BEC91E068EE71E043E00E94B5
:10192000FE0E8BEA91E068EE71E00E9454030E9483
:10193000480C5C9A9CE2A92E91E0B92EC12CD12CC6
:1019400081E0682E712C812C912C0E94340F8093A1
:1019500087020E944E0B8FE99FE00197F1F700C0CC
:1019600000008091B601882319F0813071F703C01F
:101970000E94CD09EACFE0907D01F0907E010091B8
:101980007F0110918001C801B701A60195010E9455
:101990004A14611571058105910571F00894E11CE7
:1019A000F11C011D111DE0927D01F0927E0100935A
:1019B0007F0110938001C9CF8BEA91E00E94B406A9
:1019C00060927D0170927E0180927F0190928001F1
:1019D000BCCF1F920F920FB60F9211242F933F93FB
:1019E0004F935F936F937F938F939F93AF93BF9327
:1019F000EF93FF938BEC91E00E942B0EFF91EF9100
:101A0000BF91AF919F918F917F916F915F914F9116
:101A10003F912F910F900FBE0F901F901895FC01D2
:101A2000608311821282138224B181E090E0AC01C4
:101A300002C0440F551F6A95E2F7242B24B925B143
:101A4000008002C0880F991F0A94E2F7282B25B95D
:101A500008954F925F926F927F928F929F92AF9272
:101A6000BF92CF92DF92EF92FF920F931F93CF938B
:101A7000DF933C015B01FC01F0808EE1FF2DF89FBC
:101A8000200111248301C42ED52E88249924EE240C
:101A9000E394E401C40DD51DCA0DDB1D898588239F
:101AA00009F44EC08885882339F1F601608171817F
:101AB00082819381288139814A815B810E947212DF
:101AC00087FF02C0F8011182688179818A819B8138
:101AD0002C813D814E815F810E940E129B01AC01E1
:101AE000F60160817181828193810E94BC13181676
:101AF0004CF5F801E18226C0688179818A819B8159
:101B00002C813D814E815F810E940D129B01AC01B1
:101B1000F60160817181828193810E94721287FF38
:101B200002C0F801E182F6016081718182819381B6
:101B3000288139814A815B810E94BC13181614F4F4
:101B4000F80111828AE090E0880E991E0F5F1F4F06
:101B5000E4E0F0E0CE0EDF1EFEE18F16910409F006
:101B600098CFAF2DB0E0CD01880F991F05E0AA0FE7
:101B7000BB1F0A95E1F7A81BB90BAA0DBB1DEF2DE2
:101B8000F0E0CF01880F991F75E0EE0FFF1F7A95E7
:101B9000E1F7E81BF90BEA0DFB1D53962C915397C7
:101BA0008185282BEF2DF0E0CF01880F991F55E09C
:101BB000EE0FFF1F5A95E1F7E81BF90BEA0DFB1D2D
:101BC000858D282BEF2DF0E0CF01880F991F35E090
:101BD000EE0FFF1F3A95E1F7E81BF90B3996EA0D76
:101BE000FB1D81E090E03081332339F0D301A80F51
:101BF000B91F3C91332309F420E001963A968430D2
:101C0000910589F7222361F025B181E090E002C0BF
:101C1000880F991FFA94E2F78095822385B90AC04C
:101C200025B181E090E002C0880F991FFA94E2F795
:101C3000282B25B9DF91CF911F910F91FF90EF9045
:101C4000DF90CF90BF90AF909F908F907F906F90DC
:101C50005F904F900895FC0143814F3F09F46FC09E
:101C60002181328150E067E170E0469FC001479FCB
:101C7000900D569F900D1124865A9F4F820F931FEF
:101C8000009709F45CC0818992890196928B818BBF
:101C90006BE0883B960739F4838994890196948B8D
:101CA000838B128A118A878590890196908B87870A
:101CB00067E170E0469FD001479FB00D569FB00D81
:101CC0001124A20FB31FA459BF4F7C9162E3769FEA
:101CD000B00111246817790720F481E090E0908B1F
:101CE000878787E190E0489FD001499FB00D589FBA
:101CF000B00D1124A20FB31FA459BF4F9C9186852C
:101D0000989FC0011124278530894081821793074D
:101D100060F025B181E090E002C0880F991F4A95DC
:101D2000E2F78095822385B9089525B181E090E09E
:101D300002C0880F991F4A95E2F7282B25B908950C
:101D4000FC01108A17860895FC01128A118A148AF0
:101D5000138A0895FC0123812F3F89F030E087E149
:101D600090E0289FA001299F500D389F500D11240D
:101D7000465A5F4F21813281240F351F02C020E077
:101D800030E0C9010895DC018FEF13968C9313970F
:101D900011968D919C911297FC01E65AFF4F20817C
:101DA000222381F4FC01EF58FF4F2081222371F49C
:101DB000FC01E857FF4F20812223F9F042E022E0A6
:101DC00030E007C040E020E030E003C041E021E027
:101DD00030E013964C93139747E150E0249FF001B5
:101DE000259FF00D349FF00D1124E80FF91FE159E4
:101DF000FF4F80811D968C931D970895CF93DF939D
:101E0000EC0148837A8369830E94C30E1E861C827C
:101E100080E090E0DC0189879A87AB87BC878D835F
:101E20009E83AF83B887188A1F861A8A198A1C8AEC
:101E30001B8A44B181E090E09C01088002C0220F1F
:101E4000331F0A94E2F7422B44B925B1088002C03F
:101E5000880F991F0A94E2F7282B25B9DF91CF91BB
:101E60000895FC0166870895259881E01D9B80E018
:101E700008952F923F924F925F926F927F928F922E
:101E80009F92AF92BF92CF92DF92EF92FF920F9309
:101E90001F93D62EC72EB82EA92E922E832E742EC7
:101EA000652EA6019501652F742F832F922FD401E3
:101EB000F3012B2F3A2F4F2F5E2F0E940D121B0183
:101EC0002C016E2D7F2D802F912FD601F5012B2F08
:101ED0003A2F4F2F5E2F0E940D129B01AC01C201C1
:101EE000B1010E94C01320E030E0A9010E94BC13A0
:101EF00087FF30C0A4019301652F742F832F922F89
:101F0000D601F5012B2F3A2F4F2F5E2F0E940D1275
:101F10005B016C016E2D7F2D802F912FD401F30179
:101F20002B2F3A2F4F2F5E2F0E940D129B01AC01D9
:101F3000C601B5010E94C01320E030E0A9010E9453
:101F4000BC1387FD03C06401530104C0DE2CCF2CF9
:101F5000B02EA12EA6019501652F7C2D832F9A2DE1
:101F60001F910F91FF90EF90DF90CF90BF90AF90B7
:101F70009F908F907F906F905F904F903F902F90A9
:101F800008952F923F924F925F926F927F928F921D
:101F90009F92AF92BF92CF92DF92EF92FF920F93F8
:101FA0001F93CF93DF93EC0139018B818F3F09F4AD
:101FB000FDC029813A81A82FB0E007E110E0A09F81
:101FC000F001A19FF00DB09FF00D11248F01065A72
:101FD0001F4F020F131F0115110509F4E7C0AA0FC7
:101FE000BB1FAA0FBB1FA60FB71FED90FD900D9151
:101FF0001C9113979C81933009F445C0943028F4C8
:102000009130F9F0923088F510C0963009F49EC0F6
:10201000973020F4953009F0C9C082C0973009F498
:10202000A4C0983009F0C2C0B2C01E8680E090E023
:10203000A4EBB2ECF30180839183A283B38381E0AC
:10204000B4C0E20FF31FE55AFF4FC801B70120816A
:102050003181428153810E94BC1387FDA7C01A8A37
:10206000198A1C8A1B8A82E0A0C0E20FF31FE15A82
:10207000FF4F808190E02B893C892817390708F4AD
:1020800095C083E092C06F01C20ED31E442309F4B1
:1020900041C095E09C830E94B601882E0E944901B0
:1020A0001B012C01882D0E9449014B015C01C801D4
:1020B000B701A2019101850174010E94390FF3015A
:1020C0006083718382839383F601E05AFF4FE0803F
:1020D000F18002811381A80197010E940E126D8385
:1020E0007E838F839887C801B701F30120813181F6
:1020F000428153810E940E12F601EC59FF4F20815C
:102100003181428153810E940D1269877A878B87C2
:102110009C874CC0F601E359FF4F80818E8746C0F3
:10212000E20FF31FDF01A259BF4F8C918E8744232A
:1021300061F1E859FF4FC801B70120813181428127
:1021400053810E94BC1387FD31C02EC01E864423DC
:10215000E1F0C801B70129853A854B855C850E946D
:10216000BC1318161CF187E020C08D858E87442390
:1021700061F0C801B7012D813E814F8158850E94D1
:10218000BC1387FD13C088E010C01C820FC0E20F93
:10219000F31FE059FF4F8D859081891B8D8718169D
:1021A00014F081E08D871E8686E08C83DF91CF91CD
:1021B0001F910F91FF90EF90DF90CF90BF90AF9065
:1021C0009F908F907F906F905F904F903F902F9057
:1021D00008952AE0429FA00111242EE1629FB001E0
:1021E0001124460F571FBA0160507040840F951F8D
:1021F0004AE050E00E947314089527E1429FA00135
:102200001124865A9F4FBA01665A7F4F840F951F3B
:1022100047E150E00E94731408951F93CF93DF931A
:10222000EC0110E0CE01612F40E00E94E910CE01E8
:10223000612F41E00E94E910CE01612F42E00E942F
:10224000E9101F5F143071F7CE0163E040E00E9497
:10225000FD10CE0163E041E00E94FD10CE0163E07D
:1022600042E00E94FD10DF91CF911F9108952AE076
:10227000429FA00111242EE1629FB0011124460F5C
:10228000571FBA0160507040840F951F4AE050E01C
:102290000E948314089527E1429FA0011124865AC9
:1022A0009F4FBA01665A7F4F840F951F47E150E058
:1022B0000E94831408952F923F924F925F926F92E3
:1022C0007F928F929F92AF92BF92CF92DF92EF92C6
:1022D000FF920F931F93DF93CF930F92CDB7DEB78B
:1022E0007C0100E010E00F2EF0E0AF2EF0E0BF2EFA
:1022F000F4EACF2EF1E4DF2EF02D0F2EF0E06F2E5A
:10230000F0E07F2EF0E88F2EFFE39F2EF02D442487
:1023100043941EC0F101A082B182C282D382648242
:1023200075828682978240861186C701652D422F6D
:1023300029830E94371129812F5F8AE090E0280EBF
:10234000391E233039F70F5F1F4F0330110581F01D
:10235000502EC801880F991F180125E0220C331C4C
:102360002A95E1F7281A390A2E0C3F1C20E0D2CF1B
:102370009AE5292E312C2E0C3F1C10E00F2EF0E098
:10238000AF2EF0E0BF2EFCE8CF2EF2E4DF2EF02DD2
:1023900001E00F2EF0E06F2EF0E07F2EF0E08F2EA8
:1023A000F0E09F2EF02D8AE0582EF1011082A182DC
:1023B000B282C382D48205836286738684869586C0
:1023C0006682778280869186A686B786C08AD18A01
:1023D000528A038B048B058B068BC70163E0412F68
:1023E0000E944B111F5F87E190E0280E391E1330C9
:1023F000E1F60F90CF91DF911F910F91FF90EF9039
:10240000DF90CF90BF90AF909F908F907F906F9014
:102410005F904F903F902F9008955058BB27AA2768
:102420000ED070C161D130F066D120F031F49F3F01
:1024300011F41EF456C10EF4E095E7FB4CC1E92FF0
:1024400072D180F3BA17620773078407950718F0F3
:1024500071F49EF58AC10EF4E0950B2EBA2FA02DD3
:102460000B01B90190010C01CA01A0011124FF2741
:10247000591B99F0593F50F4503E68F11A16F0403C
:10248000A22F232F342F4427585FF3CF469537953B
:102490002795A795F0405395C9F77EF41F16BA0B00
:1024A000620B730B840BBAF09150A1F0FF0FBB1FAE
:1024B000661F771F881FC2F70EC0BA0F621F731FF7
:1024C000841F48F4879577956795B795F7959E3F54
:1024D00008F0B3CF9395880F08F09927EE0F9795E2
:1024E00087950895D4D008F481E008950CD00AC1EE
:1024F00002D140F0F9D030F021F45F3F19F0EBC089
:10250000511134C1EEC00FD198F39923C9F355236B
:10251000B1F3951B550BBB27AA27621773078407D6
:1025200038F09F5F5F4F220F331F441FAA1FA9F38C
:1025300033D00E2E3AF0E0E830D091505040E6957E
:10254000001CCAF729D0FE2F27D0660F771F881FDF
:10255000BB1F261737074807AB07B0E809F0BB0BCE
:10256000802DBF01FF2793585F4F2AF09E3F5105F2
:1025700068F0B1C0FBC05F3FECF3983EDCF386959A
:1025800077956795B795F7959F5FC9F7880F911D68
:102590009695879597F90895E1E0660F771F881F54
:1025A000BB1F621773078407BA0720F0621B730B07
:1025B000840BBA0BEE1F88F7E0950895BCD088F025
:1025C0009F5790F0B92F9927B751A0F0D1F0660F1F
:1025D000771F881F991F1AF0BA95C9F712C0B1303A
:1025E00081F0C3D0B1E00895C0C0672F782F88274D
:1025F000B85F39F0B93FCCF3869577956795B39579
:10260000D9F73EF490958095709561957F4F8F4FE7
:102610009F4F0895E89409C097FB3EF490958095EC
:10262000709561957F4F8F4F9F4F9923A9F0F92F98
:1026300096E9BB279395F695879577956795B79516
:10264000F111F8CFFAF4BB0F11F460FF1BC06F5FFC
:102650007F4F8F4F9F4F16C0882311F096E911C00E
:10266000772321F09EE8872F762F05C0662371F02F
:1026700096E8862F70E060E02AF09A95660F771F43
:10268000881FDAF7880F9695879597F90895990F1F
:102690000008550FAA0BE0E8FEEF16161706E8072C
:1026A000F907C0F012161306E407F50798F0621B4D
:1026B000730B840B950B39F40A2661F0232B242B22
:1026C000252B21F408950A2609F4A140A6958FEF41
:1026D000811D811D089597F99F6780E870E060E093
:1026E00008959FEF80EC089500240A9416161706AB
:1026F00018060906089500240A94121613061406F3
:1027000005060895092E0394000C11F4882352F055
:10271000BB0F40F4BF2B11F460FF04C06F5F7F4F0D
:102720008F4F9F4F089557FD9058440F551F59F0F4
:102730005F3F71F04795880F97FB991F61F09F3FAE
:1027400079F087950895121613061406551FF2CFD7
:102750004695F1DF08C0161617061806991FF1CF27
:1027600086957105610508940895E894BB2766274E
:102770007727CB0197F908958ADF08F48FEF089542
:102780000BD0C0CFB1DF28F0B6DF18F0952309F0E9
:10279000A2CFA7CF1124EACFC6DFA0F3959FD1F334
:1027A000950F50E0551F629FF001729FBB27F00DFF
:1027B000B11D639FAA27F00DB11DAA1F649F662754
:1027C000B00DA11D661F829F2227B00DA11D621FA3
:1027D000739FB00DA11D621F839FA00D611D221F5D
:1027E000749F3327A00D611D231F849F600D211D41
:1027F000822F762F6A2F11249F5750408AF0E1F0E4
:1028000088234AF0EE0FFF1FBB1F661F771F881F2C
:1028100091505040A9F79E3F510570F05CCFA6CF74
:102820005F3FECF3983EDCF3869577956795B79517
:10283000F795E7959F5FC1F7FE2B880F911D969541
:10284000879597F90895AA1BBB1B51E107C0AA1FE2
:10285000BB1FA617B70710F0A61BB70B881F991F41
:102860005A95A9F780959095BC01CD01089597FBE5
:10287000092E07260AD077FD04D0E5DF06D0002018
:102880001AF4709561957F4F0895F6F790958195AC
:102890009F4F0895A1E21A2EAA1BBB1BFD010DC07C
:1028A000AA1FBB1FEE1FFF1FA217B307E407F50700
:1028B00020F0A21BB30BE40BF50B661F771F881FDC
:1028C000991F1A9469F760957095809590959B0172
:1028D000AC01BD01CF010895DC0101C06D934150F1
:1028E0005040E0F70895DC01CB01FC01F999FECFDF
:1028F00006C0F2BDE1BDF89A319600B40D92415088
:102900005040B8F70895DC01A40FB51F4150504066
:1029100048F0CB01840F951F2E910E9494144150D2
:102920005040D0F70895262FF999FECF92BD81BD72
:10293000F89A019700B4021639F01FBA20BD0FB6FD
:0E294000F894FA9AF99A0FBE0895F894FFCF12
:10294E0005040352455345543F3F3F3F3F004E6FF2
:10295E0000596573003E0054656D70310054656D0D
:10296E0070320054656D7033002A00434F4C4400A2
:10297E0048454154004F6E004F666600547A00740D
:10298E00332000543100543200543300747000531D
:10299E0067002F0053630053730053640052656C3D
:1029AE006179310052656C6179320052656C6179E2
:0C29BE00330052656C617934002A00007F
:00000001FF
